{"contracts/GardenEscrow.sol":{"GardenEscrow":{"abi":[{"inputs":[],"stateMutability":"nonpayable","type":"constructor"},{"anonymous":false,"inputs":[{"indexed":true,"internalType":"string","name":"bookingId","type":"string"},{"indexed":false,"internalType":"string","name":"petName","type":"string"},{"indexed":false,"internalType":"uint256","name":"amountBs","type":"uint256"}],"name":"BookingCreated","type":"event"},{"anonymous":false,"inputs":[{"indexed":true,"internalType":"string","name":"bookingId","type":"string"},{"indexed":false,"internalType":"uint256","name":"timestamp","type":"uint256"}],"name":"PaymentConfirmed","type":"event"},{"anonymous":false,"inputs":[{"indexed":true,"internalType":"string","name":"bookingId","type":"string"},{"indexed":false,"internalType":"string","name":"reason","type":"string"},{"indexed":false,"internalType":"uint256","name":"timestamp","type":"uint256"}],"name":"ServiceCancelled","type":"event"},{"anonymous":false,"inputs":[{"indexed":true,"internalType":"string","name":"bookingId","type":"string"},{"indexed":false,"internalType":"uint8","name":"rating","type":"uint8"},{"indexed":false,"internalType":"uint256","name":"timestamp","type":"uint256"}],"name":"ServiceFinalized","type":"event"},{"inputs":[{"internalType":"string","name":"","type":"string"}],"name":"bookings","outputs":[{"internalType":"string","name":"bookingId","type":"string"},{"internalType":"string","name":"clientId","type":"string"},{"internalType":"string","name":"caregiverId","type":"string"},{"internalType":"uint256","name":"amountBs","type":"uint256"},{"internalType":"uint256","name":"startTime","type":"uint256"},{"internalType":"uint256","name":"endTime","type":"uint256"},{"internalType":"bool","name":"isActive","type":"bool"},{"internalType":"bool","name":"isCompleted","type":"bool"},{"internalType":"uint8","name":"rating","type":"uint8"},{"internalType":"string","name":"petName","type":"string"},{"internalType":"string","name":"serviceType","type":"string"}],"stateMutability":"view","type":"function"},{"inputs":[{"internalType":"string","name":"_bookingId","type":"string"},{"internalType":"string","name":"_reason","type":"string"}],"name":"cancelBooking","outputs":[],"stateMutability":"nonpayable","type":"function"},{"inputs":[{"internalType":"string","name":"_bookingId","type":"string"},{"internalType":"string","name":"_clientId","type":"string"},{"internalType":"string","name":"_caregiverId","type":"string"},{"internalType":"uint256","name":"_amountBs","type":"uint256"},{"internalType":"uint256","name":"_startTime","type":"uint256"},{"internalType":"uint256","name":"_endTime","type":"uint256"},{"internalType":"string","name":"_petName","type":"string"},{"internalType":"string","name":"_serviceType","type":"string"}],"name":"createBooking","outputs":[],"stateMutability":"nonpayable","type":"function"},{"inputs":[{"internalType":"string","name":"_bookingId","type":"string"},{"internalType":"uint8","name":"_rating","type":"uint8"}],"name":"finalizeBooking","outputs":[],"stateMutability":"nonpayable","type":"function"},{"inputs":[{"internalType":"string","name":"_id","type":"string"}],"name":"getBooking","outputs":[{"components":[{"internalType":"string","name":"bookingId","type":"string"},{"internalType":"string","name":"clientId","type":"string"},{"internalType":"string","name":"caregiverId","type":"string"},{"internalType":"uint256","name":"amountBs","type":"uint256"},{"internalType":"uint256","name":"startTime","type":"uint256"},{"internalType":"uint256","name":"endTime","type":"uint256"},{"internalType":"bool","name":"isActive","type":"bool"},{"internalType":"bool","name":"isCompleted","type":"bool"},{"internalType":"uint8","name":"rating","type":"uint8"},{"internalType":"string","name":"petName","type":"string"},{"internalType":"string","name":"serviceType","type":"string"}],"internalType":"struct GardenEscrow.Booking","name":"","type":"tuple"}],"stateMutability":"view","type":"function"},{"inputs":[],"name":"owner","outputs":[{"internalType":"address","name":"","type":"address"}],"stateMutability":"view","type":"function"},{"inputs":[],"name":"totalBookings","outputs":[{"internalType":"uint256","name":"","type":"uint256"}],"stateMutability":"view","type":"function"}],"evm":{"bytecode":{"linkReferences":{},"object":"60a08060405234610038573360805261138d908161003e823960805181818161013f01528181610beb01528181610e020152610e8c0152f35b600080fdfe6080604052600436101561001257600080fd5b60003560e01c8063502bf35e14610f93578063833a5a1414610e265780638da5cb5b14610dd5578063923d2d3314610b8f5780639624493f146109815780639668ce3e146109635763eebef5961461006957600080fd5b3461095e5761010036600319011261095e5760043567ffffffffffffffff811161095e5761009b903690600401611289565b9060243567ffffffffffffffff811161095e576100bc903690600401611289565b9060443567ffffffffffffffff811161095e576100dd903690600401611289565b909260c43567ffffffffffffffff811161095e576100ff903690600401611289565b94909360e43567ffffffffffffffff811161095e57610122903690600401611289565b91909261016673ffffffffffffffffffffffffffffffffffffffff7f00000000000000000000000000000000000000000000000000000000000000001633146112b7565b60046040518b8b823760008c8201526020818d810103019020015461091a5789956101b36101bf9361020a976101aa8d6040519b6101a38d6110db565b369161111a565b8a52369161111a565b6020880152369161111a565b60408501526064356060850152608435608085015260a43560a0850152600160c0850152600060e085015260006101008501526101fd36878761111a565b610120850152369161111a565b61014082015260405185858237602081878101600081520301902090805180519067ffffffffffffffff82116105d75781906102468554611184565b601f81116108ca575b50602090601f831160011461085e57600092610853575b50508160011b916000199060031b1c19161782555b602081015180519067ffffffffffffffff82116105d75781906102a16001860154611184565b601f8111610800575b50602090601f831160011461078e57600092610783575b50508160011b916000199060031b1c19161760018301555b604081015180519067ffffffffffffffff82116105d75781906102ff6002860154611184565b601f8111610730575b50602090601f83116001146106be576000926106b3575b50508160011b916000199060031b1c19161760028301555b606081015160038301556080810151600483015560a081015160058301556103a16006830160c08301511515815460ff61ff0060e0870151151560081b1692169061ffff19161717815560ff6101008401511662ff000082549160101b169062ff00001916179055565b61012081015180519067ffffffffffffffff82116105d7576103c66007850154611184565b601f811161066c575b50602090601f83116001146105f857610140939291600091836105ed575b50508160011b916000199060031b1c19161760078401555b015180519067ffffffffffffffff82116105d7576104266008840154611184565b601f811161058c575b50602090601f831160011461051e576008929160009183610513575b50508160011b916000199060031b1c1916179101555b6001549060001982146104fd5760017f57ce3030b25e873cc2900f490ac3d24d068e7c280f934f8a29d540155038472e9201600155604051858582378086810160008152039020926104bc6040519283926064359184611328565b0390a28160405192839283378101600081520390207f250cbee58b321813116d5b3523c84b813eaa55482958e914517b1ddfbbeea62a6020604051428152a2005b634e487b7160e01b600052601160045260246000fd5b01519050388061044b565b90601f198316916008850160005260206000209260005b8181106105745750916001939185600896941061055b575b505050811b01910155610461565b015160001960f88460031b161c1916905538808061054d565b92936020600181928786015181550195019301610535565b600884016000526020600020601f840160051c810191602085106105cd575b601f0160051c01905b8181106105c1575061042f565b600081556001016105b4565b90915081906105ab565b634e487b7160e01b600052604160045260246000fd5b0151905038806103ed565b906007850160005260206000209160005b601f198516811061065457509183916001936101409695601f1981161061063b575b505050811b016007840155610405565b015160001960f88460031b161c1916905538808061062b565b91926020600181928685015181550194019201610609565b600785016000526020600020601f840160051c8101602085106106ac575b601f830160051c820181106106a05750506103cf565b6000815560010161068a565b508061068a565b01519050388061031f565b9250600285016000526020600020906000935b601f1984168510610715576001945083601f198116106106fc575b505050811b016002830155610337565b015160001960f88460031b161c191690553880806106ec565b818101518355602094850194600190930192909101906106d1565b909150600285016000526020600020601f840160051c81016020851061077c575b90849392915b601f830160051c8201811061076d575050610308565b60008155859450600101610757565b5080610751565b0151905038806102c1565b9250600185016000526020600020906000935b601f19841685106107e5576001945083601f198116106107cc575b505050811b0160018301556102d9565b015160001960f88460031b161c191690553880806107bc565b818101518355602094850194600190930192909101906107a1565b909150600185016000526020600020601f840160051c81016020851061084c575b90849392915b601f830160051c8201811061083d5750506102aa565b60008155859450600101610827565b5080610821565b015190503880610266565b9250846000526020600020906000935b601f19841685106108af576001945083601f19811610610896575b505050811b01825561027b565b015160001960f88460031b161c19169055388080610889565b8181015183556020948501946001909301929091019061086e565b909150846000526020600020601f840160051c810160208510610913575b90849392915b601f830160051c8201811061090457505061024f565b600081558594506001016108ee565b50806108e8565b606460405162461bcd60e51b815260206004820152601d60248201527f4c61207265736572766120796120657869737465206f6e2d636861696e0000006044820152fd5b600080fd5b3461095e57600036600319011261095e576020600154604051908152f35b3461095e57602036600319011261095e5760043567ffffffffffffffff811161095e5760206109b7610b8b923690600401611289565b919060606101406040516109ca816110db565b828152828582015282604082015260008382015260006080820152600060a0820152600060c0820152600060e0820152600061010082015282610120820152015282604051938492833781016000815203019020610aba600860405192610a30846110db565b610a39816111be565b8452610a47600182016111be565b6020850152610a58600282016111be565b60408501526003810154606085015260048101546080850152600581015460a085015260ff6006820154818116151560c08701528181851c16151560e087015260101c16610100850152610aae600782016111be565b610120850152016111be565b61014082015260405191829160208352610140610b76610b1a610b04610aee855161016060208a0152610180890190611264565b6020860151888203601f190160408a0152611264565b6040850151878203601f19016060890152611264565b60608401516080870152608084015160a087015260a084015160c087015260c0840151151560e087015260e0840151151561010087015260ff61010085015116610120870152610120840151601f198783030184880152611264565b910151838203601f1901610160850152611264565b0390f35b3461095e57604036600319011261095e5760043567ffffffffffffffff811161095e57610bc0903690600401611289565b906024359060ff82169283830361095e57610c1273ffffffffffffffffffffffffffffffffffffffff7f00000000000000000000000000000000000000000000000000000000000000001633146112b7565b60066040518284823760208184810160008152030190200191825460ff811615610d6b5760ff8160081c16610d2757600186101580610d1c575b15610cb35762ffffff191660109490941b62ff00001693909317610100179091557f720fac15ad95e7e15d4b7d8e3f33218d270ea09a1dcbb4886720c63d1a509a6491604091908183519283928337810160008152039020928151908152426020820152a2005b608460405162461bcd60e51b8152602060048201526024808201527f4c612063616c696669636163696f6e20646562652073657220656e747265203160448201527f20792035000000000000000000000000000000000000000000000000000000006064820152fd5b506005861115610c4c565b606460405162461bcd60e51b815260206004820152601f60248201527f59612065737461206d61726361646120636f6d6f20636f6d706c6574616461006044820152fd5b608460405162461bcd60e51b815260206004820152602160248201527f52657365727661206e6f20616374697661206f2079612066696e616c697a616460448201527f61000000000000000000000000000000000000000000000000000000000000006064820152fd5b3461095e57600036600319011261095e57602060405173ffffffffffffffffffffffffffffffffffffffff7f0000000000000000000000000000000000000000000000000000000000000000168152f35b3461095e57604036600319011261095e5767ffffffffffffffff60043581811161095e57610e58903690600401611289565b9160243590811161095e57610e71903690600401611289565b92610eb373ffffffffffffffffffffffffffffffffffffffff7f00000000000000000000000000000000000000000000000000000000000000001633146112b7565b6006604051828582376020818481016000815203019020019283549360ff851615610f29577fc480801d2bb33eaf2ffbf8ad31a3555cb09eb6fecb6dd73536303055807fd2869460ff1916905581604051928392833781016000815203902092610f24604051928392429184611328565b0390a2005b608460405162461bcd60e51b815260206004820152603660248201527f4e6f2073652070756564652063616e63656c617220756e61207265736572766160448201527f20696e616374697661206f2066696e616c697a616461000000000000000000006064820152fd5b3461095e57602036600319011261095e5760043567ffffffffffffffff811161095e573660238201121561095e576020610fda610fed92369060248160040135910161111a565b8160405193828580945193849201611161565b81016000815203019020611071610b8b611006836111be565b6110cc611015600186016111be565b94611022600282016111be565b9060ff600382015492600483015460058401549061108d60068601549361107f61105a600861105360078b016111be565b99016111be565b9a6040519e8f9e8f92610160808552840190611264565b916020818403910152611264565b8c810360408e015290611264565b9560608b015260808a015260a0890152818116151560c0890152818160081c16151560e089015260101c16610100870152858203610120870152611264565b90838203610140850152611264565b610160810190811067ffffffffffffffff8211176105d757604052565b90601f8019910116810190811067ffffffffffffffff8211176105d757604052565b92919267ffffffffffffffff82116105d75760405191611144601f8201601f1916602001846110f8565b82948184528183011161095e578281602093846000960137010152565b60005b8381106111745750506000910152565b8181015183820152602001611164565b90600182811c921680156111b4575b602083101461119e57565b634e487b7160e01b600052602260045260246000fd5b91607f1691611193565b90604051918260008254926111d284611184565b90818452600194858116908160001461124157506001146111fe575b50506111fc925003836110f8565b565b9093915060005260209081600020936000915b8183106112295750506111fc935082010138806111ee565b85548884018501529485019487945091830191611211565b9150506111fc94506020925060ff191682840152151560051b82010138806111ee565b9060209161127d81518092818552858086019101611161565b601f01601f1916010190565b9181601f8401121561095e5782359167ffffffffffffffff831161095e576020838186019501011161095e57565b156112be57565b608460405162461bcd60e51b815260206004820152603960248201527f536f6c6f20656c2061646d696e6973747261646f722064652047415244454e2060448201527f7075656465206c6c616d617220657374612066756e63696f6e000000000000006064820152fd5b9392918060609160209360408852816040890152838801376000828288010152601f801991011685010193015256fea2646970667358221220b82a1a912744102383909fd753f57b17de05b039a2f475cea6d188ba3fdb88b164736f6c63430008140033","opcodes":"PUSH1 0xA0 DUP1 PUSH1 0x40 MSTORE CALLVALUE PUSH2 0x38 JUMPI CALLER PUSH1 0x80 MSTORE PUSH2 0x138D SWAP1 DUP2 PUSH2 0x3E DUP3 CODECOPY PUSH1 0x80 MLOAD DUP2 DUP2 DUP2 PUSH2 0x13F ADD MSTORE DUP2 DUP2 PUSH2 0xBEB ADD MSTORE DUP2 DUP2 PUSH2 0xE02 ADD MSTORE PUSH2 0xE8C ADD MSTORE RETURN JUMPDEST PUSH1 0x0 DUP1 REVERT INVALID PUSH1 0x80 PUSH1 0x40 MSTORE PUSH1 0x4 CALLDATASIZE LT ISZERO PUSH2 0x12 JUMPI PUSH1 0x0 DUP1 REVERT JUMPDEST PUSH1 0x0 CALLDATALOAD PUSH1 0xE0 SHR DUP1 PUSH4 0x502BF35E EQ PUSH2 0xF93 JUMPI DUP1 PUSH4 0x833A5A14 EQ PUSH2 0xE26 JUMPI DUP1 PUSH4 0x8DA5CB5B EQ PUSH2 0xDD5 JUMPI DUP1 PUSH4 0x923D2D33 EQ PUSH2 0xB8F JUMPI DUP1 PUSH4 0x9624493F EQ PUSH2 0x981 JUMPI DUP1 PUSH4 0x9668CE3E EQ PUSH2 0x963 JUMPI PUSH4 0xEEBEF596 EQ PUSH2 0x69 JUMPI PUSH1 0x0 DUP1 REVERT JUMPDEST CALLVALUE PUSH2 0x95E JUMPI PUSH2 0x100 CALLDATASIZE PUSH1 0x3 NOT ADD SLT PUSH2 0x95E JUMPI PUSH1 0x4 CALLDATALOAD PUSH8 0xFFFFFFFFFFFFFFFF DUP2 GT PUSH2 0x95E JUMPI PUSH2 0x9B SWAP1 CALLDATASIZE SWAP1 PUSH1 0x4 ADD PUSH2 0x1289 JUMP JUMPDEST SWAP1 PUSH1 0x24 CALLDATALOAD PUSH8 0xFFFFFFFFFFFFFFFF DUP2 GT PUSH2 0x95E JUMPI PUSH2 0xBC SWAP1 CALLDATASIZE SWAP1 PUSH1 0x4 ADD PUSH2 0x1289 JUMP JUMPDEST SWAP1 PUSH1 0x44 CALLDATALOAD PUSH8 0xFFFFFFFFFFFFFFFF DUP2 GT PUSH2 0x95E JUMPI PUSH2 0xDD SWAP1 CALLDATASIZE SWAP1 PUSH1 0x4 ADD PUSH2 0x1289 JUMP JUMPDEST SWAP1 SWAP3 PUSH1 0xC4 CALLDATALOAD PUSH8 0xFFFFFFFFFFFFFFFF DUP2 GT PUSH2 0x95E JUMPI PUSH2 0xFF SWAP1 CALLDATASIZE SWAP1 PUSH1 0x4 ADD PUSH2 0x1289 JUMP JUMPDEST SWAP5 SWAP1 SWAP4 PUSH1 0xE4 CALLDATALOAD PUSH8 0xFFFFFFFFFFFFFFFF DUP2 GT PUSH2 0x95E JUMPI PUSH2 0x122 SWAP1 CALLDATASIZE SWAP1 PUSH1 0x4 ADD PUSH2 0x1289 JUMP JUMPDEST SWAP2 SWAP1 SWAP3 PUSH2 0x166 PUSH20 0xFFFFFFFFFFFFFFFFFFFFFFFFFFFFFFFFFFFFFFFF PUSH32 0x0 AND CALLER EQ PUSH2 0x12B7 JUMP JUMPDEST PUSH1 0x4 PUSH1 0x40 MLOAD DUP12 DUP12 DUP3 CALLDATACOPY PUSH1 0x0 DUP13 DUP3 ADD MSTORE PUSH1 0x20 DUP2 DUP14 DUP2 ADD SUB ADD SWAP1 KECCAK256 ADD SLOAD PUSH2 0x91A JUMPI DUP10 SWAP6 PUSH2 0x1B3 PUSH2 0x1BF SWAP4 PUSH2 0x20A SWAP8 PUSH2 0x1AA DUP14 PUSH1 0x40 MLOAD SWAP12 PUSH2 0x1A3 DUP14 PUSH2 0x10DB JUMP JUMPDEST CALLDATASIZE SWAP2 PUSH2 0x111A JUMP JUMPDEST DUP11 MSTORE CALLDATASIZE SWAP2 PUSH2 0x111A JUMP JUMPDEST PUSH1 0x20 DUP9 ADD MSTORE CALLDATASIZE SWAP2 PUSH2 0x111A JUMP JUMPDEST PUSH1 0x40 DUP6 ADD MSTORE PUSH1 0x64 CALLDATALOAD PUSH1 0x60 DUP6 ADD MSTORE PUSH1 0x84 CALLDATALOAD PUSH1 0x80 DUP6 ADD MSTORE PUSH1 0xA4 CALLDATALOAD PUSH1 0xA0 DUP6 ADD MSTORE PUSH1 0x1 PUSH1 0xC0 DUP6 ADD MSTORE PUSH1 0x0 PUSH1 0xE0 DUP6 ADD MSTORE PUSH1 0x0 PUSH2 0x100 DUP6 ADD MSTORE PUSH2 0x1FD CALLDATASIZE DUP8 DUP8 PUSH2 0x111A JUMP JUMPDEST PUSH2 0x120 DUP6 ADD MSTORE CALLDATASIZE SWAP2 PUSH2 0x111A JUMP JUMPDEST PUSH2 0x140 DUP3 ADD MSTORE PUSH1 0x40 MLOAD DUP6 DUP6 DUP3 CALLDATACOPY PUSH1 0x20 DUP2 DUP8 DUP2 ADD PUSH1 0x0 DUP2 MSTORE SUB ADD SWAP1 KECCAK256 SWAP1 DUP1 MLOAD DUP1 MLOAD SWAP1 PUSH8 0xFFFFFFFFFFFFFFFF DUP3 GT PUSH2 0x5D7 JUMPI DUP2 SWAP1 PUSH2 0x246 DUP6 SLOAD PUSH2 0x1184 JUMP JUMPDEST PUSH1 0x1F DUP2 GT PUSH2 0x8CA JUMPI JUMPDEST POP PUSH1 0x20 SWAP1 PUSH1 0x1F DUP4 GT PUSH1 0x1 EQ PUSH2 0x85E JUMPI PUSH1 0x0 SWAP3 PUSH2 0x853 JUMPI JUMPDEST POP POP DUP2 PUSH1 0x1 SHL SWAP2 PUSH1 0x0 NOT SWAP1 PUSH1 0x3 SHL SHR NOT AND OR DUP3 SSTORE JUMPDEST PUSH1 0x20 DUP2 ADD MLOAD DUP1 MLOAD SWAP1 PUSH8 0xFFFFFFFFFFFFFFFF DUP3 GT PUSH2 0x5D7 JUMPI DUP2 SWAP1 PUSH2 0x2A1 PUSH1 0x1 DUP7 ADD SLOAD PUSH2 0x1184 JUMP JUMPDEST PUSH1 0x1F DUP2 GT PUSH2 0x800 JUMPI JUMPDEST POP PUSH1 0x20 SWAP1 PUSH1 0x1F DUP4 GT PUSH1 0x1 EQ PUSH2 0x78E JUMPI PUSH1 0x0 SWAP3 PUSH2 0x783 JUMPI JUMPDEST POP POP DUP2 PUSH1 0x1 SHL SWAP2 PUSH1 0x0 NOT SWAP1 PUSH1 0x3 SHL SHR NOT AND OR PUSH1 0x1 DUP4 ADD SSTORE JUMPDEST PUSH1 0x40 DUP2 ADD MLOAD DUP1 MLOAD SWAP1 PUSH8 0xFFFFFFFFFFFFFFFF DUP3 GT PUSH2 0x5D7 JUMPI DUP2 SWAP1 PUSH2 0x2FF PUSH1 0x2 DUP7 ADD SLOAD PUSH2 0x1184 JUMP JUMPDEST PUSH1 0x1F DUP2 GT PUSH2 0x730 JUMPI JUMPDEST POP PUSH1 0x20 SWAP1 PUSH1 0x1F DUP4 GT PUSH1 0x1 EQ PUSH2 0x6BE JUMPI PUSH1 0x0 SWAP3 PUSH2 0x6B3 JUMPI JUMPDEST POP POP DUP2 PUSH1 0x1 SHL SWAP2 PUSH1 0x0 NOT SWAP1 PUSH1 0x3 SHL SHR NOT AND OR PUSH1 0x2 DUP4 ADD SSTORE JUMPDEST PUSH1 0x60 DUP2 ADD MLOAD PUSH1 0x3 DUP4 ADD SSTORE PUSH1 0x80 DUP2 ADD MLOAD PUSH1 0x4 DUP4 ADD SSTORE PUSH1 0xA0 DUP2 ADD MLOAD PUSH1 0x5 DUP4 ADD SSTORE PUSH2 0x3A1 PUSH1 0x6 DUP4 ADD PUSH1 0xC0 DUP4 ADD MLOAD ISZERO ISZERO DUP2 SLOAD PUSH1 0xFF PUSH2 0xFF00 PUSH1 0xE0 DUP8 ADD MLOAD ISZERO ISZERO PUSH1 0x8 SHL AND SWAP3 AND SWAP1 PUSH2 0xFFFF NOT AND OR OR DUP2 SSTORE PUSH1 0xFF PUSH2 0x100 DUP5 ADD MLOAD AND PUSH3 0xFF0000 DUP3 SLOAD SWAP2 PUSH1 0x10 SHL AND SWAP1 PUSH3 0xFF0000 NOT AND OR SWAP1 SSTORE JUMP JUMPDEST PUSH2 0x120 DUP2 ADD MLOAD DUP1 MLOAD SWAP1 PUSH8 0xFFFFFFFFFFFFFFFF DUP3 GT PUSH2 0x5D7 JUMPI PUSH2 0x3C6 PUSH1 0x7 DUP6 ADD SLOAD PUSH2 0x1184 JUMP JUMPDEST PUSH1 0x1F DUP2 GT PUSH2 0x66C JUMPI JUMPDEST POP PUSH1 0x20 SWAP1 PUSH1 0x1F DUP4 GT PUSH1 0x1 EQ PUSH2 0x5F8 JUMPI PUSH2 0x140 SWAP4 SWAP3 SWAP2 PUSH1 0x0 SWAP2 DUP4 PUSH2 0x5ED JUMPI JUMPDEST POP POP DUP2 PUSH1 0x1 SHL SWAP2 PUSH1 0x0 NOT SWAP1 PUSH1 0x3 SHL SHR NOT AND OR PUSH1 0x7 DUP5 ADD SSTORE JUMPDEST ADD MLOAD DUP1 MLOAD SWAP1 PUSH8 0xFFFFFFFFFFFFFFFF DUP3 GT PUSH2 0x5D7 JUMPI PUSH2 0x426 PUSH1 0x8 DUP5 ADD SLOAD PUSH2 0x1184 JUMP JUMPDEST PUSH1 0x1F DUP2 GT PUSH2 0x58C JUMPI JUMPDEST POP PUSH1 0x20 SWAP1 PUSH1 0x1F DUP4 GT PUSH1 0x1 EQ PUSH2 0x51E JUMPI PUSH1 0x8 SWAP3 SWAP2 PUSH1 0x0 SWAP2 DUP4 PUSH2 0x513 JUMPI JUMPDEST POP POP DUP2 PUSH1 0x1 SHL SWAP2 PUSH1 0x0 NOT SWAP1 PUSH1 0x3 SHL SHR NOT AND OR SWAP2 ADD SSTORE JUMPDEST PUSH1 0x1 SLOAD SWAP1 PUSH1 0x0 NOT DUP3 EQ PUSH2 0x4FD JUMPI PUSH1 0x1 PUSH32 0x57CE3030B25E873CC2900F490AC3D24D068E7C280F934F8A29D540155038472E SWAP3 ADD PUSH1 0x1 SSTORE PUSH1 0x40 MLOAD DUP6 DUP6 DUP3 CALLDATACOPY DUP1 DUP7 DUP2 ADD PUSH1 0x0 DUP2 MSTORE SUB SWAP1 KECCAK256 SWAP3 PUSH2 0x4BC PUSH1 0x40 MLOAD SWAP3 DUP4 SWAP3 PUSH1 0x64 CALLDATALOAD SWAP2 DUP5 PUSH2 0x1328 JUMP JUMPDEST SUB SWAP1 LOG2 DUP2 PUSH1 0x40 MLOAD SWAP3 DUP4 SWAP3 DUP4 CALLDATACOPY DUP2 ADD PUSH1 0x0 DUP2 MSTORE SUB SWAP1 KECCAK256 PUSH32 0x250CBEE58B321813116D5B3523C84B813EAA55482958E914517B1DDFBBEEA62A PUSH1 0x20 PUSH1 0x40 MLOAD TIMESTAMP DUP2 MSTORE LOG2 STOP JUMPDEST PUSH4 0x4E487B71 PUSH1 0xE0 SHL PUSH1 0x0 MSTORE PUSH1 0x11 PUSH1 0x4 MSTORE PUSH1 0x24 PUSH1 0x0 REVERT JUMPDEST ADD MLOAD SWAP1 POP CODESIZE DUP1 PUSH2 0x44B JUMP JUMPDEST SWAP1 PUSH1 0x1F NOT DUP4 AND SWAP2 PUSH1 0x8 DUP6 ADD PUSH1 0x0 MSTORE PUSH1 0x20 PUSH1 0x0 KECCAK256 SWAP3 PUSH1 0x0 JUMPDEST DUP2 DUP2 LT PUSH2 0x574 JUMPI POP SWAP2 PUSH1 0x1 SWAP4 SWAP2 DUP6 PUSH1 0x8 SWAP7 SWAP5 LT PUSH2 0x55B JUMPI JUMPDEST POP POP POP DUP2 SHL ADD SWAP2 ADD SSTORE PUSH2 0x461 JUMP JUMPDEST ADD MLOAD PUSH1 0x0 NOT PUSH1 0xF8 DUP5 PUSH1 0x3 SHL AND SHR NOT AND SWAP1 SSTORE CODESIZE DUP1 DUP1 PUSH2 0x54D JUMP JUMPDEST SWAP3 SWAP4 PUSH1 0x20 PUSH1 0x1 DUP2 SWAP3 DUP8 DUP7 ADD MLOAD DUP2 SSTORE ADD SWAP6 ADD SWAP4 ADD PUSH2 0x535 JUMP JUMPDEST PUSH1 0x8 DUP5 ADD PUSH1 0x0 MSTORE PUSH1 0x20 PUSH1 0x0 KECCAK256 PUSH1 0x1F DUP5 ADD PUSH1 0x5 SHR DUP2 ADD SWAP2 PUSH1 0x20 DUP6 LT PUSH2 0x5CD JUMPI JUMPDEST PUSH1 0x1F ADD PUSH1 0x5 SHR ADD SWAP1 JUMPDEST DUP2 DUP2 LT PUSH2 0x5C1 JUMPI POP PUSH2 0x42F JUMP JUMPDEST PUSH1 0x0 DUP2 SSTORE PUSH1 0x1 ADD PUSH2 0x5B4 JUMP JUMPDEST SWAP1 SWAP2 POP DUP2 SWAP1 PUSH2 0x5AB JUMP JUMPDEST PUSH4 0x4E487B71 PUSH1 0xE0 SHL PUSH1 0x0 MSTORE PUSH1 0x41 PUSH1 0x4 MSTORE PUSH1 0x24 PUSH1 0x0 REVERT JUMPDEST ADD MLOAD SWAP1 POP CODESIZE DUP1 PUSH2 0x3ED JUMP JUMPDEST SWAP1 PUSH1 0x7 DUP6 ADD PUSH1 0x0 MSTORE PUSH1 0x20 PUSH1 0x0 KECCAK256 SWAP2 PUSH1 0x0 JUMPDEST PUSH1 0x1F NOT DUP6 AND DUP2 LT PUSH2 0x654 JUMPI POP SWAP2 DUP4 SWAP2 PUSH1 0x1 SWAP4 PUSH2 0x140 SWAP7 SWAP6 PUSH1 0x1F NOT DUP2 AND LT PUSH2 0x63B JUMPI JUMPDEST POP POP POP DUP2 SHL ADD PUSH1 0x7 DUP5 ADD SSTORE PUSH2 0x405 JUMP JUMPDEST ADD MLOAD PUSH1 0x0 NOT PUSH1 0xF8 DUP5 PUSH1 0x3 SHL AND SHR NOT AND SWAP1 SSTORE CODESIZE DUP1 DUP1 PUSH2 0x62B JUMP JUMPDEST SWAP2 SWAP3 PUSH1 0x20 PUSH1 0x1 DUP2 SWAP3 DUP7 DUP6 ADD MLOAD DUP2 SSTORE ADD SWAP5 ADD SWAP3 ADD PUSH2 0x609 JUMP JUMPDEST PUSH1 0x7 DUP6 ADD PUSH1 0x0 MSTORE PUSH1 0x20 PUSH1 0x0 KECCAK256 PUSH1 0x1F DUP5 ADD PUSH1 0x5 SHR DUP2 ADD PUSH1 0x20 DUP6 LT PUSH2 0x6AC JUMPI JUMPDEST PUSH1 0x1F DUP4 ADD PUSH1 0x5 SHR DUP3 ADD DUP2 LT PUSH2 0x6A0 JUMPI POP POP PUSH2 0x3CF JUMP JUMPDEST PUSH1 0x0 DUP2 SSTORE PUSH1 0x1 ADD PUSH2 0x68A JUMP JUMPDEST POP DUP1 PUSH2 0x68A JUMP JUMPDEST ADD MLOAD SWAP1 POP CODESIZE DUP1 PUSH2 0x31F JUMP JUMPDEST SWAP3 POP PUSH1 0x2 DUP6 ADD PUSH1 0x0 MSTORE PUSH1 0x20 PUSH1 0x0 KECCAK256 SWAP1 PUSH1 0x0 SWAP4 JUMPDEST PUSH1 0x1F NOT DUP5 AND DUP6 LT PUSH2 0x715 JUMPI PUSH1 0x1 SWAP5 POP DUP4 PUSH1 0x1F NOT DUP2 AND LT PUSH2 0x6FC JUMPI JUMPDEST POP POP POP DUP2 SHL ADD PUSH1 0x2 DUP4 ADD SSTORE PUSH2 0x337 JUMP JUMPDEST ADD MLOAD PUSH1 0x0 NOT PUSH1 0xF8 DUP5 PUSH1 0x3 SHL AND SHR NOT AND SWAP1 SSTORE CODESIZE DUP1 DUP1 PUSH2 0x6EC JUMP JUMPDEST DUP2 DUP2 ADD MLOAD DUP4 SSTORE PUSH1 0x20 SWAP5 DUP6 ADD SWAP5 PUSH1 0x1 SWAP1 SWAP4 ADD SWAP3 SWAP1 SWAP2 ADD SWAP1 PUSH2 0x6D1 JUMP JUMPDEST SWAP1 SWAP2 POP PUSH1 0x2 DUP6 ADD PUSH1 0x0 MSTORE PUSH1 0x20 PUSH1 0x0 KECCAK256 PUSH1 0x1F DUP5 ADD PUSH1 0x5 SHR DUP2 ADD PUSH1 0x20 DUP6 LT PUSH2 0x77C JUMPI JUMPDEST SWAP1 DUP5 SWAP4 SWAP3 SWAP2 JUMPDEST PUSH1 0x1F DUP4 ADD PUSH1 0x5 SHR DUP3 ADD DUP2 LT PUSH2 0x76D JUMPI POP POP PUSH2 0x308 JUMP JUMPDEST PUSH1 0x0 DUP2 SSTORE DUP6 SWAP5 POP PUSH1 0x1 ADD PUSH2 0x757 JUMP JUMPDEST POP DUP1 PUSH2 0x751 JUMP JUMPDEST ADD MLOAD SWAP1 POP CODESIZE DUP1 PUSH2 0x2C1 JUMP JUMPDEST SWAP3 POP PUSH1 0x1 DUP6 ADD PUSH1 0x0 MSTORE PUSH1 0x20 PUSH1 0x0 KECCAK256 SWAP1 PUSH1 0x0 SWAP4 JUMPDEST PUSH1 0x1F NOT DUP5 AND DUP6 LT PUSH2 0x7E5 JUMPI PUSH1 0x1 SWAP5 POP DUP4 PUSH1 0x1F NOT DUP2 AND LT PUSH2 0x7CC JUMPI JUMPDEST POP POP POP DUP2 SHL ADD PUSH1 0x1 DUP4 ADD SSTORE PUSH2 0x2D9 JUMP JUMPDEST ADD MLOAD PUSH1 0x0 NOT PUSH1 0xF8 DUP5 PUSH1 0x3 SHL AND SHR NOT AND SWAP1 SSTORE CODESIZE DUP1 DUP1 PUSH2 0x7BC JUMP JUMPDEST DUP2 DUP2 ADD MLOAD DUP4 SSTORE PUSH1 0x20 SWAP5 DUP6 ADD SWAP5 PUSH1 0x1 SWAP1 SWAP4 ADD SWAP3 SWAP1 SWAP2 ADD SWAP1 PUSH2 0x7A1 JUMP JUMPDEST SWAP1 SWAP2 POP PUSH1 0x1 DUP6 ADD PUSH1 0x0 MSTORE PUSH1 0x20 PUSH1 0x0 KECCAK256 PUSH1 0x1F DUP5 ADD PUSH1 0x5 SHR DUP2 ADD PUSH1 0x20 DUP6 LT PUSH2 0x84C JUMPI JUMPDEST SWAP1 DUP5 SWAP4 SWAP3 SWAP2 JUMPDEST PUSH1 0x1F DUP4 ADD PUSH1 0x5 SHR DUP3 ADD DUP2 LT PUSH2 0x83D JUMPI POP POP PUSH2 0x2AA JUMP JUMPDEST PUSH1 0x0 DUP2 SSTORE DUP6 SWAP5 POP PUSH1 0x1 ADD PUSH2 0x827 JUMP JUMPDEST POP DUP1 PUSH2 0x821 JUMP JUMPDEST ADD MLOAD SWAP1 POP CODESIZE DUP1 PUSH2 0x266 JUMP JUMPDEST SWAP3 POP DUP5 PUSH1 0x0 MSTORE PUSH1 0x20 PUSH1 0x0 KECCAK256 SWAP1 PUSH1 0x0 SWAP4 JUMPDEST PUSH1 0x1F NOT DUP5 AND DUP6 LT PUSH2 0x8AF JUMPI PUSH1 0x1 SWAP5 POP DUP4 PUSH1 0x1F NOT DUP2 AND LT PUSH2 0x896 JUMPI JUMPDEST POP POP POP DUP2 SHL ADD DUP3 SSTORE PUSH2 0x27B JUMP JUMPDEST ADD MLOAD PUSH1 0x0 NOT PUSH1 0xF8 DUP5 PUSH1 0x3 SHL AND SHR NOT AND SWAP1 SSTORE CODESIZE DUP1 DUP1 PUSH2 0x889 JUMP JUMPDEST DUP2 DUP2 ADD MLOAD DUP4 SSTORE PUSH1 0x20 SWAP5 DUP6 ADD SWAP5 PUSH1 0x1 SWAP1 SWAP4 ADD SWAP3 SWAP1 SWAP2 ADD SWAP1 PUSH2 0x86E JUMP JUMPDEST SWAP1 SWAP2 POP DUP5 PUSH1 0x0 MSTORE PUSH1 0x20 PUSH1 0x0 KECCAK256 PUSH1 0x1F DUP5 ADD PUSH1 0x5 SHR DUP2 ADD PUSH1 0x20 DUP6 LT PUSH2 0x913 JUMPI JUMPDEST SWAP1 DUP5 SWAP4 SWAP3 SWAP2 JUMPDEST PUSH1 0x1F DUP4 ADD PUSH1 0x5 SHR DUP3 ADD DUP2 LT PUSH2 0x904 JUMPI POP POP PUSH2 0x24F JUMP JUMPDEST PUSH1 0x0 DUP2 SSTORE DUP6 SWAP5 POP PUSH1 0x1 ADD PUSH2 0x8EE JUMP JUMPDEST POP DUP1 PUSH2 0x8E8 JUMP JUMPDEST PUSH1 0x64 PUSH1 0x40 MLOAD PUSH3 0x461BCD PUSH1 0xE5 SHL DUP2 MSTORE PUSH1 0x20 PUSH1 0x4 DUP3 ADD MSTORE PUSH1 0x1D PUSH1 0x24 DUP3 ADD MSTORE PUSH32 0x4C61207265736572766120796120657869737465206F6E2D636861696E000000 PUSH1 0x44 DUP3 ADD MSTORE REVERT JUMPDEST PUSH1 0x0 DUP1 REVERT JUMPDEST CALLVALUE PUSH2 0x95E JUMPI PUSH1 0x0 CALLDATASIZE PUSH1 0x3 NOT ADD SLT PUSH2 0x95E JUMPI PUSH1 0x20 PUSH1 0x1 SLOAD PUSH1 0x40 MLOAD SWAP1 DUP2 MSTORE RETURN JUMPDEST CALLVALUE PUSH2 0x95E JUMPI PUSH1 0x20 CALLDATASIZE PUSH1 0x3 NOT ADD SLT PUSH2 0x95E JUMPI PUSH1 0x4 CALLDATALOAD PUSH8 0xFFFFFFFFFFFFFFFF DUP2 GT PUSH2 0x95E JUMPI PUSH1 0x20 PUSH2 0x9B7 PUSH2 0xB8B SWAP3 CALLDATASIZE SWAP1 PUSH1 0x4 ADD PUSH2 0x1289 JUMP JUMPDEST SWAP2 SWAP1 PUSH1 0x60 PUSH2 0x140 PUSH1 0x40 MLOAD PUSH2 0x9CA DUP2 PUSH2 0x10DB JUMP JUMPDEST DUP3 DUP2 MSTORE DUP3 DUP6 DUP3 ADD MSTORE DUP3 PUSH1 0x40 DUP3 ADD MSTORE PUSH1 0x0 DUP4 DUP3 ADD MSTORE PUSH1 0x0 PUSH1 0x80 DUP3 ADD MSTORE PUSH1 0x0 PUSH1 0xA0 DUP3 ADD MSTORE PUSH1 0x0 PUSH1 0xC0 DUP3 ADD MSTORE PUSH1 0x0 PUSH1 0xE0 DUP3 ADD MSTORE PUSH1 0x0 PUSH2 0x100 DUP3 ADD MSTORE DUP3 PUSH2 0x120 DUP3 ADD MSTORE ADD MSTORE DUP3 PUSH1 0x40 MLOAD SWAP4 DUP5 SWAP3 DUP4 CALLDATACOPY DUP2 ADD PUSH1 0x0 DUP2 MSTORE SUB ADD SWAP1 KECCAK256 PUSH2 0xABA PUSH1 0x8 PUSH1 0x40 MLOAD SWAP3 PUSH2 0xA30 DUP5 PUSH2 0x10DB JUMP JUMPDEST PUSH2 0xA39 DUP2 PUSH2 0x11BE JUMP JUMPDEST DUP5 MSTORE PUSH2 0xA47 PUSH1 0x1 DUP3 ADD PUSH2 0x11BE JUMP JUMPDEST PUSH1 0x20 DUP6 ADD MSTORE PUSH2 0xA58 PUSH1 0x2 DUP3 ADD PUSH2 0x11BE JUMP JUMPDEST PUSH1 0x40 DUP6 ADD MSTORE PUSH1 0x3 DUP2 ADD SLOAD PUSH1 0x60 DUP6 ADD MSTORE PUSH1 0x4 DUP2 ADD SLOAD PUSH1 0x80 DUP6 ADD MSTORE PUSH1 0x5 DUP2 ADD SLOAD PUSH1 0xA0 DUP6 ADD MSTORE PUSH1 0xFF PUSH1 0x6 DUP3 ADD SLOAD DUP2 DUP2 AND ISZERO ISZERO PUSH1 0xC0 DUP8 ADD MSTORE DUP2 DUP2 DUP6 SHR AND ISZERO ISZERO PUSH1 0xE0 DUP8 ADD MSTORE PUSH1 0x10 SHR AND PUSH2 0x100 DUP6 ADD MSTORE PUSH2 0xAAE PUSH1 0x7 DUP3 ADD PUSH2 0x11BE JUMP JUMPDEST PUSH2 0x120 DUP6 ADD MSTORE ADD PUSH2 0x11BE JUMP JUMPDEST PUSH2 0x140 DUP3 ADD MSTORE PUSH1 0x40 MLOAD SWAP2 DUP3 SWAP2 PUSH1 0x20 DUP4 MSTORE PUSH2 0x140 PUSH2 0xB76 PUSH2 0xB1A PUSH2 0xB04 PUSH2 0xAEE DUP6 MLOAD PUSH2 0x160 PUSH1 0x20 DUP11 ADD MSTORE PUSH2 0x180 DUP10 ADD SWAP1 PUSH2 0x1264 JUMP JUMPDEST PUSH1 0x20 DUP7 ADD MLOAD DUP9 DUP3 SUB PUSH1 0x1F NOT ADD PUSH1 0x40 DUP11 ADD MSTORE PUSH2 0x1264 JUMP JUMPDEST PUSH1 0x40 DUP6 ADD MLOAD DUP8 DUP3 SUB PUSH1 0x1F NOT ADD PUSH1 0x60 DUP10 ADD MSTORE PUSH2 0x1264 JUMP JUMPDEST PUSH1 0x60 DUP5 ADD MLOAD PUSH1 0x80 DUP8 ADD MSTORE PUSH1 0x80 DUP5 ADD MLOAD PUSH1 0xA0 DUP8 ADD MSTORE PUSH1 0xA0 DUP5 ADD MLOAD PUSH1 0xC0 DUP8 ADD MSTORE PUSH1 0xC0 DUP5 ADD MLOAD ISZERO ISZERO PUSH1 0xE0 DUP8 ADD MSTORE PUSH1 0xE0 DUP5 ADD MLOAD ISZERO ISZERO PUSH2 0x100 DUP8 ADD MSTORE PUSH1 0xFF PUSH2 0x100 DUP6 ADD MLOAD AND PUSH2 0x120 DUP8 ADD MSTORE PUSH2 0x120 DUP5 ADD MLOAD PUSH1 0x1F NOT DUP8 DUP4 SUB ADD DUP5 DUP9 ADD MSTORE PUSH2 0x1264 JUMP JUMPDEST SWAP2 ADD MLOAD DUP4 DUP3 SUB PUSH1 0x1F NOT ADD PUSH2 0x160 DUP6 ADD MSTORE PUSH2 0x1264 JUMP JUMPDEST SUB SWAP1 RETURN JUMPDEST CALLVALUE PUSH2 0x95E JUMPI PUSH1 0x40 CALLDATASIZE PUSH1 0x3 NOT ADD SLT PUSH2 0x95E JUMPI PUSH1 0x4 CALLDATALOAD PUSH8 0xFFFFFFFFFFFFFFFF DUP2 GT PUSH2 0x95E JUMPI PUSH2 0xBC0 SWAP1 CALLDATASIZE SWAP1 PUSH1 0x4 ADD PUSH2 0x1289 JUMP JUMPDEST SWAP1 PUSH1 0x24 CALLDATALOAD SWAP1 PUSH1 0xFF DUP3 AND SWAP3 DUP4 DUP4 SUB PUSH2 0x95E JUMPI PUSH2 0xC12 PUSH20 0xFFFFFFFFFFFFFFFFFFFFFFFFFFFFFFFFFFFFFFFF PUSH32 0x0 AND CALLER EQ PUSH2 0x12B7 JUMP JUMPDEST PUSH1 0x6 PUSH1 0x40 MLOAD DUP3 DUP5 DUP3 CALLDATACOPY PUSH1 0x20 DUP2 DUP5 DUP2 ADD PUSH1 0x0 DUP2 MSTORE SUB ADD SWAP1 KECCAK256 ADD SWAP2 DUP3 SLOAD PUSH1 0xFF DUP2 AND ISZERO PUSH2 0xD6B JUMPI PUSH1 0xFF DUP2 PUSH1 0x8 SHR AND PUSH2 0xD27 JUMPI PUSH1 0x1 DUP7 LT ISZERO DUP1 PUSH2 0xD1C JUMPI JUMPDEST ISZERO PUSH2 0xCB3 JUMPI PUSH3 0xFFFFFF NOT AND PUSH1 0x10 SWAP5 SWAP1 SWAP5 SHL PUSH3 0xFF0000 AND SWAP4 SWAP1 SWAP4 OR PUSH2 0x100 OR SWAP1 SWAP2 SSTORE PUSH32 0x720FAC15AD95E7E15D4B7D8E3F33218D270EA09A1DCBB4886720C63D1A509A64 SWAP2 PUSH1 0x40 SWAP2 SWAP1 DUP2 DUP4 MLOAD SWAP3 DUP4 SWAP3 DUP4 CALLDATACOPY DUP2 ADD PUSH1 0x0 DUP2 MSTORE SUB SWAP1 KECCAK256 SWAP3 DUP2 MLOAD SWAP1 DUP2 MSTORE TIMESTAMP PUSH1 0x20 DUP3 ADD MSTORE LOG2 STOP JUMPDEST PUSH1 0x84 PUSH1 0x40 MLOAD PUSH3 0x461BCD PUSH1 0xE5 SHL DUP2 MSTORE PUSH1 0x20 PUSH1 0x4 DUP3 ADD MSTORE PUSH1 0x24 DUP1 DUP3 ADD MSTORE PUSH32 0x4C612063616C696669636163696F6E20646562652073657220656E7472652031 PUSH1 0x44 DUP3 ADD MSTORE PUSH32 0x2079203500000000000000000000000000000000000000000000000000000000 PUSH1 0x64 DUP3 ADD MSTORE REVERT JUMPDEST POP PUSH1 0x5 DUP7 GT ISZERO PUSH2 0xC4C JUMP JUMPDEST PUSH1 0x64 PUSH1 0x40 MLOAD PUSH3 0x461BCD PUSH1 0xE5 SHL DUP2 MSTORE PUSH1 0x20 PUSH1 0x4 DUP3 ADD MSTORE PUSH1 0x1F PUSH1 0x24 DUP3 ADD MSTORE PUSH32 0x59612065737461206D61726361646120636F6D6F20636F6D706C657461646100 PUSH1 0x44 DUP3 ADD MSTORE REVERT JUMPDEST PUSH1 0x84 PUSH1 0x40 MLOAD PUSH3 0x461BCD PUSH1 0xE5 SHL DUP2 MSTORE PUSH1 0x20 PUSH1 0x4 DUP3 ADD MSTORE PUSH1 0x21 PUSH1 0x24 DUP3 ADD MSTORE PUSH32 0x52657365727661206E6F20616374697661206F2079612066696E616C697A6164 PUSH1 0x44 DUP3 ADD MSTORE PUSH32 0x6100000000000000000000000000000000000000000000000000000000000000 PUSH1 0x64 DUP3 ADD MSTORE REVERT JUMPDEST CALLVALUE PUSH2 0x95E JUMPI PUSH1 0x0 CALLDATASIZE PUSH1 0x3 NOT ADD SLT PUSH2 0x95E JUMPI PUSH1 0x20 PUSH1 0x40 MLOAD PUSH20 0xFFFFFFFFFFFFFFFFFFFFFFFFFFFFFFFFFFFFFFFF PUSH32 0x0 AND DUP2 MSTORE RETURN JUMPDEST CALLVALUE PUSH2 0x95E JUMPI PUSH1 0x40 CALLDATASIZE PUSH1 0x3 NOT ADD SLT PUSH2 0x95E JUMPI PUSH8 0xFFFFFFFFFFFFFFFF PUSH1 0x4 CALLDATALOAD DUP2 DUP2 GT PUSH2 0x95E JUMPI PUSH2 0xE58 SWAP1 CALLDATASIZE SWAP1 PUSH1 0x4 ADD PUSH2 0x1289 JUMP JUMPDEST SWAP2 PUSH1 0x24 CALLDATALOAD SWAP1 DUP2 GT PUSH2 0x95E JUMPI PUSH2 0xE71 SWAP1 CALLDATASIZE SWAP1 PUSH1 0x4 ADD PUSH2 0x1289 JUMP JUMPDEST SWAP3 PUSH2 0xEB3 PUSH20 0xFFFFFFFFFFFFFFFFFFFFFFFFFFFFFFFFFFFFFFFF PUSH32 0x0 AND CALLER EQ PUSH2 0x12B7 JUMP JUMPDEST PUSH1 0x6 PUSH1 0x40 MLOAD DUP3 DUP6 DUP3 CALLDATACOPY PUSH1 0x20 DUP2 DUP5 DUP2 ADD PUSH1 0x0 DUP2 MSTORE SUB ADD SWAP1 KECCAK256 ADD SWAP3 DUP4 SLOAD SWAP4 PUSH1 0xFF DUP6 AND ISZERO PUSH2 0xF29 JUMPI PUSH32 0xC480801D2BB33EAF2FFBF8AD31A3555CB09EB6FECB6DD73536303055807FD286 SWAP5 PUSH1 0xFF NOT AND SWAP1 SSTORE DUP2 PUSH1 0x40 MLOAD SWAP3 DUP4 SWAP3 DUP4 CALLDATACOPY DUP2 ADD PUSH1 0x0 DUP2 MSTORE SUB SWAP1 KECCAK256 SWAP3 PUSH2 0xF24 PUSH1 0x40 MLOAD SWAP3 DUP4 SWAP3 TIMESTAMP SWAP2 DUP5 PUSH2 0x1328 JUMP JUMPDEST SUB SWAP1 LOG2 STOP JUMPDEST PUSH1 0x84 PUSH1 0x40 MLOAD PUSH3 0x461BCD PUSH1 0xE5 SHL DUP2 MSTORE PUSH1 0x20 PUSH1 0x4 DUP3 ADD MSTORE PUSH1 0x36 PUSH1 0x24 DUP3 ADD MSTORE PUSH32 0x4E6F2073652070756564652063616E63656C617220756E612072657365727661 PUSH1 0x44 DUP3 ADD MSTORE PUSH32 0x20696E616374697661206F2066696E616C697A61646100000000000000000000 PUSH1 0x64 DUP3 ADD MSTORE REVERT JUMPDEST CALLVALUE PUSH2 0x95E JUMPI PUSH1 0x20 CALLDATASIZE PUSH1 0x3 NOT ADD SLT PUSH2 0x95E JUMPI PUSH1 0x4 CALLDATALOAD PUSH8 0xFFFFFFFFFFFFFFFF DUP2 GT PUSH2 0x95E JUMPI CALLDATASIZE PUSH1 0x23 DUP3 ADD SLT ISZERO PUSH2 0x95E JUMPI PUSH1 0x20 PUSH2 0xFDA PUSH2 0xFED SWAP3 CALLDATASIZE SWAP1 PUSH1 0x24 DUP2 PUSH1 0x4 ADD CALLDATALOAD SWAP2 ADD PUSH2 0x111A JUMP JUMPDEST DUP2 PUSH1 0x40 MLOAD SWAP4 DUP3 DUP6 DUP1 SWAP5 MLOAD SWAP4 DUP5 SWAP3 ADD PUSH2 0x1161 JUMP JUMPDEST DUP2 ADD PUSH1 0x0 DUP2 MSTORE SUB ADD SWAP1 KECCAK256 PUSH2 0x1071 PUSH2 0xB8B PUSH2 0x1006 DUP4 PUSH2 0x11BE JUMP JUMPDEST PUSH2 0x10CC PUSH2 0x1015 PUSH1 0x1 DUP7 ADD PUSH2 0x11BE JUMP JUMPDEST SWAP5 PUSH2 0x1022 PUSH1 0x2 DUP3 ADD PUSH2 0x11BE JUMP JUMPDEST SWAP1 PUSH1 0xFF PUSH1 0x3 DUP3 ADD SLOAD SWAP3 PUSH1 0x4 DUP4 ADD SLOAD PUSH1 0x5 DUP5 ADD SLOAD SWAP1 PUSH2 0x108D PUSH1 0x6 DUP7 ADD SLOAD SWAP4 PUSH2 0x107F PUSH2 0x105A PUSH1 0x8 PUSH2 0x1053 PUSH1 0x7 DUP12 ADD PUSH2 0x11BE JUMP JUMPDEST SWAP10 ADD PUSH2 0x11BE JUMP JUMPDEST SWAP11 PUSH1 0x40 MLOAD SWAP15 DUP16 SWAP15 DUP16 SWAP3 PUSH2 0x160 DUP1 DUP6 MSTORE DUP5 ADD SWAP1 PUSH2 0x1264 JUMP JUMPDEST SWAP2 PUSH1 0x20 DUP2 DUP5 SUB SWAP2 ADD MSTORE PUSH2 0x1264 JUMP JUMPDEST DUP13 DUP2 SUB PUSH1 0x40 DUP15 ADD MSTORE SWAP1 PUSH2 0x1264 JUMP JUMPDEST SWAP6 PUSH1 0x60 DUP12 ADD MSTORE PUSH1 0x80 DUP11 ADD MSTORE PUSH1 0xA0 DUP10 ADD MSTORE DUP2 DUP2 AND ISZERO ISZERO PUSH1 0xC0 DUP10 ADD MSTORE DUP2 DUP2 PUSH1 0x8 SHR AND ISZERO ISZERO PUSH1 0xE0 DUP10 ADD MSTORE PUSH1 0x10 SHR AND PUSH2 0x100 DUP8 ADD MSTORE DUP6 DUP3 SUB PUSH2 0x120 DUP8 ADD MSTORE PUSH2 0x1264 JUMP JUMPDEST SWAP1 DUP4 DUP3 SUB PUSH2 0x140 DUP6 ADD MSTORE PUSH2 0x1264 JUMP JUMPDEST PUSH2 0x160 DUP2 ADD SWAP1 DUP2 LT PUSH8 0xFFFFFFFFFFFFFFFF DUP3 GT OR PUSH2 0x5D7 JUMPI PUSH1 0x40 MSTORE JUMP JUMPDEST SWAP1 PUSH1 0x1F DUP1 NOT SWAP2 ADD AND DUP2 ADD SWAP1 DUP2 LT PUSH8 0xFFFFFFFFFFFFFFFF DUP3 GT OR PUSH2 0x5D7 JUMPI PUSH1 0x40 MSTORE JUMP JUMPDEST SWAP3 SWAP2 SWAP3 PUSH8 0xFFFFFFFFFFFFFFFF DUP3 GT PUSH2 0x5D7 JUMPI PUSH1 0x40 MLOAD SWAP2 PUSH2 0x1144 PUSH1 0x1F DUP3 ADD PUSH1 0x1F NOT AND PUSH1 0x20 ADD DUP5 PUSH2 0x10F8 JUMP JUMPDEST DUP3 SWAP5 DUP2 DUP5 MSTORE DUP2 DUP4 ADD GT PUSH2 0x95E JUMPI DUP3 DUP2 PUSH1 0x20 SWAP4 DUP5 PUSH1 0x0 SWAP7 ADD CALLDATACOPY ADD ADD MSTORE JUMP JUMPDEST PUSH1 0x0 JUMPDEST DUP4 DUP2 LT PUSH2 0x1174 JUMPI POP POP PUSH1 0x0 SWAP2 ADD MSTORE JUMP JUMPDEST DUP2 DUP2 ADD MLOAD DUP4 DUP3 ADD MSTORE PUSH1 0x20 ADD PUSH2 0x1164 JUMP JUMPDEST SWAP1 PUSH1 0x1 DUP3 DUP2 SHR SWAP3 AND DUP1 ISZERO PUSH2 0x11B4 JUMPI JUMPDEST PUSH1 0x20 DUP4 LT EQ PUSH2 0x119E JUMPI JUMP JUMPDEST PUSH4 0x4E487B71 PUSH1 0xE0 SHL PUSH1 0x0 MSTORE PUSH1 0x22 PUSH1 0x4 MSTORE PUSH1 0x24 PUSH1 0x0 REVERT JUMPDEST SWAP2 PUSH1 0x7F AND SWAP2 PUSH2 0x1193 JUMP JUMPDEST SWAP1 PUSH1 0x40 MLOAD SWAP2 DUP3 PUSH1 0x0 DUP3 SLOAD SWAP3 PUSH2 0x11D2 DUP5 PUSH2 0x1184 JUMP JUMPDEST SWAP1 DUP2 DUP5 MSTORE PUSH1 0x1 SWAP5 DUP6 DUP2 AND SWAP1 DUP2 PUSH1 0x0 EQ PUSH2 0x1241 JUMPI POP PUSH1 0x1 EQ PUSH2 0x11FE JUMPI JUMPDEST POP POP PUSH2 0x11FC SWAP3 POP SUB DUP4 PUSH2 0x10F8 JUMP JUMPDEST JUMP JUMPDEST SWAP1 SWAP4 SWAP2 POP PUSH1 0x0 MSTORE PUSH1 0x20 SWAP1 DUP2 PUSH1 0x0 KECCAK256 SWAP4 PUSH1 0x0 SWAP2 JUMPDEST DUP2 DUP4 LT PUSH2 0x1229 JUMPI POP POP PUSH2 0x11FC SWAP4 POP DUP3 ADD ADD CODESIZE DUP1 PUSH2 0x11EE JUMP JUMPDEST DUP6 SLOAD DUP9 DUP5 ADD DUP6 ADD MSTORE SWAP5 DUP6 ADD SWAP5 DUP8 SWAP5 POP SWAP2 DUP4 ADD SWAP2 PUSH2 0x1211 JUMP JUMPDEST SWAP2 POP POP PUSH2 0x11FC SWAP5 POP PUSH1 0x20 SWAP3 POP PUSH1 0xFF NOT AND DUP3 DUP5 ADD MSTORE ISZERO ISZERO PUSH1 0x5 SHL DUP3 ADD ADD CODESIZE DUP1 PUSH2 0x11EE JUMP JUMPDEST SWAP1 PUSH1 0x20 SWAP2 PUSH2 0x127D DUP2 MLOAD DUP1 SWAP3 DUP2 DUP6 MSTORE DUP6 DUP1 DUP7 ADD SWAP2 ADD PUSH2 0x1161 JUMP JUMPDEST PUSH1 0x1F ADD PUSH1 0x1F NOT AND ADD ADD SWAP1 JUMP JUMPDEST SWAP2 DUP2 PUSH1 0x1F DUP5 ADD SLT ISZERO PUSH2 0x95E JUMPI DUP3 CALLDATALOAD SWAP2 PUSH8 0xFFFFFFFFFFFFFFFF DUP4 GT PUSH2 0x95E JUMPI PUSH1 0x20 DUP4 DUP2 DUP7 ADD SWAP6 ADD ADD GT PUSH2 0x95E JUMPI JUMP JUMPDEST ISZERO PUSH2 0x12BE JUMPI JUMP JUMPDEST PUSH1 0x84 PUSH1 0x40 MLOAD PUSH3 0x461BCD PUSH1 0xE5 SHL DUP2 MSTORE PUSH1 0x20 PUSH1 0x4 DUP3 ADD MSTORE PUSH1 0x39 PUSH1 0x24 DUP3 ADD MSTORE PUSH32 0x536F6C6F20656C2061646D696E6973747261646F722064652047415244454E20 PUSH1 0x44 DUP3 ADD MSTORE PUSH32 0x7075656465206C6C616D617220657374612066756E63696F6E00000000000000 PUSH1 0x64 DUP3 ADD MSTORE REVERT JUMPDEST SWAP4 SWAP3 SWAP2 DUP1 PUSH1 0x60 SWAP2 PUSH1 0x20 SWAP4 PUSH1 0x40 DUP9 MSTORE DUP2 PUSH1 0x40 DUP10 ADD MSTORE DUP4 DUP9 ADD CALLDATACOPY PUSH1 0x0 DUP3 DUP3 DUP9 ADD ADD MSTORE PUSH1 0x1F DUP1 NOT SWAP2 ADD AND DUP6 ADD ADD SWAP4 ADD MSTORE JUMP INVALID LOG2 PUSH5 0x6970667358 0x22 SLT KECCAK256 0xB8 0x2A BYTE SWAP2 0x27 PREVRANDAO LT 0x23 DUP4 SWAP1 SWAP16 0xD7 MSTORE8 CREATE2 PUSH28 0x17DE05B039A2F475CEA6D188BA3FDB88B164736F6C63430008140033 "},"methodIdentifiers":{"bookings(string)":"502bf35e","cancelBooking(string,string)":"833a5a14","createBooking(string,string,string,uint256,uint256,uint256,string,string)":"eebef596","finalizeBooking(string,uint8)":"923d2d33","getBooking(string)":"9624493f","owner()":"8da5cb5b","totalBookings()":"9668ce3e"}}}}}