{"contracts/GardenProfiles.sol":{"GardenProfiles":{"abi":[{"inputs":[],"stateMutability":"nonpayable","type":"constructor"},{"anonymous":false,"inputs":[{"indexed":true,"internalType":"string","name":"ownerId","type":"string"},{"indexed":false,"internalType":"string","name":"petName","type":"string"}],"name":"PetOnChainAdded","type":"event"},{"anonymous":false,"inputs":[{"indexed":true,"internalType":"string","name":"userId","type":"string"},{"indexed":false,"internalType":"string","name":"name","type":"string"},{"indexed":false,"internalType":"enum GardenProfiles.UserRole","name":"role","type":"uint8"},{"indexed":false,"internalType":"bool","name":"isVerified","type":"bool"}],"name":"ProfileSynced","type":"event"},{"anonymous":false,"inputs":[{"indexed":true,"internalType":"string","name":"userId","type":"string"},{"indexed":false,"internalType":"bool","name":"isVerified","type":"bool"}],"name":"VerificationStatusUpdated","type":"event"},{"inputs":[{"internalType":"string","name":"_ownerId","type":"string"},{"internalType":"string","name":"_petName","type":"string"},{"internalType":"string","name":"_breed","type":"string"}],"name":"addPetToOwner","outputs":[],"stateMutability":"nonpayable","type":"function"},{"inputs":[{"internalType":"string","name":"_ownerId","type":"string"}],"name":"getOwnerPetsCount","outputs":[{"internalType":"uint256","name":"","type":"uint256"}],"stateMutability":"view","type":"function"},{"inputs":[{"internalType":"string","name":"_userId","type":"string"}],"name":"isUserVerified","outputs":[{"internalType":"bool","name":"","type":"bool"}],"stateMutability":"view","type":"function"},{"inputs":[],"name":"owner","outputs":[{"internalType":"address","name":"","type":"address"}],"stateMutability":"view","type":"function"},{"inputs":[{"internalType":"string","name":"","type":"string"},{"internalType":"uint256","name":"","type":"uint256"}],"name":"ownerPets","outputs":[{"internalType":"string","name":"petName","type":"string"},{"internalType":"string","name":"breed","type":"string"},{"internalType":"uint256","name":"lastUpdate","type":"uint256"}],"stateMutability":"view","type":"function"},{"inputs":[{"internalType":"string","name":"","type":"string"}],"name":"profiles","outputs":[{"internalType":"string","name":"userId","type":"string"},{"internalType":"string","name":"name","type":"string"},{"internalType":"enum GardenProfiles.UserRole","name":"role","type":"uint8"},{"internalType":"bool","name":"isVerified","type":"bool"},{"internalType":"uint256","name":"joinedAt","type":"uint256"},{"internalType":"string","name":"metadataHash","type":"string"},{"internalType":"bool","name":"exists","type":"bool"}],"stateMutability":"view","type":"function"},{"inputs":[{"internalType":"string","name":"_userId","type":"string"},{"internalType":"string","name":"_name","type":"string"},{"internalType":"uint8","name":"_role","type":"uint8"},{"internalType":"bool","name":"_isVerified","type":"bool"},{"internalType":"string","name":"_metadataHash","type":"string"}],"name":"syncProfile","outputs":[],"stateMutability":"nonpayable","type":"function"},{"inputs":[{"internalType":"string","name":"_userId","type":"string"},{"internalType":"bool","name":"_status","type":"bool"}],"name":"updateVerificationStatus","outputs":[],"stateMutability":"nonpayable","type":"function"}],"evm":{"bytecode":{"linkReferences":{},"object":"60a080604052346100385733608052611238908161003e8239608051818181610106015281816106bd01528181610d070152610d850152f35b600080fdfe608080604052600436101561001357600080fd5b60003560e01c9081631c77a10a14610f07575080638219f94e14610eaa5780638a4ac29f14610d2b5780638da5cb5b14610cda5780639c6719ff14610c21578063c77663db14610616578063cba521e2146105275763d10be60b1461007757600080fd5b346105225760603660031901126105225760043567ffffffffffffffff8111610522576100a8903690600401610f54565b60243567ffffffffffffffff8111610522576100c8903690600401610f54565b9160443567ffffffffffffffff8111610522576100e9903690600401610f54565b61012d73ffffffffffffffffffffffffffffffffffffffff9692967f0000000000000000000000000000000000000000000000000000000000000000163314611170565b60ff6005604051858582376020818781016000815203019020015416156104b8576040518383823760208185810160018152030190209060405196606088019188831067ffffffffffffffff8411176103c55761019b92604052610192368989610fa4565b89523691610fa4565b60208701524260408701528054680100000000000000008110156103c5576101c89160018201815561102c565b6104a257855180519067ffffffffffffffff82116103c55781906101ec845461105e565b601f8111610452575b50602090601f83116001146103e6576000926103db575b50508160011b916000199060031b1c19161781555b602086015195865167ffffffffffffffff81116103c557610245600184015461105e565b601f811161037a575b506020601f82116001146102e65791816040926002947f5fa6d0b3edbb646f8f7dcc1974f8642d9291e5b42087d88405c7c26ecb0f5ab49a9b6000926102db575b50508160011b916000199060031b1c19161760018501555b0151910155816040519283928337810160008152039020926102d66040519283926020845260208401916111e1565b0390a2005b01519050388061028f565b601f198216986001850160005260206000209960005b8181106103625750927f5fa6d0b3edbb646f8f7dcc1974f8642d9291e5b42087d88405c7c26ecb0f5ab4999a600295936001938360409710610349575b505050811b0160018501556102a7565b015160001960f88460031b161c19169055388080610339565b838301518c556001909b019a602093840193016102fc565b600184016000526020600020601f830160051c810191602084106103bb575b601f0160051c01905b8181106103af575061024e565b600081556001016103a2565b9091508190610399565b634e487b7160e01b600052604160045260246000fd5b01519050388061020c565b9250836000526020600020906000935b601f1984168510610437576001945083601f1981161061041e575b505050811b018155610221565b015160001960f88460031b161c19169055388080610411565b818101518355602094850194600190930192909101906103f6565b909150836000526020600020601f840160051c81016020851061049b575b90849392915b601f830160051c8201811061048c5750506101f5565b60008155859450600101610476565b5080610470565b634e487b7160e01b600052600060045260246000fd5b608460405162461bcd60e51b815260206004820152602760248201527f456c206475656e6f20646562652074656e65722070657266696c2073696e637260448201527f6f6e697a61646f000000000000000000000000000000000000000000000000006064820152fd5b600080fd5b346105225760203660031901126105225760043567ffffffffffffffff81116105225761057360206105606105cf933690600401610feb565b8160405193828580945193849201611009565b8101600081520301902061058681611098565b9061060a61059660018301611098565b91600281015490600381015460ff6105dd8160056105b660048701611098565b9501541696604051998a9960e08b5260e08b019061113e565b9089820360208b015261113e565b936105ed60408901838316611163565b60081c1615156060870152608086015284820360a086015261113e565b90151560c08301520390f35b346105225760a03660031901126105225760043567ffffffffffffffff811161052257610647903690600401610f54565b60243567ffffffffffffffff811161052257610667903690600401610f54565b60443560ff81168103610522576064359384151585036105225760843567ffffffffffffffff8111610522576106a1903690600401610f54565b96906106e473ffffffffffffffffffffffffffffffffffffffff7f0000000000000000000000000000000000000000000000000000000000000000163314611170565b600360ff85161015610a6d5760ff6005604051858582376000818701908152819003602001902001541615610c1a5760036040518484823760208186810160008152030190200154905b604051988960e081011067ffffffffffffffff60e08c0111176103c5576107909260e08b01604052610761368787610fa4565b8b5261076e36898b610fa4565b60208c015260ff871660408c015289151560608c015260808b01523691610fa4565b60a0880152600160c088015260405182828237602081848101600081520301902096805180519067ffffffffffffffff82116103c55781906107d28b5461105e565b601f8111610bca575b50602090601f8311600114610b5e57600092610b53575b50508160011b916000199060031b1c19161788555b602081015180519067ffffffffffffffff82116103c557819061082d60018c015461105e565b601f8111610b00575b50602090601f8311600114610a8e57600092610a83575b50508160011b916000199060031b1c19161760018901555b6040810151600289016003821015610a6d578054606084015161ff0090151560081b1660ff9390931661ffff19909116179190911790556080810151600389015560a081015197885167ffffffffffffffff81116103c5576108ca600483015461105e565b601f8111610a26575b506020601f821160011461099057918160059260c0947f608038de77c026eefba156300c9558e27c9b4c5b3eac9e3fe6ce4a54a0a6a0999c9d600092610985575b50508160011b916000199060031b1c19161760048201555b01910151151560ff801983541691161790558160405192839283378101600081520390209461097961096b6040519586956060875260608701916111e1565b9260ff602086019116611163565b151560408301520390a2005b015190508d80610914565b6004830160005260206000209a60005b601f1984168110610a0e5750827f608038de77c026eefba156300c9558e27c9b4c5b3eac9e3fe6ce4a54a0a6a0999b9c60c09593600193600596601f198116106109f5575b505050811b01600482015561092c565b015160001960f88460031b161c191690558d80806109e5565b828201518d556001909c019b602092830192016109a0565b600483016000526020600020601f830160051c810160208410610a66575b601f830160051c82018110610a5a5750506108d3565b60008155600101610a44565b5080610a44565b634e487b7160e01b600052602160045260246000fd5b015190508a8061084d565b925060018b016000526020600020906000935b601f1984168510610ae5576001945083601f19811610610acc575b505050811b016001890155610865565b015160001960f88460031b161c191690558a8080610abc565b81810151835560209485019460019093019290910190610aa1565b90915060018b016000526020600020601f840160051c810160208510610b4c575b90849392915b601f830160051c82018110610b3d575050610836565b60008155859450600101610b27565b5080610b21565b015190508a806107f2565b92508a6000526020600020906000935b601f1984168510610baf576001945083601f19811610610b96575b505050811b018855610807565b015160001960f88460031b161c191690558a8080610b89565b81810151835560209485019460019093019290910190610b6e565b9091508a6000526020600020601f840160051c810160208510610c13575b90849392915b601f830160051c82018110610c045750506107db565b60008155859450600101610bee565b5080610be8565b429061072e565b346105225760403660031901126105225760043567ffffffffffffffff811161052257610c52903690600401610feb565b610c6e6020602435928160405193828580945193849201611009565b81016001815203019020805482101561052257610cc291610c8e9161102c565b50610c9881611098565b90610cd06002610caa60018401611098565b9201549160405194859460608652606086019061113e565b90848203602086015261113e565b9060408301520390f35b3461052257600036600319011261052257602060405173ffffffffffffffffffffffffffffffffffffffff7f0000000000000000000000000000000000000000000000000000000000000000168152f35b346105225760403660031901126105225760043567ffffffffffffffff811161052257610d5c903690600401610f54565b906024358015159283820361052257610dac73ffffffffffffffffffffffffffffffffffffffff7f0000000000000000000000000000000000000000000000000000000000000000163314611170565b60ff600560405183868237602081858101600081520301902001541615610e40577ff6e400ebdfcd73a618ded970e4f27ec8313d37d28ccd07168f0e3fd2892e8ffd92610e2460209360026040518585823786818781016000815203019020019061ff00825491151560081b169061ff001916179055565b81604051928392833781016000815203902092604051908152a2005b608460405162461bcd60e51b815260206004820152602160248201527f456c2070657266696c206e6f2065786973746520656e20626c6f636b6368616960448201527f6e000000000000000000000000000000000000000000000000000000000000006064820152fd5b346105225760203660031901126105225760043567ffffffffffffffff81116105225760ff60026020610ee281943690600401610f54565b919082604051938492833781016000815203019020015460081c166040519015158152f35b34610522576020366003190112610522576004359067ffffffffffffffff821161052257602081610f3d82943690600401610f54565b809183378101600181520301902054604051908152f35b9181601f840112156105225782359167ffffffffffffffff8311610522576020838186019501011161052257565b90601f8019910116810190811067ffffffffffffffff8211176103c557604052565b92919267ffffffffffffffff82116103c55760405191610fce601f8201601f191660200184610f82565b829481845281830111610522578281602093846000960137010152565b9080601f830112156105225781602061100693359101610fa4565b90565b60005b83811061101c5750506000910152565b818101518382015260200161100c565b8054821015611048576000526003602060002091020190600090565b634e487b7160e01b600052603260045260246000fd5b90600182811c9216801561108e575b602083101461107857565b634e487b7160e01b600052602260045260246000fd5b91607f169161106d565b90604051918260008254926110ac8461105e565b90818452600194858116908160001461111b57506001146110d8575b50506110d692500383610f82565b565b9093915060005260209081600020936000915b8183106111035750506110d6935082010138806110c8565b855488840185015294850194879450918301916110eb565b9150506110d694506020925060ff191682840152151560051b82010138806110c8565b9060209161115781518092818552858086019101611009565b601f01601f1916010190565b906003821015610a6d5752565b1561117757565b608460405162461bcd60e51b815260206004820152602b60248201527f536f6c6f20656c2061646d696e2064652047415244454e20707565646520656a60448201527f656375746172206573746f0000000000000000000000000000000000000000006064820152fd5b908060209392818452848401376000828201840152601f01601f191601019056fea26469706673582212205a8e24cdbf7a6172e662b2e2b7d347895e39c1dab44340715b01a1e760cff88764736f6c63430008140033","opcodes":"PUSH1 0xA0 DUP1 PUSH1 0x40 MSTORE CALLVALUE PUSH2 0x38 JUMPI CALLER PUSH1 0x80 MSTORE PUSH2 0x1238 SWAP1 DUP2 PUSH2 0x3E DUP3 CODECOPY PUSH1 0x80 MLOAD DUP2 DUP2 DUP2 PUSH2 0x106 ADD MSTORE DUP2 DUP2 PUSH2 0x6BD ADD MSTORE DUP2 DUP2 PUSH2 0xD07 ADD MSTORE PUSH2 0xD85 ADD MSTORE RETURN JUMPDEST PUSH1 0x0 DUP1 REVERT INVALID PUSH1 0x80 DUP1 PUSH1 0x40 MSTORE PUSH1 0x4 CALLDATASIZE LT ISZERO PUSH2 0x13 JUMPI PUSH1 0x0 DUP1 REVERT JUMPDEST PUSH1 0x0 CALLDATALOAD PUSH1 0xE0 SHR SWAP1 DUP2 PUSH4 0x1C77A10A EQ PUSH2 0xF07 JUMPI POP DUP1 PUSH4 0x8219F94E EQ PUSH2 0xEAA JUMPI DUP1 PUSH4 0x8A4AC29F EQ PUSH2 0xD2B JUMPI DUP1 PUSH4 0x8DA5CB5B EQ PUSH2 0xCDA JUMPI DUP1 PUSH4 0x9C6719FF EQ PUSH2 0xC21 JUMPI DUP1 PUSH4 0xC77663DB EQ PUSH2 0x616 JUMPI DUP1 PUSH4 0xCBA521E2 EQ PUSH2 0x527 JUMPI PUSH4 0xD10BE60B EQ PUSH2 0x77 JUMPI PUSH1 0x0 DUP1 REVERT JUMPDEST CALLVALUE PUSH2 0x522 JUMPI PUSH1 0x60 CALLDATASIZE PUSH1 0x3 NOT ADD SLT PUSH2 0x522 JUMPI PUSH1 0x4 CALLDATALOAD PUSH8 0xFFFFFFFFFFFFFFFF DUP2 GT PUSH2 0x522 JUMPI PUSH2 0xA8 SWAP1 CALLDATASIZE SWAP1 PUSH1 0x4 ADD PUSH2 0xF54 JUMP JUMPDEST PUSH1 0x24 CALLDATALOAD PUSH8 0xFFFFFFFFFFFFFFFF DUP2 GT PUSH2 0x522 JUMPI PUSH2 0xC8 SWAP1 CALLDATASIZE SWAP1 PUSH1 0x4 ADD PUSH2 0xF54 JUMP JUMPDEST SWAP2 PUSH1 0x44 CALLDATALOAD PUSH8 0xFFFFFFFFFFFFFFFF DUP2 GT PUSH2 0x522 JUMPI PUSH2 0xE9 SWAP1 CALLDATASIZE SWAP1 PUSH1 0x4 ADD PUSH2 0xF54 JUMP JUMPDEST PUSH2 0x12D PUSH20 0xFFFFFFFFFFFFFFFFFFFFFFFFFFFFFFFFFFFFFFFF SWAP7 SWAP3 SWAP7 PUSH32 0x0 AND CALLER EQ PUSH2 0x1170 JUMP JUMPDEST PUSH1 0xFF PUSH1 0x5 PUSH1 0x40 MLOAD DUP6 DUP6 DUP3 CALLDATACOPY PUSH1 0x20 DUP2 DUP8 DUP2 ADD PUSH1 0x0 DUP2 MSTORE SUB ADD SWAP1 KECCAK256 ADD SLOAD AND ISZERO PUSH2 0x4B8 JUMPI PUSH1 0x40 MLOAD DUP4 DUP4 DUP3 CALLDATACOPY PUSH1 0x20 DUP2 DUP6 DUP2 ADD PUSH1 0x1 DUP2 MSTORE SUB ADD SWAP1 KECCAK256 SWAP1 PUSH1 0x40 MLOAD SWAP7 PUSH1 0x60 DUP9 ADD SWAP2 DUP9 DUP4 LT PUSH8 0xFFFFFFFFFFFFFFFF DUP5 GT OR PUSH2 0x3C5 JUMPI PUSH2 0x19B SWAP3 PUSH1 0x40 MSTORE PUSH2 0x192 CALLDATASIZE DUP10 DUP10 PUSH2 0xFA4 JUMP JUMPDEST DUP10 MSTORE CALLDATASIZE SWAP2 PUSH2 0xFA4 JUMP JUMPDEST PUSH1 0x20 DUP8 ADD MSTORE TIMESTAMP PUSH1 0x40 DUP8 ADD MSTORE DUP1 SLOAD PUSH9 0x10000000000000000 DUP2 LT ISZERO PUSH2 0x3C5 JUMPI PUSH2 0x1C8 SWAP2 PUSH1 0x1 DUP3 ADD DUP2 SSTORE PUSH2 0x102C JUMP JUMPDEST PUSH2 0x4A2 JUMPI DUP6 MLOAD DUP1 MLOAD SWAP1 PUSH8 0xFFFFFFFFFFFFFFFF DUP3 GT PUSH2 0x3C5 JUMPI DUP2 SWAP1 PUSH2 0x1EC DUP5 SLOAD PUSH2 0x105E JUMP JUMPDEST PUSH1 0x1F DUP2 GT PUSH2 0x452 JUMPI JUMPDEST POP PUSH1 0x20 SWAP1 PUSH1 0x1F DUP4 GT PUSH1 0x1 EQ PUSH2 0x3E6 JUMPI PUSH1 0x0 SWAP3 PUSH2 0x3DB JUMPI JUMPDEST POP POP DUP2 PUSH1 0x1 SHL SWAP2 PUSH1 0x0 NOT SWAP1 PUSH1 0x3 SHL SHR NOT AND OR DUP2 SSTORE JUMPDEST PUSH1 0x20 DUP7 ADD MLOAD SWAP6 DUP7 MLOAD PUSH8 0xFFFFFFFFFFFFFFFF DUP2 GT PUSH2 0x3C5 JUMPI PUSH2 0x245 PUSH1 0x1 DUP5 ADD SLOAD PUSH2 0x105E JUMP JUMPDEST PUSH1 0x1F DUP2 GT PUSH2 0x37A JUMPI JUMPDEST POP PUSH1 0x20 PUSH1 0x1F DUP3 GT PUSH1 0x1 EQ PUSH2 0x2E6 JUMPI SWAP2 DUP2 PUSH1 0x40 SWAP3 PUSH1 0x2 SWAP5 PUSH32 0x5FA6D0B3EDBB646F8F7DCC1974F8642D9291E5B42087D88405C7C26ECB0F5AB4 SWAP11 SWAP12 PUSH1 0x0 SWAP3 PUSH2 0x2DB JUMPI JUMPDEST POP POP DUP2 PUSH1 0x1 SHL SWAP2 PUSH1 0x0 NOT SWAP1 PUSH1 0x3 SHL SHR NOT AND OR PUSH1 0x1 DUP6 ADD SSTORE JUMPDEST ADD MLOAD SWAP2 ADD SSTORE DUP2 PUSH1 0x40 MLOAD SWAP3 DUP4 SWAP3 DUP4 CALLDATACOPY DUP2 ADD PUSH1 0x0 DUP2 MSTORE SUB SWAP1 KECCAK256 SWAP3 PUSH2 0x2D6 PUSH1 0x40 MLOAD SWAP3 DUP4 SWAP3 PUSH1 0x20 DUP5 MSTORE PUSH1 0x20 DUP5 ADD SWAP2 PUSH2 0x11E1 JUMP JUMPDEST SUB SWAP1 LOG2 STOP JUMPDEST ADD MLOAD SWAP1 POP CODESIZE DUP1 PUSH2 0x28F JUMP JUMPDEST PUSH1 0x1F NOT DUP3 AND SWAP9 PUSH1 0x1 DUP6 ADD PUSH1 0x0 MSTORE PUSH1 0x20 PUSH1 0x0 KECCAK256 SWAP10 PUSH1 0x0 JUMPDEST DUP2 DUP2 LT PUSH2 0x362 JUMPI POP SWAP3 PUSH32 0x5FA6D0B3EDBB646F8F7DCC1974F8642D9291E5B42087D88405C7C26ECB0F5AB4 SWAP10 SWAP11 PUSH1 0x2 SWAP6 SWAP4 PUSH1 0x1 SWAP4 DUP4 PUSH1 0x40 SWAP8 LT PUSH2 0x349 JUMPI JUMPDEST POP POP POP DUP2 SHL ADD PUSH1 0x1 DUP6 ADD SSTORE PUSH2 0x2A7 JUMP JUMPDEST ADD MLOAD PUSH1 0x0 NOT PUSH1 0xF8 DUP5 PUSH1 0x3 SHL AND SHR NOT AND SWAP1 SSTORE CODESIZE DUP1 DUP1 PUSH2 0x339 JUMP JUMPDEST DUP4 DUP4 ADD MLOAD DUP13 SSTORE PUSH1 0x1 SWAP1 SWAP12 ADD SWAP11 PUSH1 0x20 SWAP4 DUP5 ADD SWAP4 ADD PUSH2 0x2FC JUMP JUMPDEST PUSH1 0x1 DUP5 ADD PUSH1 0x0 MSTORE PUSH1 0x20 PUSH1 0x0 KECCAK256 PUSH1 0x1F DUP4 ADD PUSH1 0x5 SHR DUP2 ADD SWAP2 PUSH1 0x20 DUP5 LT PUSH2 0x3BB JUMPI JUMPDEST PUSH1 0x1F ADD PUSH1 0x5 SHR ADD SWAP1 JUMPDEST DUP2 DUP2 LT PUSH2 0x3AF JUMPI POP PUSH2 0x24E JUMP JUMPDEST PUSH1 0x0 DUP2 SSTORE PUSH1 0x1 ADD PUSH2 0x3A2 JUMP JUMPDEST SWAP1 SWAP2 POP DUP2 SWAP1 PUSH2 0x399 JUMP JUMPDEST PUSH4 0x4E487B71 PUSH1 0xE0 SHL PUSH1 0x0 MSTORE PUSH1 0x41 PUSH1 0x4 MSTORE PUSH1 0x24 PUSH1 0x0 REVERT JUMPDEST ADD MLOAD SWAP1 POP CODESIZE DUP1 PUSH2 0x20C JUMP JUMPDEST SWAP3 POP DUP4 PUSH1 0x0 MSTORE PUSH1 0x20 PUSH1 0x0 KECCAK256 SWAP1 PUSH1 0x0 SWAP4 JUMPDEST PUSH1 0x1F NOT DUP5 AND DUP6 LT PUSH2 0x437 JUMPI PUSH1 0x1 SWAP5 POP DUP4 PUSH1 0x1F NOT DUP2 AND LT PUSH2 0x41E JUMPI JUMPDEST POP POP POP DUP2 SHL ADD DUP2 SSTORE PUSH2 0x221 JUMP JUMPDEST ADD MLOAD PUSH1 0x0 NOT PUSH1 0xF8 DUP5 PUSH1 0x3 SHL AND SHR NOT AND SWAP1 SSTORE CODESIZE DUP1 DUP1 PUSH2 0x411 JUMP JUMPDEST DUP2 DUP2 ADD MLOAD DUP4 SSTORE PUSH1 0x20 SWAP5 DUP6 ADD SWAP5 PUSH1 0x1 SWAP1 SWAP4 ADD SWAP3 SWAP1 SWAP2 ADD SWAP1 PUSH2 0x3F6 JUMP JUMPDEST SWAP1 SWAP2 POP DUP4 PUSH1 0x0 MSTORE PUSH1 0x20 PUSH1 0x0 KECCAK256 PUSH1 0x1F DUP5 ADD PUSH1 0x5 SHR DUP2 ADD PUSH1 0x20 DUP6 LT PUSH2 0x49B JUMPI JUMPDEST SWAP1 DUP5 SWAP4 SWAP3 SWAP2 JUMPDEST PUSH1 0x1F DUP4 ADD PUSH1 0x5 SHR DUP3 ADD DUP2 LT PUSH2 0x48C JUMPI POP POP PUSH2 0x1F5 JUMP JUMPDEST PUSH1 0x0 DUP2 SSTORE DUP6 SWAP5 POP PUSH1 0x1 ADD PUSH2 0x476 JUMP JUMPDEST POP DUP1 PUSH2 0x470 JUMP JUMPDEST PUSH4 0x4E487B71 PUSH1 0xE0 SHL PUSH1 0x0 MSTORE PUSH1 0x0 PUSH1 0x4 MSTORE PUSH1 0x24 PUSH1 0x0 REVERT JUMPDEST PUSH1 0x84 PUSH1 0x40 MLOAD PUSH3 0x461BCD PUSH1 0xE5 SHL DUP2 MSTORE PUSH1 0x20 PUSH1 0x4 DUP3 ADD MSTORE PUSH1 0x27 PUSH1 0x24 DUP3 ADD MSTORE PUSH32 0x456C206475656E6F20646562652074656E65722070657266696C2073696E6372 PUSH1 0x44 DUP3 ADD MSTORE PUSH32 0x6F6E697A61646F00000000000000000000000000000000000000000000000000 PUSH1 0x64 DUP3 ADD MSTORE REVERT JUMPDEST PUSH1 0x0 DUP1 REVERT JUMPDEST CALLVALUE PUSH2 0x522 JUMPI PUSH1 0x20 CALLDATASIZE PUSH1 0x3 NOT ADD SLT PUSH2 0x522 JUMPI PUSH1 0x4 CALLDATALOAD PUSH8 0xFFFFFFFFFFFFFFFF DUP2 GT PUSH2 0x522 JUMPI PUSH2 0x573 PUSH1 0x20 PUSH2 0x560 PUSH2 0x5CF SWAP4 CALLDATASIZE SWAP1 PUSH1 0x4 ADD PUSH2 0xFEB JUMP JUMPDEST DUP2 PUSH1 0x40 MLOAD SWAP4 DUP3 DUP6 DUP1 SWAP5 MLOAD SWAP4 DUP5 SWAP3 ADD PUSH2 0x1009 JUMP JUMPDEST DUP2 ADD PUSH1 0x0 DUP2 MSTORE SUB ADD SWAP1 KECCAK256 PUSH2 0x586 DUP2 PUSH2 0x1098 JUMP JUMPDEST SWAP1 PUSH2 0x60A PUSH2 0x596 PUSH1 0x1 DUP4 ADD PUSH2 0x1098 JUMP JUMPDEST SWAP2 PUSH1 0x2 DUP2 ADD SLOAD SWAP1 PUSH1 0x3 DUP2 ADD SLOAD PUSH1 0xFF PUSH2 0x5DD DUP2 PUSH1 0x5 PUSH2 0x5B6 PUSH1 0x4 DUP8 ADD PUSH2 0x1098 JUMP JUMPDEST SWAP6 ADD SLOAD AND SWAP7 PUSH1 0x40 MLOAD SWAP10 DUP11 SWAP10 PUSH1 0xE0 DUP12 MSTORE PUSH1 0xE0 DUP12 ADD SWAP1 PUSH2 0x113E JUMP JUMPDEST SWAP1 DUP10 DUP3 SUB PUSH1 0x20 DUP12 ADD MSTORE PUSH2 0x113E JUMP JUMPDEST SWAP4 PUSH2 0x5ED PUSH1 0x40 DUP10 ADD DUP4 DUP4 AND PUSH2 0x1163 JUMP JUMPDEST PUSH1 0x8 SHR AND ISZERO ISZERO PUSH1 0x60 DUP8 ADD MSTORE PUSH1 0x80 DUP7 ADD MSTORE DUP5 DUP3 SUB PUSH1 0xA0 DUP7 ADD MSTORE PUSH2 0x113E JUMP JUMPDEST SWAP1 ISZERO ISZERO PUSH1 0xC0 DUP4 ADD MSTORE SUB SWAP1 RETURN JUMPDEST CALLVALUE PUSH2 0x522 JUMPI PUSH1 0xA0 CALLDATASIZE PUSH1 0x3 NOT ADD SLT PUSH2 0x522 JUMPI PUSH1 0x4 CALLDATALOAD PUSH8 0xFFFFFFFFFFFFFFFF DUP2 GT PUSH2 0x522 JUMPI PUSH2 0x647 SWAP1 CALLDATASIZE SWAP1 PUSH1 0x4 ADD PUSH2 0xF54 JUMP JUMPDEST PUSH1 0x24 CALLDATALOAD PUSH8 0xFFFFFFFFFFFFFFFF DUP2 GT PUSH2 0x522 JUMPI PUSH2 0x667 SWAP1 CALLDATASIZE SWAP1 PUSH1 0x4 ADD PUSH2 0xF54 JUMP JUMPDEST PUSH1 0x44 CALLDATALOAD PUSH1 0xFF DUP2 AND DUP2 SUB PUSH2 0x522 JUMPI PUSH1 0x64 CALLDATALOAD SWAP4 DUP5 ISZERO ISZERO DUP6 SUB PUSH2 0x522 JUMPI PUSH1 0x84 CALLDATALOAD PUSH8 0xFFFFFFFFFFFFFFFF DUP2 GT PUSH2 0x522 JUMPI PUSH2 0x6A1 SWAP1 CALLDATASIZE SWAP1 PUSH1 0x4 ADD PUSH2 0xF54 JUMP JUMPDEST SWAP7 SWAP1 PUSH2 0x6E4 PUSH20 0xFFFFFFFFFFFFFFFFFFFFFFFFFFFFFFFFFFFFFFFF PUSH32 0x0 AND CALLER EQ PUSH2 0x1170 JUMP JUMPDEST PUSH1 0x3 PUSH1 0xFF DUP6 AND LT ISZERO PUSH2 0xA6D JUMPI PUSH1 0xFF PUSH1 0x5 PUSH1 0x40 MLOAD DUP6 DUP6 DUP3 CALLDATACOPY PUSH1 0x0 DUP2 DUP8 ADD SWAP1 DUP2 MSTORE DUP2 SWAP1 SUB PUSH1 0x20 ADD SWAP1 KECCAK256 ADD SLOAD AND ISZERO PUSH2 0xC1A JUMPI PUSH1 0x3 PUSH1 0x40 MLOAD DUP5 DUP5 DUP3 CALLDATACOPY PUSH1 0x20 DUP2 DUP7 DUP2 ADD PUSH1 0x0 DUP2 MSTORE SUB ADD SWAP1 KECCAK256 ADD SLOAD SWAP1 JUMPDEST PUSH1 0x40 MLOAD SWAP9 DUP10 PUSH1 0xE0 DUP2 ADD LT PUSH8 0xFFFFFFFFFFFFFFFF PUSH1 0xE0 DUP13 ADD GT OR PUSH2 0x3C5 JUMPI PUSH2 0x790 SWAP3 PUSH1 0xE0 DUP12 ADD PUSH1 0x40 MSTORE PUSH2 0x761 CALLDATASIZE DUP8 DUP8 PUSH2 0xFA4 JUMP JUMPDEST DUP12 MSTORE PUSH2 0x76E CALLDATASIZE DUP10 DUP12 PUSH2 0xFA4 JUMP JUMPDEST PUSH1 0x20 DUP13 ADD MSTORE PUSH1 0xFF DUP8 AND PUSH1 0x40 DUP13 ADD MSTORE DUP10 ISZERO ISZERO PUSH1 0x60 DUP13 ADD MSTORE PUSH1 0x80 DUP12 ADD MSTORE CALLDATASIZE SWAP2 PUSH2 0xFA4 JUMP JUMPDEST PUSH1 0xA0 DUP9 ADD MSTORE PUSH1 0x1 PUSH1 0xC0 DUP9 ADD MSTORE PUSH1 0x40 MLOAD DUP3 DUP3 DUP3 CALLDATACOPY PUSH1 0x20 DUP2 DUP5 DUP2 ADD PUSH1 0x0 DUP2 MSTORE SUB ADD SWAP1 KECCAK256 SWAP7 DUP1 MLOAD DUP1 MLOAD SWAP1 PUSH8 0xFFFFFFFFFFFFFFFF DUP3 GT PUSH2 0x3C5 JUMPI DUP2 SWAP1 PUSH2 0x7D2 DUP12 SLOAD PUSH2 0x105E JUMP JUMPDEST PUSH1 0x1F DUP2 GT PUSH2 0xBCA JUMPI JUMPDEST POP PUSH1 0x20 SWAP1 PUSH1 0x1F DUP4 GT PUSH1 0x1 EQ PUSH2 0xB5E JUMPI PUSH1 0x0 SWAP3 PUSH2 0xB53 JUMPI JUMPDEST POP POP DUP2 PUSH1 0x1 SHL SWAP2 PUSH1 0x0 NOT SWAP1 PUSH1 0x3 SHL SHR NOT AND OR DUP9 SSTORE JUMPDEST PUSH1 0x20 DUP2 ADD MLOAD DUP1 MLOAD SWAP1 PUSH8 0xFFFFFFFFFFFFFFFF DUP3 GT PUSH2 0x3C5 JUMPI DUP2 SWAP1 PUSH2 0x82D PUSH1 0x1 DUP13 ADD SLOAD PUSH2 0x105E JUMP JUMPDEST PUSH1 0x1F DUP2 GT PUSH2 0xB00 JUMPI JUMPDEST POP PUSH1 0x20 SWAP1 PUSH1 0x1F DUP4 GT PUSH1 0x1 EQ PUSH2 0xA8E JUMPI PUSH1 0x0 SWAP3 PUSH2 0xA83 JUMPI JUMPDEST POP POP DUP2 PUSH1 0x1 SHL SWAP2 PUSH1 0x0 NOT SWAP1 PUSH1 0x3 SHL SHR NOT AND OR PUSH1 0x1 DUP10 ADD SSTORE JUMPDEST PUSH1 0x40 DUP2 ADD MLOAD PUSH1 0x2 DUP10 ADD PUSH1 0x3 DUP3 LT ISZERO PUSH2 0xA6D JUMPI DUP1 SLOAD PUSH1 0x60 DUP5 ADD MLOAD PUSH2 0xFF00 SWAP1 ISZERO ISZERO PUSH1 0x8 SHL AND PUSH1 0xFF SWAP4 SWAP1 SWAP4 AND PUSH2 0xFFFF NOT SWAP1 SWAP2 AND OR SWAP2 SWAP1 SWAP2 OR SWAP1 SSTORE PUSH1 0x80 DUP2 ADD MLOAD PUSH1 0x3 DUP10 ADD SSTORE PUSH1 0xA0 DUP2 ADD MLOAD SWAP8 DUP9 MLOAD PUSH8 0xFFFFFFFFFFFFFFFF DUP2 GT PUSH2 0x3C5 JUMPI PUSH2 0x8CA PUSH1 0x4 DUP4 ADD SLOAD PUSH2 0x105E JUMP JUMPDEST PUSH1 0x1F DUP2 GT PUSH2 0xA26 JUMPI JUMPDEST POP PUSH1 0x20 PUSH1 0x1F DUP3 GT PUSH1 0x1 EQ PUSH2 0x990 JUMPI SWAP2 DUP2 PUSH1 0x5 SWAP3 PUSH1 0xC0 SWAP5 PUSH32 0x608038DE77C026EEFBA156300C9558E27C9B4C5B3EAC9E3FE6CE4A54A0A6A099 SWAP13 SWAP14 PUSH1 0x0 SWAP3 PUSH2 0x985 JUMPI JUMPDEST POP POP DUP2 PUSH1 0x1 SHL SWAP2 PUSH1 0x0 NOT SWAP1 PUSH1 0x3 SHL SHR NOT AND OR PUSH1 0x4 DUP3 ADD SSTORE JUMPDEST ADD SWAP2 ADD MLOAD ISZERO ISZERO PUSH1 0xFF DUP1 NOT DUP4 SLOAD AND SWAP2 AND OR SWAP1 SSTORE DUP2 PUSH1 0x40 MLOAD SWAP3 DUP4 SWAP3 DUP4 CALLDATACOPY DUP2 ADD PUSH1 0x0 DUP2 MSTORE SUB SWAP1 KECCAK256 SWAP5 PUSH2 0x979 PUSH2 0x96B PUSH1 0x40 MLOAD SWAP6 DUP7 SWAP6 PUSH1 0x60 DUP8 MSTORE PUSH1 0x60 DUP8 ADD SWAP2 PUSH2 0x11E1 JUMP JUMPDEST SWAP3 PUSH1 0xFF PUSH1 0x20 DUP7 ADD SWAP2 AND PUSH2 0x1163 JUMP JUMPDEST ISZERO ISZERO PUSH1 0x40 DUP4 ADD MSTORE SUB SWAP1 LOG2 STOP JUMPDEST ADD MLOAD SWAP1 POP DUP14 DUP1 PUSH2 0x914 JUMP JUMPDEST PUSH1 0x4 DUP4 ADD PUSH1 0x0 MSTORE PUSH1 0x20 PUSH1 0x0 KECCAK256 SWAP11 PUSH1 0x0 JUMPDEST PUSH1 0x1F NOT DUP5 AND DUP2 LT PUSH2 0xA0E JUMPI POP DUP3 PUSH32 0x608038DE77C026EEFBA156300C9558E27C9B4C5B3EAC9E3FE6CE4A54A0A6A099 SWAP12 SWAP13 PUSH1 0xC0 SWAP6 SWAP4 PUSH1 0x1 SWAP4 PUSH1 0x5 SWAP7 PUSH1 0x1F NOT DUP2 AND LT PUSH2 0x9F5 JUMPI JUMPDEST POP POP POP DUP2 SHL ADD PUSH1 0x4 DUP3 ADD SSTORE PUSH2 0x92C JUMP JUMPDEST ADD MLOAD PUSH1 0x0 NOT PUSH1 0xF8 DUP5 PUSH1 0x3 SHL AND SHR NOT AND SWAP1 SSTORE DUP14 DUP1 DUP1 PUSH2 0x9E5 JUMP JUMPDEST DUP3 DUP3 ADD MLOAD DUP14 SSTORE PUSH1 0x1 SWAP1 SWAP13 ADD SWAP12 PUSH1 0x20 SWAP3 DUP4 ADD SWAP3 ADD PUSH2 0x9A0 JUMP JUMPDEST PUSH1 0x4 DUP4 ADD PUSH1 0x0 MSTORE PUSH1 0x20 PUSH1 0x0 KECCAK256 PUSH1 0x1F DUP4 ADD PUSH1 0x5 SHR DUP2 ADD PUSH1 0x20 DUP5 LT PUSH2 0xA66 JUMPI JUMPDEST PUSH1 0x1F DUP4 ADD PUSH1 0x5 SHR DUP3 ADD DUP2 LT PUSH2 0xA5A JUMPI POP POP PUSH2 0x8D3 JUMP JUMPDEST PUSH1 0x0 DUP2 SSTORE PUSH1 0x1 ADD PUSH2 0xA44 JUMP JUMPDEST POP DUP1 PUSH2 0xA44 JUMP JUMPDEST PUSH4 0x4E487B71 PUSH1 0xE0 SHL PUSH1 0x0 MSTORE PUSH1 0x21 PUSH1 0x4 MSTORE PUSH1 0x24 PUSH1 0x0 REVERT JUMPDEST ADD MLOAD SWAP1 POP DUP11 DUP1 PUSH2 0x84D JUMP JUMPDEST SWAP3 POP PUSH1 0x1 DUP12 ADD PUSH1 0x0 MSTORE PUSH1 0x20 PUSH1 0x0 KECCAK256 SWAP1 PUSH1 0x0 SWAP4 JUMPDEST PUSH1 0x1F NOT DUP5 AND DUP6 LT PUSH2 0xAE5 JUMPI PUSH1 0x1 SWAP5 POP DUP4 PUSH1 0x1F NOT DUP2 AND LT PUSH2 0xACC JUMPI JUMPDEST POP POP POP DUP2 SHL ADD PUSH1 0x1 DUP10 ADD SSTORE PUSH2 0x865 JUMP JUMPDEST ADD MLOAD PUSH1 0x0 NOT PUSH1 0xF8 DUP5 PUSH1 0x3 SHL AND SHR NOT AND SWAP1 SSTORE DUP11 DUP1 DUP1 PUSH2 0xABC JUMP JUMPDEST DUP2 DUP2 ADD MLOAD DUP4 SSTORE PUSH1 0x20 SWAP5 DUP6 ADD SWAP5 PUSH1 0x1 SWAP1 SWAP4 ADD SWAP3 SWAP1 SWAP2 ADD SWAP1 PUSH2 0xAA1 JUMP JUMPDEST SWAP1 SWAP2 POP PUSH1 0x1 DUP12 ADD PUSH1 0x0 MSTORE PUSH1 0x20 PUSH1 0x0 KECCAK256 PUSH1 0x1F DUP5 ADD PUSH1 0x5 SHR DUP2 ADD PUSH1 0x20 DUP6 LT PUSH2 0xB4C JUMPI JUMPDEST SWAP1 DUP5 SWAP4 SWAP3 SWAP2 JUMPDEST PUSH1 0x1F DUP4 ADD PUSH1 0x5 SHR DUP3 ADD DUP2 LT PUSH2 0xB3D JUMPI POP POP PUSH2 0x836 JUMP JUMPDEST PUSH1 0x0 DUP2 SSTORE DUP6 SWAP5 POP PUSH1 0x1 ADD PUSH2 0xB27 JUMP JUMPDEST POP DUP1 PUSH2 0xB21 JUMP JUMPDEST ADD MLOAD SWAP1 POP DUP11 DUP1 PUSH2 0x7F2 JUMP JUMPDEST SWAP3 POP DUP11 PUSH1 0x0 MSTORE PUSH1 0x20 PUSH1 0x0 KECCAK256 SWAP1 PUSH1 0x0 SWAP4 JUMPDEST PUSH1 0x1F NOT DUP5 AND DUP6 LT PUSH2 0xBAF JUMPI PUSH1 0x1 SWAP5 POP DUP4 PUSH1 0x1F NOT DUP2 AND LT PUSH2 0xB96 JUMPI JUMPDEST POP POP POP DUP2 SHL ADD DUP9 SSTORE PUSH2 0x807 JUMP JUMPDEST ADD MLOAD PUSH1 0x0 NOT PUSH1 0xF8 DUP5 PUSH1 0x3 SHL AND SHR NOT AND SWAP1 SSTORE DUP11 DUP1 DUP1 PUSH2 0xB89 JUMP JUMPDEST DUP2 DUP2 ADD MLOAD DUP4 SSTORE PUSH1 0x20 SWAP5 DUP6 ADD SWAP5 PUSH1 0x1 SWAP1 SWAP4 ADD SWAP3 SWAP1 SWAP2 ADD SWAP1 PUSH2 0xB6E JUMP JUMPDEST SWAP1 SWAP2 POP DUP11 PUSH1 0x0 MSTORE PUSH1 0x20 PUSH1 0x0 KECCAK256 PUSH1 0x1F DUP5 ADD PUSH1 0x5 SHR DUP2 ADD PUSH1 0x20 DUP6 LT PUSH2 0xC13 JUMPI JUMPDEST SWAP1 DUP5 SWAP4 SWAP3 SWAP2 JUMPDEST PUSH1 0x1F DUP4 ADD PUSH1 0x5 SHR DUP3 ADD DUP2 LT PUSH2 0xC04 JUMPI POP POP PUSH2 0x7DB JUMP JUMPDEST PUSH1 0x0 DUP2 SSTORE DUP6 SWAP5 POP PUSH1 0x1 ADD PUSH2 0xBEE JUMP JUMPDEST POP DUP1 PUSH2 0xBE8 JUMP JUMPDEST TIMESTAMP SWAP1 PUSH2 0x72E JUMP JUMPDEST CALLVALUE PUSH2 0x522 JUMPI PUSH1 0x40 CALLDATASIZE PUSH1 0x3 NOT ADD SLT PUSH2 0x522 JUMPI PUSH1 0x4 CALLDATALOAD PUSH8 0xFFFFFFFFFFFFFFFF DUP2 GT PUSH2 0x522 JUMPI PUSH2 0xC52 SWAP1 CALLDATASIZE SWAP1 PUSH1 0x4 ADD PUSH2 0xFEB JUMP JUMPDEST PUSH2 0xC6E PUSH1 0x20 PUSH1 0x24 CALLDATALOAD SWAP3 DUP2 PUSH1 0x40 MLOAD SWAP4 DUP3 DUP6 DUP1 SWAP5 MLOAD SWAP4 DUP5 SWAP3 ADD PUSH2 0x1009 JUMP JUMPDEST DUP2 ADD PUSH1 0x1 DUP2 MSTORE SUB ADD SWAP1 KECCAK256 DUP1 SLOAD DUP3 LT ISZERO PUSH2 0x522 JUMPI PUSH2 0xCC2 SWAP2 PUSH2 0xC8E SWAP2 PUSH2 0x102C JUMP JUMPDEST POP PUSH2 0xC98 DUP2 PUSH2 0x1098 JUMP JUMPDEST SWAP1 PUSH2 0xCD0 PUSH1 0x2 PUSH2 0xCAA PUSH1 0x1 DUP5 ADD PUSH2 0x1098 JUMP JUMPDEST SWAP3 ADD SLOAD SWAP2 PUSH1 0x40 MLOAD SWAP5 DUP6 SWAP5 PUSH1 0x60 DUP7 MSTORE PUSH1 0x60 DUP7 ADD SWAP1 PUSH2 0x113E JUMP JUMPDEST SWAP1 DUP5 DUP3 SUB PUSH1 0x20 DUP7 ADD MSTORE PUSH2 0x113E JUMP JUMPDEST SWAP1 PUSH1 0x40 DUP4 ADD MSTORE SUB SWAP1 RETURN JUMPDEST CALLVALUE PUSH2 0x522 JUMPI PUSH1 0x0 CALLDATASIZE PUSH1 0x3 NOT ADD SLT PUSH2 0x522 JUMPI PUSH1 0x20 PUSH1 0x40 MLOAD PUSH20 0xFFFFFFFFFFFFFFFFFFFFFFFFFFFFFFFFFFFFFFFF PUSH32 0x0 AND DUP2 MSTORE RETURN JUMPDEST CALLVALUE PUSH2 0x522 JUMPI PUSH1 0x40 CALLDATASIZE PUSH1 0x3 NOT ADD SLT PUSH2 0x522 JUMPI PUSH1 0x4 CALLDATALOAD PUSH8 0xFFFFFFFFFFFFFFFF DUP2 GT PUSH2 0x522 JUMPI PUSH2 0xD5C SWAP1 CALLDATASIZE SWAP1 PUSH1 0x4 ADD PUSH2 0xF54 JUMP JUMPDEST SWAP1 PUSH1 0x24 CALLDATALOAD DUP1 ISZERO ISZERO SWAP3 DUP4 DUP3 SUB PUSH2 0x522 JUMPI PUSH2 0xDAC PUSH20 0xFFFFFFFFFFFFFFFFFFFFFFFFFFFFFFFFFFFFFFFF PUSH32 0x0 AND CALLER EQ PUSH2 0x1170 JUMP JUMPDEST PUSH1 0xFF PUSH1 0x5 PUSH1 0x40 MLOAD DUP4 DUP7 DUP3 CALLDATACOPY PUSH1 0x20 DUP2 DUP6 DUP2 ADD PUSH1 0x0 DUP2 MSTORE SUB ADD SWAP1 KECCAK256 ADD SLOAD AND ISZERO PUSH2 0xE40 JUMPI PUSH32 0xF6E400EBDFCD73A618DED970E4F27EC8313D37D28CCD07168F0E3FD2892E8FFD SWAP3 PUSH2 0xE24 PUSH1 0x20 SWAP4 PUSH1 0x2 PUSH1 0x40 MLOAD DUP6 DUP6 DUP3 CALLDATACOPY DUP7 DUP2 DUP8 DUP2 ADD PUSH1 0x0 DUP2 MSTORE SUB ADD SWAP1 KECCAK256 ADD SWAP1 PUSH2 0xFF00 DUP3 SLOAD SWAP2 ISZERO ISZERO PUSH1 0x8 SHL AND SWAP1 PUSH2 0xFF00 NOT AND OR SWAP1 SSTORE JUMP JUMPDEST DUP2 PUSH1 0x40 MLOAD SWAP3 DUP4 SWAP3 DUP4 CALLDATACOPY DUP2 ADD PUSH1 0x0 DUP2 MSTORE SUB SWAP1 KECCAK256 SWAP3 PUSH1 0x40 MLOAD SWAP1 DUP2 MSTORE LOG2 STOP JUMPDEST PUSH1 0x84 PUSH1 0x40 MLOAD PUSH3 0x461BCD PUSH1 0xE5 SHL DUP2 MSTORE PUSH1 0x20 PUSH1 0x4 DUP3 ADD MSTORE PUSH1 0x21 PUSH1 0x24 DUP3 ADD MSTORE PUSH32 0x456C2070657266696C206E6F2065786973746520656E20626C6F636B63686169 PUSH1 0x44 DUP3 ADD MSTORE PUSH32 0x6E00000000000000000000000000000000000000000000000000000000000000 PUSH1 0x64 DUP3 ADD MSTORE REVERT JUMPDEST CALLVALUE PUSH2 0x522 JUMPI PUSH1 0x20 CALLDATASIZE PUSH1 0x3 NOT ADD SLT PUSH2 0x522 JUMPI PUSH1 0x4 CALLDATALOAD PUSH8 0xFFFFFFFFFFFFFFFF DUP2 GT PUSH2 0x522 JUMPI PUSH1 0xFF PUSH1 0x2 PUSH1 0x20 PUSH2 0xEE2 DUP2 SWAP5 CALLDATASIZE SWAP1 PUSH1 0x4 ADD PUSH2 0xF54 JUMP JUMPDEST SWAP2 SWAP1 DUP3 PUSH1 0x40 MLOAD SWAP4 DUP5 SWAP3 DUP4 CALLDATACOPY DUP2 ADD PUSH1 0x0 DUP2 MSTORE SUB ADD SWAP1 KECCAK256 ADD SLOAD PUSH1 0x8 SHR AND PUSH1 0x40 MLOAD SWAP1 ISZERO ISZERO DUP2 MSTORE RETURN JUMPDEST CALLVALUE PUSH2 0x522 JUMPI PUSH1 0x20 CALLDATASIZE PUSH1 0x3 NOT ADD SLT PUSH2 0x522 JUMPI PUSH1 0x4 CALLDATALOAD SWAP1 PUSH8 0xFFFFFFFFFFFFFFFF DUP3 GT PUSH2 0x522 JUMPI PUSH1 0x20 DUP2 PUSH2 0xF3D DUP3 SWAP5 CALLDATASIZE SWAP1 PUSH1 0x4 ADD PUSH2 0xF54 JUMP JUMPDEST DUP1 SWAP2 DUP4 CALLDATACOPY DUP2 ADD PUSH1 0x1 DUP2 MSTORE SUB ADD SWAP1 KECCAK256 SLOAD PUSH1 0x40 MLOAD SWAP1 DUP2 MSTORE RETURN JUMPDEST SWAP2 DUP2 PUSH1 0x1F DUP5 ADD SLT ISZERO PUSH2 0x522 JUMPI DUP3 CALLDATALOAD SWAP2 PUSH8 0xFFFFFFFFFFFFFFFF DUP4 GT PUSH2 0x522 JUMPI PUSH1 0x20 DUP4 DUP2 DUP7 ADD SWAP6 ADD ADD GT PUSH2 0x522 JUMPI JUMP JUMPDEST SWAP1 PUSH1 0x1F DUP1 NOT SWAP2 ADD AND DUP2 ADD SWAP1 DUP2 LT PUSH8 0xFFFFFFFFFFFFFFFF DUP3 GT OR PUSH2 0x3C5 JUMPI PUSH1 0x40 MSTORE JUMP JUMPDEST SWAP3 SWAP2 SWAP3 PUSH8 0xFFFFFFFFFFFFFFFF DUP3 GT PUSH2 0x3C5 JUMPI PUSH1 0x40 MLOAD SWAP2 PUSH2 0xFCE PUSH1 0x1F DUP3 ADD PUSH1 0x1F NOT AND PUSH1 0x20 ADD DUP5 PUSH2 0xF82 JUMP JUMPDEST DUP3 SWAP5 DUP2 DUP5 MSTORE DUP2 DUP4 ADD GT PUSH2 0x522 JUMPI DUP3 DUP2 PUSH1 0x20 SWAP4 DUP5 PUSH1 0x0 SWAP7 ADD CALLDATACOPY ADD ADD MSTORE JUMP JUMPDEST SWAP1 DUP1 PUSH1 0x1F DUP4 ADD SLT ISZERO PUSH2 0x522 JUMPI DUP2 PUSH1 0x20 PUSH2 0x1006 SWAP4 CALLDATALOAD SWAP2 ADD PUSH2 0xFA4 JUMP JUMPDEST SWAP1 JUMP JUMPDEST PUSH1 0x0 JUMPDEST DUP4 DUP2 LT PUSH2 0x101C JUMPI POP POP PUSH1 0x0 SWAP2 ADD MSTORE JUMP JUMPDEST DUP2 DUP2 ADD MLOAD DUP4 DUP3 ADD MSTORE PUSH1 0x20 ADD PUSH2 0x100C JUMP JUMPDEST DUP1 SLOAD DUP3 LT ISZERO PUSH2 0x1048 JUMPI PUSH1 0x0 MSTORE PUSH1 0x3 PUSH1 0x20 PUSH1 0x0 KECCAK256 SWAP2 MUL ADD SWAP1 PUSH1 0x0 SWAP1 JUMP JUMPDEST PUSH4 0x4E487B71 PUSH1 0xE0 SHL PUSH1 0x0 MSTORE PUSH1 0x32 PUSH1 0x4 MSTORE PUSH1 0x24 PUSH1 0x0 REVERT JUMPDEST SWAP1 PUSH1 0x1 DUP3 DUP2 SHR SWAP3 AND DUP1 ISZERO PUSH2 0x108E JUMPI JUMPDEST PUSH1 0x20 DUP4 LT EQ PUSH2 0x1078 JUMPI JUMP JUMPDEST PUSH4 0x4E487B71 PUSH1 0xE0 SHL PUSH1 0x0 MSTORE PUSH1 0x22 PUSH1 0x4 MSTORE PUSH1 0x24 PUSH1 0x0 REVERT JUMPDEST SWAP2 PUSH1 0x7F AND SWAP2 PUSH2 0x106D JUMP JUMPDEST SWAP1 PUSH1 0x40 MLOAD SWAP2 DUP3 PUSH1 0x0 DUP3 SLOAD SWAP3 PUSH2 0x10AC DUP5 PUSH2 0x105E JUMP JUMPDEST SWAP1 DUP2 DUP5 MSTORE PUSH1 0x1 SWAP5 DUP6 DUP2 AND SWAP1 DUP2 PUSH1 0x0 EQ PUSH2 0x111B JUMPI POP PUSH1 0x1 EQ PUSH2 0x10D8 JUMPI JUMPDEST POP POP PUSH2 0x10D6 SWAP3 POP SUB DUP4 PUSH2 0xF82 JUMP JUMPDEST JUMP JUMPDEST SWAP1 SWAP4 SWAP2 POP PUSH1 0x0 MSTORE PUSH1 0x20 SWAP1 DUP2 PUSH1 0x0 KECCAK256 SWAP4 PUSH1 0x0 SWAP2 JUMPDEST DUP2 DUP4 LT PUSH2 0x1103 JUMPI POP POP PUSH2 0x10D6 SWAP4 POP DUP3 ADD ADD CODESIZE DUP1 PUSH2 0x10C8 JUMP JUMPDEST DUP6 SLOAD DUP9 DUP5 ADD DUP6 ADD MSTORE SWAP5 DUP6 ADD SWAP5 DUP8 SWAP5 POP SWAP2 DUP4 ADD SWAP2 PUSH2 0x10EB JUMP JUMPDEST SWAP2 POP POP PUSH2 0x10D6 SWAP5 POP PUSH1 0x20 SWAP3 POP PUSH1 0xFF NOT AND DUP3 DUP5 ADD MSTORE ISZERO ISZERO PUSH1 0x5 SHL DUP3 ADD ADD CODESIZE DUP1 PUSH2 0x10C8 JUMP JUMPDEST SWAP1 PUSH1 0x20 SWAP2 PUSH2 0x1157 DUP2 MLOAD DUP1 SWAP3 DUP2 DUP6 MSTORE DUP6 DUP1 DUP7 ADD SWAP2 ADD PUSH2 0x1009 JUMP JUMPDEST PUSH1 0x1F ADD PUSH1 0x1F NOT AND ADD ADD SWAP1 JUMP JUMPDEST SWAP1 PUSH1 0x3 DUP3 LT ISZERO PUSH2 0xA6D JUMPI MSTORE JUMP JUMPDEST ISZERO PUSH2 0x1177 JUMPI JUMP JUMPDEST PUSH1 0x84 PUSH1 0x40 MLOAD PUSH3 0x461BCD PUSH1 0xE5 SHL DUP2 MSTORE PUSH1 0x20 PUSH1 0x4 DUP3 ADD MSTORE PUSH1 0x2B PUSH1 0x24 DUP3 ADD MSTORE PUSH32 0x536F6C6F20656C2061646D696E2064652047415244454E20707565646520656A PUSH1 0x44 DUP3 ADD MSTORE PUSH32 0x656375746172206573746F000000000000000000000000000000000000000000 PUSH1 0x64 DUP3 ADD MSTORE REVERT JUMPDEST SWAP1 DUP1 PUSH1 0x20 SWAP4 SWAP3 DUP2 DUP5 MSTORE DUP5 DUP5 ADD CALLDATACOPY PUSH1 0x0 DUP3 DUP3 ADD DUP5 ADD MSTORE PUSH1 0x1F ADD PUSH1 0x1F NOT AND ADD ADD SWAP1 JUMP INVALID LOG2 PUSH5 0x6970667358 0x22 SLT KECCAK256 GAS DUP15 0x24 0xCD 0xBF PUSH27 0x6172E662B2E2B7D347895E39C1DAB44340715B01A1E760CFF88764 PUSH20 0x6F6C634300081400330000000000000000000000 "},"methodIdentifiers":{"addPetToOwner(string,string,string)":"d10be60b","getOwnerPetsCount(string)":"1c77a10a","isUserVerified(string)":"8219f94e","owner()":"8da5cb5b","ownerPets(string,uint256)":"9c6719ff","profiles(string)":"cba521e2","syncProfile(string,string,uint8,bool,string)":"c77663db","updateVerificationStatus(string,bool)":"8a4ac29f"}}}}}