{"contracts/GardenEscrow.sol":{"GardenEscrow":{"abi":[{"inputs":[],"stateMutability":"nonpayable","type":"constructor"},{"anonymous":false,"inputs":[{"indexed":true,"internalType":"string","name":"bookingId","type":"string"},{"indexed":false,"internalType":"string","name":"petName","type":"string"},{"indexed":false,"internalType":"uint256","name":"amountBs","type":"uint256"}],"name":"BookingCreated","type":"event"},{"anonymous":false,"inputs":[{"indexed":true,"internalType":"string","name":"bookingId","type":"string"},{"indexed":false,"internalType":"string","name":"verdict","type":"string"},{"indexed":false,"internalType":"uint256","name":"caregiverAmountBs","type":"uint256"},{"indexed":false,"internalType":"uint256","name":"clientDiscountBs","type":"uint256"},{"indexed":false,"internalType":"uint256","name":"timestamp","type":"uint256"}],"name":"DisputeResolved","type":"event"},{"anonymous":false,"inputs":[{"indexed":true,"internalType":"string","name":"bookingId","type":"string"},{"indexed":false,"internalType":"uint256","name":"timestamp","type":"uint256"}],"name":"PaymentConfirmed","type":"event"},{"anonymous":false,"inputs":[{"indexed":true,"internalType":"string","name":"bookingId","type":"string"},{"indexed":false,"internalType":"string","name":"reason","type":"string"},{"indexed":false,"internalType":"uint256","name":"timestamp","type":"uint256"}],"name":"ServiceCancelled","type":"event"},{"anonymous":false,"inputs":[{"indexed":true,"internalType":"string","name":"bookingId","type":"string"},{"indexed":false,"internalType":"uint8","name":"rating","type":"uint8"},{"indexed":false,"internalType":"uint256","name":"timestamp","type":"uint256"}],"name":"ServiceFinalized","type":"event"},{"anonymous":false,"inputs":[{"indexed":true,"internalType":"string","name":"bookingId","type":"string"},{"indexed":false,"internalType":"uint256","name":"additionalMinutes","type":"uint256"},{"indexed":false,"internalType":"uint256","name":"newAmountBs","type":"uint256"},{"indexed":false,"internalType":"uint256","name":"timestamp","type":"uint256"}],"name":"WalkExtended","type":"event"},{"inputs":[{"internalType":"string","name":"","type":"string"}],"name":"bookings","outputs":[{"internalType":"string","name":"bookingId","type":"string"},{"internalType":"string","name":"clientId","type":"string"},{"internalType":"string","name":"caregiverId","type":"string"},{"internalType":"uint256","name":"amountBs","type":"uint256"},{"internalType":"uint256","name":"startTime","type":"uint256"},{"internalType":"uint256","name":"endTime","type":"uint256"},{"internalType":"bool","name":"isActive","type":"bool"},{"internalType":"bool","name":"isCompleted","type":"bool"},{"internalType":"uint8","name":"rating","type":"uint8"},{"internalType":"string","name":"petName","type":"string"},{"internalType":"string","name":"serviceType","type":"string"}],"stateMutability":"view","type":"function"},{"inputs":[{"internalType":"string","name":"_bookingId","type":"string"},{"internalType":"string","name":"_reason","type":"string"}],"name":"cancelBooking","outputs":[],"stateMutability":"nonpayable","type":"function"},{"inputs":[{"internalType":"string","name":"","type":"string"}],"name":"caregiverRatingCount","outputs":[{"internalType":"uint256","name":"","type":"uint256"}],"stateMutability":"view","type":"function"},{"inputs":[{"internalType":"string","name":"","type":"string"}],"name":"caregiverTotalRating","outputs":[{"internalType":"uint256","name":"","type":"uint256"}],"stateMutability":"view","type":"function"},{"inputs":[{"internalType":"string","name":"_bookingId","type":"string"},{"internalType":"string","name":"_clientId","type":"string"},{"internalType":"string","name":"_caregiverId","type":"string"},{"internalType":"uint256","name":"_amountBs","type":"uint256"},{"internalType":"uint256","name":"_startTime","type":"uint256"},{"internalType":"uint256","name":"_endTime","type":"uint256"},{"internalType":"string","name":"_petName","type":"string"},{"internalType":"string","name":"_serviceType","type":"string"}],"name":"createBooking","outputs":[],"stateMutability":"nonpayable","type":"function"},{"inputs":[{"internalType":"string","name":"_bookingId","type":"string"},{"internalType":"uint256","name":"_additionalMinutes","type":"uint256"},{"internalType":"uint256","name":"_newAmountBs","type":"uint256"}],"name":"extendWalk","outputs":[],"stateMutability":"nonpayable","type":"function"},{"inputs":[{"internalType":"string","name":"_bookingId","type":"string"},{"internalType":"uint8","name":"_rating","type":"uint8"}],"name":"finalizeBooking","outputs":[],"stateMutability":"nonpayable","type":"function"},{"inputs":[{"internalType":"string","name":"_id","type":"string"}],"name":"getBooking","outputs":[{"components":[{"internalType":"string","name":"bookingId","type":"string"},{"internalType":"string","name":"clientId","type":"string"},{"internalType":"string","name":"caregiverId","type":"string"},{"internalType":"uint256","name":"amountBs","type":"uint256"},{"internalType":"uint256","name":"startTime","type":"uint256"},{"internalType":"uint256","name":"endTime","type":"uint256"},{"internalType":"bool","name":"isActive","type":"bool"},{"internalType":"bool","name":"isCompleted","type":"bool"},{"internalType":"uint8","name":"rating","type":"uint8"},{"internalType":"string","name":"petName","type":"string"},{"internalType":"string","name":"serviceType","type":"string"}],"internalType":"struct GardenEscrow.Booking","name":"","type":"tuple"}],"stateMutability":"view","type":"function"},{"inputs":[{"internalType":"string","name":"_caregiverId","type":"string"}],"name":"getReputation","outputs":[{"internalType":"uint256","name":"totalRating","type":"uint256"},{"internalType":"uint256","name":"ratingCount","type":"uint256"}],"stateMutability":"view","type":"function"},{"inputs":[],"name":"owner","outputs":[{"internalType":"address","name":"","type":"address"}],"stateMutability":"view","type":"function"},{"inputs":[{"internalType":"string","name":"_bookingId","type":"string"},{"internalType":"uint256","name":"_caregiverAmountBs","type":"uint256"}],"name":"resolveDisputeCaregiverWins","outputs":[],"stateMutability":"nonpayable","type":"function"},{"inputs":[{"internalType":"string","name":"_bookingId","type":"string"},{"internalType":"uint256","name":"_refundAmountBs","type":"uint256"}],"name":"resolveDisputeClientWins","outputs":[],"stateMutability":"nonpayable","type":"function"},{"inputs":[{"internalType":"string","name":"_bookingId","type":"string"},{"internalType":"uint256","name":"_caregiverAmountBs","type":"uint256"},{"internalType":"uint256","name":"_clientDiscountBs","type":"uint256"}],"name":"resolvePartial","outputs":[],"stateMutability":"nonpayable","type":"function"},{"inputs":[],"name":"totalBookings","outputs":[{"internalType":"uint256","name":"","type":"uint256"}],"stateMutability":"view","type":"function"}],"evm":{"bytecode":{"linkReferences":{},"object":"60a080604052346100545733608052611a82908161005a823960805181818161017f015281816109c101528181610d68015281816110af015281816111130152818161121c0152818161147701526116210152f35b600080fdfe6080604052600436101561001257600080fd5b60003560e01c806302e84412146115de5780631f007d8a146115b75780633ad9c924146115905780633d1103f41461152757806342b6ef7914611437578063502bf35e14611323578063833a5a14146111c35780638bbf8c5f146110d35780638da5cb5b1461108f578063923d2d3314610d175780639624493f14610b095780639668ce3e14610aeb578063c7d90c80146109a35763eebef596146100b657600080fd5b3461099e5761010036600319011261099e5760043567ffffffffffffffff811161099e576100e89036906004016116cf565b9060243567ffffffffffffffff811161099e576101099036906004016116cf565b9060443567ffffffffffffffff811161099e5761012a9036906004016116cf565b909260c43567ffffffffffffffff811161099e5761014c9036906004016116cf565b94909360e43567ffffffffffffffff811161099e5761016f9036906004016116cf565b9190926101a66001600160a01b037f0000000000000000000000000000000000000000000000000000000000000000163314611954565b60046040518b8b823760008c8201526020818d810103019020015461095a5789956101f36101ff9361024a976101ea8d6040519b6101e38d611734565b3691611773565b8a523691611773565b60208801523691611773565b60408501526064356060850152608435608085015260a43560a0850152600160c0850152600060e0850152600061010085015261023d368787611773565b6101208501523691611773565b61014082015260405185858237602081878101600081520301902090805180519067ffffffffffffffff8211610617578190610286855461184f565b601f811161090a575b50602090601f831160011461089e57600092610893575b50508160011b916000199060031b1c19161782555b602081015180519067ffffffffffffffff82116106175781906102e1600186015461184f565b601f8111610840575b50602090601f83116001146107ce576000926107c3575b50508160011b916000199060031b1c19161760018301555b604081015180519067ffffffffffffffff821161061757819061033f600286015461184f565b601f8111610770575b50602090601f83116001146106fe576000926106f3575b50508160011b916000199060031b1c19161760028301555b606081015160038301556080810151600483015560a081015160058301556103e16006830160c08301511515815460ff61ff0060e0870151151560081b1692169061ffff19161717815560ff6101008401511662ff000082549160101b169062ff00001916179055565b61012081015180519067ffffffffffffffff821161061757610406600785015461184f565b601f81116106ac575b50602090601f8311600114610638576101409392916000918361062d575b50508160011b916000199060031b1c19161760078401555b015180519067ffffffffffffffff821161061757610466600884015461184f565b601f81116105cc575b50602090601f831160011461055e576008929160009183610553575b50508160011b916000199060031b1c1916179101555b60015490600019821461053d5760017f57ce3030b25e873cc2900f490ac3d24d068e7c280f934f8a29d540155038472e9201600155604051858582378086810160008152039020926104fc60405192839260643591846119c5565b0390a28160405192839283378101600081520390207f250cbee58b321813116d5b3523c84b813eaa55482958e914517b1ddfbbeea62a6020604051428152a2005b634e487b7160e01b600052601160045260246000fd5b01519050388061048b565b90601f198316916008850160005260206000209260005b8181106105b45750916001939185600896941061059b575b505050811b019101556104a1565b015160001960f88460031b161c1916905538808061058d565b92936020600181928786015181550195019301610575565b600884016000526020600020601f840160051c8101916020851061060d575b601f0160051c01905b818110610601575061046f565b600081556001016105f4565b90915081906105eb565b634e487b7160e01b600052604160045260246000fd5b01519050388061042d565b906007850160005260206000209160005b601f198516811061069457509183916001936101409695601f1981161061067b575b505050811b016007840155610445565b015160001960f88460031b161c1916905538808061066b565b91926020600181928685015181550194019201610649565b600785016000526020600020601f840160051c8101602085106106ec575b601f830160051c820181106106e057505061040f565b600081556001016106ca565b50806106ca565b01519050388061035f565b9250600285016000526020600020906000935b601f1984168510610755576001945083601f1981161061073c575b505050811b016002830155610377565b015160001960f88460031b161c1916905538808061072c565b81810151835560209485019460019093019290910190610711565b909150600285016000526020600020601f840160051c8101602085106107bc575b90849392915b601f830160051c820181106107ad575050610348565b60008155859450600101610797565b5080610791565b015190503880610301565b9250600185016000526020600020906000935b601f1984168510610825576001945083601f1981161061080c575b505050811b016001830155610319565b015160001960f88460031b161c191690553880806107fc565b818101518355602094850194600190930192909101906107e1565b909150600185016000526020600020601f840160051c81016020851061088c575b90849392915b601f830160051c8201811061087d5750506102ea565b60008155859450600101610867565b5080610861565b0151905038806102a6565b9250846000526020600020906000935b601f19841685106108ef576001945083601f198116106108d6575b505050811b0182556102bb565b015160001960f88460031b161c191690553880806108c9565b818101518355602094850194600190930192909101906108ae565b909150846000526020600020601f840160051c810160208510610953575b90849392915b601f830160051c8201811061094457505061028f565b6000815585945060010161092e565b5080610928565b606460405162461bcd60e51b815260206004820152601d60248201527f4c61207265736572766120796120657869737465206f6e2d636861696e0000006044820152fd5b600080fd5b3461099e576109b1366116fd565b9291906109e86001600160a01b037f0000000000000000000000000000000000000000000000000000000000000000163314611954565b60405182848237602081848101600081520301902060ff60068201541615610a81578085600360059301550191825493603c830293838504603c148415171561053d57610a586060957f95a77f02e9079398f3b4f7d6d4da8b13327ad5e2a93e298f6bab249aeabb0ea8976119f4565b9055816040519283928337810160008152039020936040519182526020820152426040820152a2005b608460405162461bcd60e51b815260206004820152602860248201527f52657365727661206e6f20616374697661202d206e6f2073652070756564652060448201527f657874656e6465720000000000000000000000000000000000000000000000006064820152fd5b3461099e57600036600319011261099e576020600154604051908152f35b3461099e57602036600319011261099e5760043567ffffffffffffffff811161099e576020610b3f610d139236906004016116cf565b91906060610140604051610b5281611734565b828152828582015282604082015260008382015260006080820152600060a0820152600060c0820152600060e0820152600061010082015282610120820152015282604051938492833781016000815203019020610c42600860405192610bb884611734565b610bc181611889565b8452610bcf60018201611889565b6020850152610be060028201611889565b60408501526003810154606085015260048101546080850152600581015460a085015260ff6006820154818116151560c08701528181851c16151560e087015260101c16610100850152610c3660078201611889565b61012085015201611889565b61014082015260405191829160208352610140610cfe610ca2610c8c610c76855161016060208a015261018089019061192f565b6020860151888203601f190160408a015261192f565b6040850151878203601f1901606089015261192f565b60608401516080870152608084015160a087015260a084015160c087015260c0840151151560e087015260e0840151151561010087015260ff61010085015116610120870152610120840151601f19878303018488015261192f565b910151838203601f190161016085015261192f565b0390f35b3461099e57604036600319011261099e5760043567ffffffffffffffff811161099e57610d489036906004016116cf565b9060249182359160ff83169283810361099e57610d8f6001600160a01b037f0000000000000000000000000000000000000000000000000000000000000000163314611954565b60405194838387378584810160008152602097889103019020600681019283549360ff8516156110265760ff8560081c16610fe3576001948589101580610fd8575b15610f705762ffffff191660109290921b62ff00001691909117610100179055600201604051878160008454610e068161184f565b90888116908115610f5b5750600114610f20575b506002815203019020610e2e8782546119f4565b9055866040518092600090805490610e458261184f565b91888116908115610f095750600114610ecd575b50506003815203019020908154928301809311610eb9575091604093917f720fac15ad95e7e15d4b7d8e3f33218d270ea09a1dcbb4886720c63d1a509a6495935581845192839283378101600081520390209382519182524290820152a2005b634e487b7160e01b60005260116004526000fd5b9091506000528260002083876000925b848410610ef1575050505081018a80610e59565b80548885015287955092909101918591899101610edd565b60ff19168552505080151502820190508a80610e59565b9050846000528260002083886000925b848410610f43575050505081018b610e1a565b805488850152879550929091019185918a9101610f30565b60ff191684525080151502820190508b610e1a565b60848a866040519162461bcd60e51b83526004830152808201527f4c612063616c696669636163696f6e20646562652073657220656e747265203160448201527f20792035000000000000000000000000000000000000000000000000000000006064820152fd5b506005891115610dd1565b606489601f866040519262461bcd60e51b845260048401528201527f59612065737461206d61726361646120636f6d6f20636f6d706c6574616461006044820152fd5b6084896021866040519262461bcd60e51b845260048401528201527f52657365727661206e6f20616374697661206f2079612066696e616c697a616460448201527f61000000000000000000000000000000000000000000000000000000000000006064820152fd5b3461099e57600036600319011261099e5760206040516001600160a01b037f0000000000000000000000000000000000000000000000000000000000000000168152f35b3461099e5760c07fb82e131fcfa5ee5aabc35f0dafc55b7dee8beb0ebe72709b787a4f481d2040ba6111043661181c565b939161113a6001600160a01b037f0000000000000000000000000000000000000000000000000000000000000000163314611954565b600660405183838237602081858101600081520301902001805461116060ff8216611a01565b60ff19169055816040519283928337810160008152039020926040519060808252600e60808301527f4341524547495645525f57494e5300000000000000000000000000000000000060a0830152602082015260006040820152426060820152a2005b3461099e57604036600319011261099e5767ffffffffffffffff60043581811161099e576111f59036906004016116cf565b9160243590811161099e5761120e9036906004016116cf565b926112436001600160a01b037f0000000000000000000000000000000000000000000000000000000000000000163314611954565b6006604051828582376020818481016000815203019020019283549360ff8516156112b9577fc480801d2bb33eaf2ffbf8ad31a3555cb09eb6fecb6dd73536303055807fd2869460ff19169055816040519283928337810160008152039020926112b46040519283924291846119c5565b0390a2005b608460405162461bcd60e51b815260206004820152603660248201527f4e6f2073652070756564652063616e63656c617220756e61207265736572766160448201527f20696e616374697661206f2066696e616c697a616461000000000000000000006064820152fd5b3461099e576113496020611336366117ba565b81604051938285809451938492016117f9565b810160008152030190206113cd610d1361136283611889565b61142861137160018601611889565b9461137e60028201611889565b9060ff60038201549260048301546005840154906113e96006860154936113db6113b660086113af60078b01611889565b9901611889565b9a6040519e8f9e8f9261016080855284019061192f565b91602081840391015261192f565b8c810360408e01529061192f565b9560608b015260808a015260a0890152818116151560c0890152818160081c16151560e089015260101c1661010087015285820361012087015261192f565b9083820361014085015261192f565b3461099e5760c07fb82e131fcfa5ee5aabc35f0dafc55b7dee8beb0ebe72709b787a4f481d2040ba6114683661181c565b939161149e6001600160a01b037f0000000000000000000000000000000000000000000000000000000000000000163314611954565b60066040518383823760208185810160008152030190200180546114c460ff8216611a01565b60ff19169055816040519283928337810160008152039020926040519060808252600b60808301527f434c49454e545f57494e5300000000000000000000000000000000000000000060a0830152600060208301526040820152426060820152a2005b3461099e57602036600319011261099e5760043567ffffffffffffffff811161099e5761155a60409136906004016116cf565b60208351828482378181848101600281520301902054928285519384928337810160038152030190205482519182526020820152f35b3461099e5760206115a481611336366117ba565b8101600281520301902054604051908152f35b3461099e5760206115cb81611336366117ba565b8101600381520301902054604051908152f35b3461099e5760c07fb82e131fcfa5ee5aabc35f0dafc55b7dee8beb0ebe72709b787a4f481d2040ba61160f366116fd565b94926116486001600160a01b039392937f0000000000000000000000000000000000000000000000000000000000000000163314611954565b600660405183838237602081858101600081520301902001805461166e60ff8216611a01565b60ff19169055816040519283928337810160008152039020936040519160808352600760808401527f5041525449414c0000000000000000000000000000000000000000000000000060a084015260208301526040820152426060820152a2005b9181601f8401121561099e5782359167ffffffffffffffff831161099e576020838186019501011161099e57565b606060031982011261099e576004359067ffffffffffffffff821161099e57611728916004016116cf565b90916024359060443590565b610160810190811067ffffffffffffffff82111761061757604052565b90601f8019910116810190811067ffffffffffffffff82111761061757604052565b92919267ffffffffffffffff8211610617576040519161179d601f8201601f191660200184611751565b82948184528183011161099e578281602093846000960137010152565b602060031982011261099e576004359067ffffffffffffffff821161099e578060238301121561099e578160246117f693600401359101611773565b90565b60005b83811061180c5750506000910152565b81810151838201526020016117fc565b604060031982011261099e576004359067ffffffffffffffff821161099e57611847916004016116cf565b909160243590565b90600182811c9216801561187f575b602083101461186957565b634e487b7160e01b600052602260045260246000fd5b91607f169161185e565b906040519182600082549261189d8461184f565b90818452600194858116908160001461190c57506001146118c9575b50506118c792500383611751565b565b9093915060005260209081600020936000915b8183106118f45750506118c7935082010138806118b9565b855488840185015294850194879450918301916118dc565b9150506118c794506020925060ff191682840152151560051b82010138806118b9565b90602091611948815180928185528580860191016117f9565b601f01601f1916010190565b1561195b57565b608460405162461bcd60e51b815260206004820152603960248201527f536f6c6f20656c2061646d696e6973747261646f722064652047415244454e2060448201527f7075656465206c6c616d617220657374612066756e63696f6e000000000000006064820152fd5b9392918060609160209360408852816040890152838801376000828288010152601f8019910116850101930152565b9190820180921161053d57565b15611a0857565b606460405162461bcd60e51b815260206004820152601f60248201527f52657365727661206e6f20616374697661206f2079612072657375656c7461006044820152fdfea2646970667358221220e6f27d80c1ebcd8ef9665b953f85b635d9a56e70d3980ed92c8b42f95a21208d64736f6c63430008140033","opcodes":"PUSH1 0xA0 DUP1 PUSH1 0x40 MSTORE CALLVALUE PUSH2 0x54 JUMPI CALLER PUSH1 0x80 MSTORE PUSH2 0x1A82 SWAP1 DUP2 PUSH2 0x5A DUP3 CODECOPY PUSH1 0x80 MLOAD DUP2 DUP2 DUP2 PUSH2 0x17F ADD MSTORE DUP2 DUP2 PUSH2 0x9C1 ADD MSTORE DUP2 DUP2 PUSH2 0xD68 ADD MSTORE DUP2 DUP2 PUSH2 0x10AF ADD MSTORE DUP2 DUP2 PUSH2 0x1113 ADD MSTORE DUP2 DUP2 PUSH2 0x121C ADD MSTORE DUP2 DUP2 PUSH2 0x1477 ADD MSTORE PUSH2 0x1621 ADD MSTORE RETURN JUMPDEST PUSH1 0x0 DUP1 REVERT INVALID PUSH1 0x80 PUSH1 0x40 MSTORE PUSH1 0x4 CALLDATASIZE LT ISZERO PUSH2 0x12 JUMPI PUSH1 0x0 DUP1 REVERT JUMPDEST PUSH1 0x0 CALLDATALOAD PUSH1 0xE0 SHR DUP1 PUSH4 0x2E84412 EQ PUSH2 0x15DE JUMPI DUP1 PUSH4 0x1F007D8A EQ PUSH2 0x15B7 JUMPI DUP1 PUSH4 0x3AD9C924 EQ PUSH2 0x1590 JUMPI DUP1 PUSH4 0x3D1103F4 EQ PUSH2 0x1527 JUMPI DUP1 PUSH4 0x42B6EF79 EQ PUSH2 0x1437 JUMPI DUP1 PUSH4 0x502BF35E EQ PUSH2 0x1323 JUMPI DUP1 PUSH4 0x833A5A14 EQ PUSH2 0x11C3 JUMPI DUP1 PUSH4 0x8BBF8C5F EQ PUSH2 0x10D3 JUMPI DUP1 PUSH4 0x8DA5CB5B EQ PUSH2 0x108F JUMPI DUP1 PUSH4 0x923D2D33 EQ PUSH2 0xD17 JUMPI DUP1 PUSH4 0x9624493F EQ PUSH2 0xB09 JUMPI DUP1 PUSH4 0x9668CE3E EQ PUSH2 0xAEB JUMPI DUP1 PUSH4 0xC7D90C80 EQ PUSH2 0x9A3 JUMPI PUSH4 0xEEBEF596 EQ PUSH2 0xB6 JUMPI PUSH1 0x0 DUP1 REVERT JUMPDEST CALLVALUE PUSH2 0x99E JUMPI PUSH2 0x100 CALLDATASIZE PUSH1 0x3 NOT ADD SLT PUSH2 0x99E JUMPI PUSH1 0x4 CALLDATALOAD PUSH8 0xFFFFFFFFFFFFFFFF DUP2 GT PUSH2 0x99E JUMPI PUSH2 0xE8 SWAP1 CALLDATASIZE SWAP1 PUSH1 0x4 ADD PUSH2 0x16CF JUMP JUMPDEST SWAP1 PUSH1 0x24 CALLDATALOAD PUSH8 0xFFFFFFFFFFFFFFFF DUP2 GT PUSH2 0x99E JUMPI PUSH2 0x109 SWAP1 CALLDATASIZE SWAP1 PUSH1 0x4 ADD PUSH2 0x16CF JUMP JUMPDEST SWAP1 PUSH1 0x44 CALLDATALOAD PUSH8 0xFFFFFFFFFFFFFFFF DUP2 GT PUSH2 0x99E JUMPI PUSH2 0x12A SWAP1 CALLDATASIZE SWAP1 PUSH1 0x4 ADD PUSH2 0x16CF JUMP JUMPDEST SWAP1 SWAP3 PUSH1 0xC4 CALLDATALOAD PUSH8 0xFFFFFFFFFFFFFFFF DUP2 GT PUSH2 0x99E JUMPI PUSH2 0x14C SWAP1 CALLDATASIZE SWAP1 PUSH1 0x4 ADD PUSH2 0x16CF JUMP JUMPDEST SWAP5 SWAP1 SWAP4 PUSH1 0xE4 CALLDATALOAD PUSH8 0xFFFFFFFFFFFFFFFF DUP2 GT PUSH2 0x99E JUMPI PUSH2 0x16F SWAP1 CALLDATASIZE SWAP1 PUSH1 0x4 ADD PUSH2 0x16CF JUMP JUMPDEST SWAP2 SWAP1 SWAP3 PUSH2 0x1A6 PUSH1 0x1 PUSH1 0x1 PUSH1 0xA0 SHL SUB PUSH32 0x0 AND CALLER EQ PUSH2 0x1954 JUMP JUMPDEST PUSH1 0x4 PUSH1 0x40 MLOAD DUP12 DUP12 DUP3 CALLDATACOPY PUSH1 0x0 DUP13 DUP3 ADD MSTORE PUSH1 0x20 DUP2 DUP14 DUP2 ADD SUB ADD SWAP1 KECCAK256 ADD SLOAD PUSH2 0x95A JUMPI DUP10 SWAP6 PUSH2 0x1F3 PUSH2 0x1FF SWAP4 PUSH2 0x24A SWAP8 PUSH2 0x1EA DUP14 PUSH1 0x40 MLOAD SWAP12 PUSH2 0x1E3 DUP14 PUSH2 0x1734 JUMP JUMPDEST CALLDATASIZE SWAP2 PUSH2 0x1773 JUMP JUMPDEST DUP11 MSTORE CALLDATASIZE SWAP2 PUSH2 0x1773 JUMP JUMPDEST PUSH1 0x20 DUP9 ADD MSTORE CALLDATASIZE SWAP2 PUSH2 0x1773 JUMP JUMPDEST PUSH1 0x40 DUP6 ADD MSTORE PUSH1 0x64 CALLDATALOAD PUSH1 0x60 DUP6 ADD MSTORE PUSH1 0x84 CALLDATALOAD PUSH1 0x80 DUP6 ADD MSTORE PUSH1 0xA4 CALLDATALOAD PUSH1 0xA0 DUP6 ADD MSTORE PUSH1 0x1 PUSH1 0xC0 DUP6 ADD MSTORE PUSH1 0x0 PUSH1 0xE0 DUP6 ADD MSTORE PUSH1 0x0 PUSH2 0x100 DUP6 ADD MSTORE PUSH2 0x23D CALLDATASIZE DUP8 DUP8 PUSH2 0x1773 JUMP JUMPDEST PUSH2 0x120 DUP6 ADD MSTORE CALLDATASIZE SWAP2 PUSH2 0x1773 JUMP JUMPDEST PUSH2 0x140 DUP3 ADD MSTORE PUSH1 0x40 MLOAD DUP6 DUP6 DUP3 CALLDATACOPY PUSH1 0x20 DUP2 DUP8 DUP2 ADD PUSH1 0x0 DUP2 MSTORE SUB ADD SWAP1 KECCAK256 SWAP1 DUP1 MLOAD DUP1 MLOAD SWAP1 PUSH8 0xFFFFFFFFFFFFFFFF DUP3 GT PUSH2 0x617 JUMPI DUP2 SWAP1 PUSH2 0x286 DUP6 SLOAD PUSH2 0x184F JUMP JUMPDEST PUSH1 0x1F DUP2 GT PUSH2 0x90A JUMPI JUMPDEST POP PUSH1 0x20 SWAP1 PUSH1 0x1F DUP4 GT PUSH1 0x1 EQ PUSH2 0x89E JUMPI PUSH1 0x0 SWAP3 PUSH2 0x893 JUMPI JUMPDEST POP POP DUP2 PUSH1 0x1 SHL SWAP2 PUSH1 0x0 NOT SWAP1 PUSH1 0x3 SHL SHR NOT AND OR DUP3 SSTORE JUMPDEST PUSH1 0x20 DUP2 ADD MLOAD DUP1 MLOAD SWAP1 PUSH8 0xFFFFFFFFFFFFFFFF DUP3 GT PUSH2 0x617 JUMPI DUP2 SWAP1 PUSH2 0x2E1 PUSH1 0x1 DUP7 ADD SLOAD PUSH2 0x184F JUMP JUMPDEST PUSH1 0x1F DUP2 GT PUSH2 0x840 JUMPI JUMPDEST POP PUSH1 0x20 SWAP1 PUSH1 0x1F DUP4 GT PUSH1 0x1 EQ PUSH2 0x7CE JUMPI PUSH1 0x0 SWAP3 PUSH2 0x7C3 JUMPI JUMPDEST POP POP DUP2 PUSH1 0x1 SHL SWAP2 PUSH1 0x0 NOT SWAP1 PUSH1 0x3 SHL SHR NOT AND OR PUSH1 0x1 DUP4 ADD SSTORE JUMPDEST PUSH1 0x40 DUP2 ADD MLOAD DUP1 MLOAD SWAP1 PUSH8 0xFFFFFFFFFFFFFFFF DUP3 GT PUSH2 0x617 JUMPI DUP2 SWAP1 PUSH2 0x33F PUSH1 0x2 DUP7 ADD SLOAD PUSH2 0x184F JUMP JUMPDEST PUSH1 0x1F DUP2 GT PUSH2 0x770 JUMPI JUMPDEST POP PUSH1 0x20 SWAP1 PUSH1 0x1F DUP4 GT PUSH1 0x1 EQ PUSH2 0x6FE JUMPI PUSH1 0x0 SWAP3 PUSH2 0x6F3 JUMPI JUMPDEST POP POP DUP2 PUSH1 0x1 SHL SWAP2 PUSH1 0x0 NOT SWAP1 PUSH1 0x3 SHL SHR NOT AND OR PUSH1 0x2 DUP4 ADD SSTORE JUMPDEST PUSH1 0x60 DUP2 ADD MLOAD PUSH1 0x3 DUP4 ADD SSTORE PUSH1 0x80 DUP2 ADD MLOAD PUSH1 0x4 DUP4 ADD SSTORE PUSH1 0xA0 DUP2 ADD MLOAD PUSH1 0x5 DUP4 ADD SSTORE PUSH2 0x3E1 PUSH1 0x6 DUP4 ADD PUSH1 0xC0 DUP4 ADD MLOAD ISZERO ISZERO DUP2 SLOAD PUSH1 0xFF PUSH2 0xFF00 PUSH1 0xE0 DUP8 ADD MLOAD ISZERO ISZERO PUSH1 0x8 SHL AND SWAP3 AND SWAP1 PUSH2 0xFFFF NOT AND OR OR DUP2 SSTORE PUSH1 0xFF PUSH2 0x100 DUP5 ADD MLOAD AND PUSH3 0xFF0000 DUP3 SLOAD SWAP2 PUSH1 0x10 SHL AND SWAP1 PUSH3 0xFF0000 NOT AND OR SWAP1 SSTORE JUMP JUMPDEST PUSH2 0x120 DUP2 ADD MLOAD DUP1 MLOAD SWAP1 PUSH8 0xFFFFFFFFFFFFFFFF DUP3 GT PUSH2 0x617 JUMPI PUSH2 0x406 PUSH1 0x7 DUP6 ADD SLOAD PUSH2 0x184F JUMP JUMPDEST PUSH1 0x1F DUP2 GT PUSH2 0x6AC JUMPI JUMPDEST POP PUSH1 0x20 SWAP1 PUSH1 0x1F DUP4 GT PUSH1 0x1 EQ PUSH2 0x638 JUMPI PUSH2 0x140 SWAP4 SWAP3 SWAP2 PUSH1 0x0 SWAP2 DUP4 PUSH2 0x62D JUMPI JUMPDEST POP POP DUP2 PUSH1 0x1 SHL SWAP2 PUSH1 0x0 NOT SWAP1 PUSH1 0x3 SHL SHR NOT AND OR PUSH1 0x7 DUP5 ADD SSTORE JUMPDEST ADD MLOAD DUP1 MLOAD SWAP1 PUSH8 0xFFFFFFFFFFFFFFFF DUP3 GT PUSH2 0x617 JUMPI PUSH2 0x466 PUSH1 0x8 DUP5 ADD SLOAD PUSH2 0x184F JUMP JUMPDEST PUSH1 0x1F DUP2 GT PUSH2 0x5CC JUMPI JUMPDEST POP PUSH1 0x20 SWAP1 PUSH1 0x1F DUP4 GT PUSH1 0x1 EQ PUSH2 0x55E JUMPI PUSH1 0x8 SWAP3 SWAP2 PUSH1 0x0 SWAP2 DUP4 PUSH2 0x553 JUMPI JUMPDEST POP POP DUP2 PUSH1 0x1 SHL SWAP2 PUSH1 0x0 NOT SWAP1 PUSH1 0x3 SHL SHR NOT AND OR SWAP2 ADD SSTORE JUMPDEST PUSH1 0x1 SLOAD SWAP1 PUSH1 0x0 NOT DUP3 EQ PUSH2 0x53D JUMPI PUSH1 0x1 PUSH32 0x57CE3030B25E873CC2900F490AC3D24D068E7C280F934F8A29D540155038472E SWAP3 ADD PUSH1 0x1 SSTORE PUSH1 0x40 MLOAD DUP6 DUP6 DUP3 CALLDATACOPY DUP1 DUP7 DUP2 ADD PUSH1 0x0 DUP2 MSTORE SUB SWAP1 KECCAK256 SWAP3 PUSH2 0x4FC PUSH1 0x40 MLOAD SWAP3 DUP4 SWAP3 PUSH1 0x64 CALLDATALOAD SWAP2 DUP5 PUSH2 0x19C5 JUMP JUMPDEST SUB SWAP1 LOG2 DUP2 PUSH1 0x40 MLOAD SWAP3 DUP4 SWAP3 DUP4 CALLDATACOPY DUP2 ADD PUSH1 0x0 DUP2 MSTORE SUB SWAP1 KECCAK256 PUSH32 0x250CBEE58B321813116D5B3523C84B813EAA55482958E914517B1DDFBBEEA62A PUSH1 0x20 PUSH1 0x40 MLOAD TIMESTAMP DUP2 MSTORE LOG2 STOP JUMPDEST PUSH4 0x4E487B71 PUSH1 0xE0 SHL PUSH1 0x0 MSTORE PUSH1 0x11 PUSH1 0x4 MSTORE PUSH1 0x24 PUSH1 0x0 REVERT JUMPDEST ADD MLOAD SWAP1 POP CODESIZE DUP1 PUSH2 0x48B JUMP JUMPDEST SWAP1 PUSH1 0x1F NOT DUP4 AND SWAP2 PUSH1 0x8 DUP6 ADD PUSH1 0x0 MSTORE PUSH1 0x20 PUSH1 0x0 KECCAK256 SWAP3 PUSH1 0x0 JUMPDEST DUP2 DUP2 LT PUSH2 0x5B4 JUMPI POP SWAP2 PUSH1 0x1 SWAP4 SWAP2 DUP6 PUSH1 0x8 SWAP7 SWAP5 LT PUSH2 0x59B JUMPI JUMPDEST POP POP POP DUP2 SHL ADD SWAP2 ADD SSTORE PUSH2 0x4A1 JUMP JUMPDEST ADD MLOAD PUSH1 0x0 NOT PUSH1 0xF8 DUP5 PUSH1 0x3 SHL AND SHR NOT AND SWAP1 SSTORE CODESIZE DUP1 DUP1 PUSH2 0x58D JUMP JUMPDEST SWAP3 SWAP4 PUSH1 0x20 PUSH1 0x1 DUP2 SWAP3 DUP8 DUP7 ADD MLOAD DUP2 SSTORE ADD SWAP6 ADD SWAP4 ADD PUSH2 0x575 JUMP JUMPDEST PUSH1 0x8 DUP5 ADD PUSH1 0x0 MSTORE PUSH1 0x20 PUSH1 0x0 KECCAK256 PUSH1 0x1F DUP5 ADD PUSH1 0x5 SHR DUP2 ADD SWAP2 PUSH1 0x20 DUP6 LT PUSH2 0x60D JUMPI JUMPDEST PUSH1 0x1F ADD PUSH1 0x5 SHR ADD SWAP1 JUMPDEST DUP2 DUP2 LT PUSH2 0x601 JUMPI POP PUSH2 0x46F JUMP JUMPDEST PUSH1 0x0 DUP2 SSTORE PUSH1 0x1 ADD PUSH2 0x5F4 JUMP JUMPDEST SWAP1 SWAP2 POP DUP2 SWAP1 PUSH2 0x5EB JUMP JUMPDEST PUSH4 0x4E487B71 PUSH1 0xE0 SHL PUSH1 0x0 MSTORE PUSH1 0x41 PUSH1 0x4 MSTORE PUSH1 0x24 PUSH1 0x0 REVERT JUMPDEST ADD MLOAD SWAP1 POP CODESIZE DUP1 PUSH2 0x42D JUMP JUMPDEST SWAP1 PUSH1 0x7 DUP6 ADD PUSH1 0x0 MSTORE PUSH1 0x20 PUSH1 0x0 KECCAK256 SWAP2 PUSH1 0x0 JUMPDEST PUSH1 0x1F NOT DUP6 AND DUP2 LT PUSH2 0x694 JUMPI POP SWAP2 DUP4 SWAP2 PUSH1 0x1 SWAP4 PUSH2 0x140 SWAP7 SWAP6 PUSH1 0x1F NOT DUP2 AND LT PUSH2 0x67B JUMPI JUMPDEST POP POP POP DUP2 SHL ADD PUSH1 0x7 DUP5 ADD SSTORE PUSH2 0x445 JUMP JUMPDEST ADD MLOAD PUSH1 0x0 NOT PUSH1 0xF8 DUP5 PUSH1 0x3 SHL AND SHR NOT AND SWAP1 SSTORE CODESIZE DUP1 DUP1 PUSH2 0x66B JUMP JUMPDEST SWAP2 SWAP3 PUSH1 0x20 PUSH1 0x1 DUP2 SWAP3 DUP7 DUP6 ADD MLOAD DUP2 SSTORE ADD SWAP5 ADD SWAP3 ADD PUSH2 0x649 JUMP JUMPDEST PUSH1 0x7 DUP6 ADD PUSH1 0x0 MSTORE PUSH1 0x20 PUSH1 0x0 KECCAK256 PUSH1 0x1F DUP5 ADD PUSH1 0x5 SHR DUP2 ADD PUSH1 0x20 DUP6 LT PUSH2 0x6EC JUMPI JUMPDEST PUSH1 0x1F DUP4 ADD PUSH1 0x5 SHR DUP3 ADD DUP2 LT PUSH2 0x6E0 JUMPI POP POP PUSH2 0x40F JUMP JUMPDEST PUSH1 0x0 DUP2 SSTORE PUSH1 0x1 ADD PUSH2 0x6CA JUMP JUMPDEST POP DUP1 PUSH2 0x6CA JUMP JUMPDEST ADD MLOAD SWAP1 POP CODESIZE DUP1 PUSH2 0x35F JUMP JUMPDEST SWAP3 POP PUSH1 0x2 DUP6 ADD PUSH1 0x0 MSTORE PUSH1 0x20 PUSH1 0x0 KECCAK256 SWAP1 PUSH1 0x0 SWAP4 JUMPDEST PUSH1 0x1F NOT DUP5 AND DUP6 LT PUSH2 0x755 JUMPI PUSH1 0x1 SWAP5 POP DUP4 PUSH1 0x1F NOT DUP2 AND LT PUSH2 0x73C JUMPI JUMPDEST POP POP POP DUP2 SHL ADD PUSH1 0x2 DUP4 ADD SSTORE PUSH2 0x377 JUMP JUMPDEST ADD MLOAD PUSH1 0x0 NOT PUSH1 0xF8 DUP5 PUSH1 0x3 SHL AND SHR NOT AND SWAP1 SSTORE CODESIZE DUP1 DUP1 PUSH2 0x72C JUMP JUMPDEST DUP2 DUP2 ADD MLOAD DUP4 SSTORE PUSH1 0x20 SWAP5 DUP6 ADD SWAP5 PUSH1 0x1 SWAP1 SWAP4 ADD SWAP3 SWAP1 SWAP2 ADD SWAP1 PUSH2 0x711 JUMP JUMPDEST SWAP1 SWAP2 POP PUSH1 0x2 DUP6 ADD PUSH1 0x0 MSTORE PUSH1 0x20 PUSH1 0x0 KECCAK256 PUSH1 0x1F DUP5 ADD PUSH1 0x5 SHR DUP2 ADD PUSH1 0x20 DUP6 LT PUSH2 0x7BC JUMPI JUMPDEST SWAP1 DUP5 SWAP4 SWAP3 SWAP2 JUMPDEST PUSH1 0x1F DUP4 ADD PUSH1 0x5 SHR DUP3 ADD DUP2 LT PUSH2 0x7AD JUMPI POP POP PUSH2 0x348 JUMP JUMPDEST PUSH1 0x0 DUP2 SSTORE DUP6 SWAP5 POP PUSH1 0x1 ADD PUSH2 0x797 JUMP JUMPDEST POP DUP1 PUSH2 0x791 JUMP JUMPDEST ADD MLOAD SWAP1 POP CODESIZE DUP1 PUSH2 0x301 JUMP JUMPDEST SWAP3 POP PUSH1 0x1 DUP6 ADD PUSH1 0x0 MSTORE PUSH1 0x20 PUSH1 0x0 KECCAK256 SWAP1 PUSH1 0x0 SWAP4 JUMPDEST PUSH1 0x1F NOT DUP5 AND DUP6 LT PUSH2 0x825 JUMPI PUSH1 0x1 SWAP5 POP DUP4 PUSH1 0x1F NOT DUP2 AND LT PUSH2 0x80C JUMPI JUMPDEST POP POP POP DUP2 SHL ADD PUSH1 0x1 DUP4 ADD SSTORE PUSH2 0x319 JUMP JUMPDEST ADD MLOAD PUSH1 0x0 NOT PUSH1 0xF8 DUP5 PUSH1 0x3 SHL AND SHR NOT AND SWAP1 SSTORE CODESIZE DUP1 DUP1 PUSH2 0x7FC JUMP JUMPDEST DUP2 DUP2 ADD MLOAD DUP4 SSTORE PUSH1 0x20 SWAP5 DUP6 ADD SWAP5 PUSH1 0x1 SWAP1 SWAP4 ADD SWAP3 SWAP1 SWAP2 ADD SWAP1 PUSH2 0x7E1 JUMP JUMPDEST SWAP1 SWAP2 POP PUSH1 0x1 DUP6 ADD PUSH1 0x0 MSTORE PUSH1 0x20 PUSH1 0x0 KECCAK256 PUSH1 0x1F DUP5 ADD PUSH1 0x5 SHR DUP2 ADD PUSH1 0x20 DUP6 LT PUSH2 0x88C JUMPI JUMPDEST SWAP1 DUP5 SWAP4 SWAP3 SWAP2 JUMPDEST PUSH1 0x1F DUP4 ADD PUSH1 0x5 SHR DUP3 ADD DUP2 LT PUSH2 0x87D JUMPI POP POP PUSH2 0x2EA JUMP JUMPDEST PUSH1 0x0 DUP2 SSTORE DUP6 SWAP5 POP PUSH1 0x1 ADD PUSH2 0x867 JUMP JUMPDEST POP DUP1 PUSH2 0x861 JUMP JUMPDEST ADD MLOAD SWAP1 POP CODESIZE DUP1 PUSH2 0x2A6 JUMP JUMPDEST SWAP3 POP DUP5 PUSH1 0x0 MSTORE PUSH1 0x20 PUSH1 0x0 KECCAK256 SWAP1 PUSH1 0x0 SWAP4 JUMPDEST PUSH1 0x1F NOT DUP5 AND DUP6 LT PUSH2 0x8EF JUMPI PUSH1 0x1 SWAP5 POP DUP4 PUSH1 0x1F NOT DUP2 AND LT PUSH2 0x8D6 JUMPI JUMPDEST POP POP POP DUP2 SHL ADD DUP3 SSTORE PUSH2 0x2BB JUMP JUMPDEST ADD MLOAD PUSH1 0x0 NOT PUSH1 0xF8 DUP5 PUSH1 0x3 SHL AND SHR NOT AND SWAP1 SSTORE CODESIZE DUP1 DUP1 PUSH2 0x8C9 JUMP JUMPDEST DUP2 DUP2 ADD MLOAD DUP4 SSTORE PUSH1 0x20 SWAP5 DUP6 ADD SWAP5 PUSH1 0x1 SWAP1 SWAP4 ADD SWAP3 SWAP1 SWAP2 ADD SWAP1 PUSH2 0x8AE JUMP JUMPDEST SWAP1 SWAP2 POP DUP5 PUSH1 0x0 MSTORE PUSH1 0x20 PUSH1 0x0 KECCAK256 PUSH1 0x1F DUP5 ADD PUSH1 0x5 SHR DUP2 ADD PUSH1 0x20 DUP6 LT PUSH2 0x953 JUMPI JUMPDEST SWAP1 DUP5 SWAP4 SWAP3 SWAP2 JUMPDEST PUSH1 0x1F DUP4 ADD PUSH1 0x5 SHR DUP3 ADD DUP2 LT PUSH2 0x944 JUMPI POP POP PUSH2 0x28F JUMP JUMPDEST PUSH1 0x0 DUP2 SSTORE DUP6 SWAP5 POP PUSH1 0x1 ADD PUSH2 0x92E JUMP JUMPDEST POP DUP1 PUSH2 0x928 JUMP JUMPDEST PUSH1 0x64 PUSH1 0x40 MLOAD PUSH3 0x461BCD PUSH1 0xE5 SHL DUP2 MSTORE PUSH1 0x20 PUSH1 0x4 DUP3 ADD MSTORE PUSH1 0x1D PUSH1 0x24 DUP3 ADD MSTORE PUSH32 0x4C61207265736572766120796120657869737465206F6E2D636861696E000000 PUSH1 0x44 DUP3 ADD MSTORE REVERT JUMPDEST PUSH1 0x0 DUP1 REVERT JUMPDEST CALLVALUE PUSH2 0x99E JUMPI PUSH2 0x9B1 CALLDATASIZE PUSH2 0x16FD JUMP JUMPDEST SWAP3 SWAP2 SWAP1 PUSH2 0x9E8 PUSH1 0x1 PUSH1 0x1 PUSH1 0xA0 SHL SUB PUSH32 0x0 AND CALLER EQ PUSH2 0x1954 JUMP JUMPDEST PUSH1 0x40 MLOAD DUP3 DUP5 DUP3 CALLDATACOPY PUSH1 0x20 DUP2 DUP5 DUP2 ADD PUSH1 0x0 DUP2 MSTORE SUB ADD SWAP1 KECCAK256 PUSH1 0xFF PUSH1 0x6 DUP3 ADD SLOAD AND ISZERO PUSH2 0xA81 JUMPI DUP1 DUP6 PUSH1 0x3 PUSH1 0x5 SWAP4 ADD SSTORE ADD SWAP2 DUP3 SLOAD SWAP4 PUSH1 0x3C DUP4 MUL SWAP4 DUP4 DUP6 DIV PUSH1 0x3C EQ DUP5 ISZERO OR ISZERO PUSH2 0x53D JUMPI PUSH2 0xA58 PUSH1 0x60 SWAP6 PUSH32 0x95A77F02E9079398F3B4F7D6D4DA8B13327AD5E2A93E298F6BAB249AEABB0EA8 SWAP8 PUSH2 0x19F4 JUMP JUMPDEST SWAP1 SSTORE DUP2 PUSH1 0x40 MLOAD SWAP3 DUP4 SWAP3 DUP4 CALLDATACOPY DUP2 ADD PUSH1 0x0 DUP2 MSTORE SUB SWAP1 KECCAK256 SWAP4 PUSH1 0x40 MLOAD SWAP2 DUP3 MSTORE PUSH1 0x20 DUP3 ADD MSTORE TIMESTAMP PUSH1 0x40 DUP3 ADD MSTORE LOG2 STOP JUMPDEST PUSH1 0x84 PUSH1 0x40 MLOAD PUSH3 0x461BCD PUSH1 0xE5 SHL DUP2 MSTORE PUSH1 0x20 PUSH1 0x4 DUP3 ADD MSTORE PUSH1 0x28 PUSH1 0x24 DUP3 ADD MSTORE PUSH32 0x52657365727661206E6F20616374697661202D206E6F20736520707565646520 PUSH1 0x44 DUP3 ADD MSTORE PUSH32 0x657874656E646572000000000000000000000000000000000000000000000000 PUSH1 0x64 DUP3 ADD MSTORE REVERT JUMPDEST CALLVALUE PUSH2 0x99E JUMPI PUSH1 0x0 CALLDATASIZE PUSH1 0x3 NOT ADD SLT PUSH2 0x99E JUMPI PUSH1 0x20 PUSH1 0x1 SLOAD PUSH1 0x40 MLOAD SWAP1 DUP2 MSTORE RETURN JUMPDEST CALLVALUE PUSH2 0x99E JUMPI PUSH1 0x20 CALLDATASIZE PUSH1 0x3 NOT ADD SLT PUSH2 0x99E JUMPI PUSH1 0x4 CALLDATALOAD PUSH8 0xFFFFFFFFFFFFFFFF DUP2 GT PUSH2 0x99E JUMPI PUSH1 0x20 PUSH2 0xB3F PUSH2 0xD13 SWAP3 CALLDATASIZE SWAP1 PUSH1 0x4 ADD PUSH2 0x16CF JUMP JUMPDEST SWAP2 SWAP1 PUSH1 0x60 PUSH2 0x140 PUSH1 0x40 MLOAD PUSH2 0xB52 DUP2 PUSH2 0x1734 JUMP JUMPDEST DUP3 DUP2 MSTORE DUP3 DUP6 DUP3 ADD MSTORE DUP3 PUSH1 0x40 DUP3 ADD MSTORE PUSH1 0x0 DUP4 DUP3 ADD MSTORE PUSH1 0x0 PUSH1 0x80 DUP3 ADD MSTORE PUSH1 0x0 PUSH1 0xA0 DUP3 ADD MSTORE PUSH1 0x0 PUSH1 0xC0 DUP3 ADD MSTORE PUSH1 0x0 PUSH1 0xE0 DUP3 ADD MSTORE PUSH1 0x0 PUSH2 0x100 DUP3 ADD MSTORE DUP3 PUSH2 0x120 DUP3 ADD MSTORE ADD MSTORE DUP3 PUSH1 0x40 MLOAD SWAP4 DUP5 SWAP3 DUP4 CALLDATACOPY DUP2 ADD PUSH1 0x0 DUP2 MSTORE SUB ADD SWAP1 KECCAK256 PUSH2 0xC42 PUSH1 0x8 PUSH1 0x40 MLOAD SWAP3 PUSH2 0xBB8 DUP5 PUSH2 0x1734 JUMP JUMPDEST PUSH2 0xBC1 DUP2 PUSH2 0x1889 JUMP JUMPDEST DUP5 MSTORE PUSH2 0xBCF PUSH1 0x1 DUP3 ADD PUSH2 0x1889 JUMP JUMPDEST PUSH1 0x20 DUP6 ADD MSTORE PUSH2 0xBE0 PUSH1 0x2 DUP3 ADD PUSH2 0x1889 JUMP JUMPDEST PUSH1 0x40 DUP6 ADD MSTORE PUSH1 0x3 DUP2 ADD SLOAD PUSH1 0x60 DUP6 ADD MSTORE PUSH1 0x4 DUP2 ADD SLOAD PUSH1 0x80 DUP6 ADD MSTORE PUSH1 0x5 DUP2 ADD SLOAD PUSH1 0xA0 DUP6 ADD MSTORE PUSH1 0xFF PUSH1 0x6 DUP3 ADD SLOAD DUP2 DUP2 AND ISZERO ISZERO PUSH1 0xC0 DUP8 ADD MSTORE DUP2 DUP2 DUP6 SHR AND ISZERO ISZERO PUSH1 0xE0 DUP8 ADD MSTORE PUSH1 0x10 SHR AND PUSH2 0x100 DUP6 ADD MSTORE PUSH2 0xC36 PUSH1 0x7 DUP3 ADD PUSH2 0x1889 JUMP JUMPDEST PUSH2 0x120 DUP6 ADD MSTORE ADD PUSH2 0x1889 JUMP JUMPDEST PUSH2 0x140 DUP3 ADD MSTORE PUSH1 0x40 MLOAD SWAP2 DUP3 SWAP2 PUSH1 0x20 DUP4 MSTORE PUSH2 0x140 PUSH2 0xCFE PUSH2 0xCA2 PUSH2 0xC8C PUSH2 0xC76 DUP6 MLOAD PUSH2 0x160 PUSH1 0x20 DUP11 ADD MSTORE PUSH2 0x180 DUP10 ADD SWAP1 PUSH2 0x192F JUMP JUMPDEST PUSH1 0x20 DUP7 ADD MLOAD DUP9 DUP3 SUB PUSH1 0x1F NOT ADD PUSH1 0x40 DUP11 ADD MSTORE PUSH2 0x192F JUMP JUMPDEST PUSH1 0x40 DUP6 ADD MLOAD DUP8 DUP3 SUB PUSH1 0x1F NOT ADD PUSH1 0x60 DUP10 ADD MSTORE PUSH2 0x192F JUMP JUMPDEST PUSH1 0x60 DUP5 ADD MLOAD PUSH1 0x80 DUP8 ADD MSTORE PUSH1 0x80 DUP5 ADD MLOAD PUSH1 0xA0 DUP8 ADD MSTORE PUSH1 0xA0 DUP5 ADD MLOAD PUSH1 0xC0 DUP8 ADD MSTORE PUSH1 0xC0 DUP5 ADD MLOAD ISZERO ISZERO PUSH1 0xE0 DUP8 ADD MSTORE PUSH1 0xE0 DUP5 ADD MLOAD ISZERO ISZERO PUSH2 0x100 DUP8 ADD MSTORE PUSH1 0xFF PUSH2 0x100 DUP6 ADD MLOAD AND PUSH2 0x120 DUP8 ADD MSTORE PUSH2 0x120 DUP5 ADD MLOAD PUSH1 0x1F NOT DUP8 DUP4 SUB ADD DUP5 DUP9 ADD MSTORE PUSH2 0x192F JUMP JUMPDEST SWAP2 ADD MLOAD DUP4 DUP3 SUB PUSH1 0x1F NOT ADD PUSH2 0x160 DUP6 ADD MSTORE PUSH2 0x192F JUMP JUMPDEST SUB SWAP1 RETURN JUMPDEST CALLVALUE PUSH2 0x99E JUMPI PUSH1 0x40 CALLDATASIZE PUSH1 0x3 NOT ADD SLT PUSH2 0x99E JUMPI PUSH1 0x4 CALLDATALOAD PUSH8 0xFFFFFFFFFFFFFFFF DUP2 GT PUSH2 0x99E JUMPI PUSH2 0xD48 SWAP1 CALLDATASIZE SWAP1 PUSH1 0x4 ADD PUSH2 0x16CF JUMP JUMPDEST SWAP1 PUSH1 0x24 SWAP2 DUP3 CALLDATALOAD SWAP2 PUSH1 0xFF DUP4 AND SWAP3 DUP4 DUP2 SUB PUSH2 0x99E JUMPI PUSH2 0xD8F PUSH1 0x1 PUSH1 0x1 PUSH1 0xA0 SHL SUB PUSH32 0x0 AND CALLER EQ PUSH2 0x1954 JUMP JUMPDEST PUSH1 0x40 MLOAD SWAP5 DUP4 DUP4 DUP8 CALLDATACOPY DUP6 DUP5 DUP2 ADD PUSH1 0x0 DUP2 MSTORE PUSH1 0x20 SWAP8 DUP9 SWAP2 SUB ADD SWAP1 KECCAK256 PUSH1 0x6 DUP2 ADD SWAP3 DUP4 SLOAD SWAP4 PUSH1 0xFF DUP6 AND ISZERO PUSH2 0x1026 JUMPI PUSH1 0xFF DUP6 PUSH1 0x8 SHR AND PUSH2 0xFE3 JUMPI PUSH1 0x1 SWAP5 DUP6 DUP10 LT ISZERO DUP1 PUSH2 0xFD8 JUMPI JUMPDEST ISZERO PUSH2 0xF70 JUMPI PUSH3 0xFFFFFF NOT AND PUSH1 0x10 SWAP3 SWAP1 SWAP3 SHL PUSH3 0xFF0000 AND SWAP2 SWAP1 SWAP2 OR PUSH2 0x100 OR SWAP1 SSTORE PUSH1 0x2 ADD PUSH1 0x40 MLOAD DUP8 DUP2 PUSH1 0x0 DUP5 SLOAD PUSH2 0xE06 DUP2 PUSH2 0x184F JUMP JUMPDEST SWAP1 DUP9 DUP2 AND SWAP1 DUP2 ISZERO PUSH2 0xF5B JUMPI POP PUSH1 0x1 EQ PUSH2 0xF20 JUMPI JUMPDEST POP PUSH1 0x2 DUP2 MSTORE SUB ADD SWAP1 KECCAK256 PUSH2 0xE2E DUP8 DUP3 SLOAD PUSH2 0x19F4 JUMP JUMPDEST SWAP1 SSTORE DUP7 PUSH1 0x40 MLOAD DUP1 SWAP3 PUSH1 0x0 SWAP1 DUP1 SLOAD SWAP1 PUSH2 0xE45 DUP3 PUSH2 0x184F JUMP JUMPDEST SWAP2 DUP9 DUP2 AND SWAP1 DUP2 ISZERO PUSH2 0xF09 JUMPI POP PUSH1 0x1 EQ PUSH2 0xECD JUMPI JUMPDEST POP POP PUSH1 0x3 DUP2 MSTORE SUB ADD SWAP1 KECCAK256 SWAP1 DUP2 SLOAD SWAP3 DUP4 ADD DUP1 SWAP4 GT PUSH2 0xEB9 JUMPI POP SWAP2 PUSH1 0x40 SWAP4 SWAP2 PUSH32 0x720FAC15AD95E7E15D4B7D8E3F33218D270EA09A1DCBB4886720C63D1A509A64 SWAP6 SWAP4 SSTORE DUP2 DUP5 MLOAD SWAP3 DUP4 SWAP3 DUP4 CALLDATACOPY DUP2 ADD PUSH1 0x0 DUP2 MSTORE SUB SWAP1 KECCAK256 SWAP4 DUP3 MLOAD SWAP2 DUP3 MSTORE TIMESTAMP SWAP1 DUP3 ADD MSTORE LOG2 STOP JUMPDEST PUSH4 0x4E487B71 PUSH1 0xE0 SHL PUSH1 0x0 MSTORE PUSH1 0x11 PUSH1 0x4 MSTORE PUSH1 0x0 REVERT JUMPDEST SWAP1 SWAP2 POP PUSH1 0x0 MSTORE DUP3 PUSH1 0x0 KECCAK256 DUP4 DUP8 PUSH1 0x0 SWAP3 JUMPDEST DUP5 DUP5 LT PUSH2 0xEF1 JUMPI POP POP POP POP DUP2 ADD DUP11 DUP1 PUSH2 0xE59 JUMP JUMPDEST DUP1 SLOAD DUP9 DUP6 ADD MSTORE DUP8 SWAP6 POP SWAP3 SWAP1 SWAP2 ADD SWAP2 DUP6 SWAP2 DUP10 SWAP2 ADD PUSH2 0xEDD JUMP JUMPDEST PUSH1 0xFF NOT AND DUP6 MSTORE POP POP DUP1 ISZERO ISZERO MUL DUP3 ADD SWAP1 POP DUP11 DUP1 PUSH2 0xE59 JUMP JUMPDEST SWAP1 POP DUP5 PUSH1 0x0 MSTORE DUP3 PUSH1 0x0 KECCAK256 DUP4 DUP9 PUSH1 0x0 SWAP3 JUMPDEST DUP5 DUP5 LT PUSH2 0xF43 JUMPI POP POP POP POP DUP2 ADD DUP12 PUSH2 0xE1A JUMP JUMPDEST DUP1 SLOAD DUP9 DUP6 ADD MSTORE DUP8 SWAP6 POP SWAP3 SWAP1 SWAP2 ADD SWAP2 DUP6 SWAP2 DUP11 SWAP2 ADD PUSH2 0xF30 JUMP JUMPDEST PUSH1 0xFF NOT AND DUP5 MSTORE POP DUP1 ISZERO ISZERO MUL DUP3 ADD SWAP1 POP DUP12 PUSH2 0xE1A JUMP JUMPDEST PUSH1 0x84 DUP11 DUP7 PUSH1 0x40 MLOAD SWAP2 PUSH3 0x461BCD PUSH1 0xE5 SHL DUP4 MSTORE PUSH1 0x4 DUP4 ADD MSTORE DUP1 DUP3 ADD MSTORE PUSH32 0x4C612063616C696669636163696F6E20646562652073657220656E7472652031 PUSH1 0x44 DUP3 ADD MSTORE PUSH32 0x2079203500000000000000000000000000000000000000000000000000000000 PUSH1 0x64 DUP3 ADD MSTORE REVERT JUMPDEST POP PUSH1 0x5 DUP10 GT ISZERO PUSH2 0xDD1 JUMP JUMPDEST PUSH1 0x64 DUP10 PUSH1 0x1F DUP7 PUSH1 0x40 MLOAD SWAP3 PUSH3 0x461BCD PUSH1 0xE5 SHL DUP5 MSTORE PUSH1 0x4 DUP5 ADD MSTORE DUP3 ADD MSTORE PUSH32 0x59612065737461206D61726361646120636F6D6F20636F6D706C657461646100 PUSH1 0x44 DUP3 ADD MSTORE REVERT JUMPDEST PUSH1 0x84 DUP10 PUSH1 0x21 DUP7 PUSH1 0x40 MLOAD SWAP3 PUSH3 0x461BCD PUSH1 0xE5 SHL DUP5 MSTORE PUSH1 0x4 DUP5 ADD MSTORE DUP3 ADD MSTORE PUSH32 0x52657365727661206E6F20616374697661206F2079612066696E616C697A6164 PUSH1 0x44 DUP3 ADD MSTORE PUSH32 0x6100000000000000000000000000000000000000000000000000000000000000 PUSH1 0x64 DUP3 ADD MSTORE REVERT JUMPDEST CALLVALUE PUSH2 0x99E JUMPI PUSH1 0x0 CALLDATASIZE PUSH1 0x3 NOT ADD SLT PUSH2 0x99E JUMPI PUSH1 0x20 PUSH1 0x40 MLOAD PUSH1 0x1 PUSH1 0x1 PUSH1 0xA0 SHL SUB PUSH32 0x0 AND DUP2 MSTORE RETURN JUMPDEST CALLVALUE PUSH2 0x99E JUMPI PUSH1 0xC0 PUSH32 0xB82E131FCFA5EE5AABC35F0DAFC55B7DEE8BEB0EBE72709B787A4F481D2040BA PUSH2 0x1104 CALLDATASIZE PUSH2 0x181C JUMP JUMPDEST SWAP4 SWAP2 PUSH2 0x113A PUSH1 0x1 PUSH1 0x1 PUSH1 0xA0 SHL SUB PUSH32 0x0 AND CALLER EQ PUSH2 0x1954 JUMP JUMPDEST PUSH1 0x6 PUSH1 0x40 MLOAD DUP4 DUP4 DUP3 CALLDATACOPY PUSH1 0x20 DUP2 DUP6 DUP2 ADD PUSH1 0x0 DUP2 MSTORE SUB ADD SWAP1 KECCAK256 ADD DUP1 SLOAD PUSH2 0x1160 PUSH1 0xFF DUP3 AND PUSH2 0x1A01 JUMP JUMPDEST PUSH1 0xFF NOT AND SWAP1 SSTORE DUP2 PUSH1 0x40 MLOAD SWAP3 DUP4 SWAP3 DUP4 CALLDATACOPY DUP2 ADD PUSH1 0x0 DUP2 MSTORE SUB SWAP1 KECCAK256 SWAP3 PUSH1 0x40 MLOAD SWAP1 PUSH1 0x80 DUP3 MSTORE PUSH1 0xE PUSH1 0x80 DUP4 ADD MSTORE PUSH32 0x4341524547495645525F57494E53000000000000000000000000000000000000 PUSH1 0xA0 DUP4 ADD MSTORE PUSH1 0x20 DUP3 ADD MSTORE PUSH1 0x0 PUSH1 0x40 DUP3 ADD MSTORE TIMESTAMP PUSH1 0x60 DUP3 ADD MSTORE LOG2 STOP JUMPDEST CALLVALUE PUSH2 0x99E JUMPI PUSH1 0x40 CALLDATASIZE PUSH1 0x3 NOT ADD SLT PUSH2 0x99E JUMPI PUSH8 0xFFFFFFFFFFFFFFFF PUSH1 0x4 CALLDATALOAD DUP2 DUP2 GT PUSH2 0x99E JUMPI PUSH2 0x11F5 SWAP1 CALLDATASIZE SWAP1 PUSH1 0x4 ADD PUSH2 0x16CF JUMP JUMPDEST SWAP2 PUSH1 0x24 CALLDATALOAD SWAP1 DUP2 GT PUSH2 0x99E JUMPI PUSH2 0x120E SWAP1 CALLDATASIZE SWAP1 PUSH1 0x4 ADD PUSH2 0x16CF JUMP JUMPDEST SWAP3 PUSH2 0x1243 PUSH1 0x1 PUSH1 0x1 PUSH1 0xA0 SHL SUB PUSH32 0x0 AND CALLER EQ PUSH2 0x1954 JUMP JUMPDEST PUSH1 0x6 PUSH1 0x40 MLOAD DUP3 DUP6 DUP3 CALLDATACOPY PUSH1 0x20 DUP2 DUP5 DUP2 ADD PUSH1 0x0 DUP2 MSTORE SUB ADD SWAP1 KECCAK256 ADD SWAP3 DUP4 SLOAD SWAP4 PUSH1 0xFF DUP6 AND ISZERO PUSH2 0x12B9 JUMPI PUSH32 0xC480801D2BB33EAF2FFBF8AD31A3555CB09EB6FECB6DD73536303055807FD286 SWAP5 PUSH1 0xFF NOT AND SWAP1 SSTORE DUP2 PUSH1 0x40 MLOAD SWAP3 DUP4 SWAP3 DUP4 CALLDATACOPY DUP2 ADD PUSH1 0x0 DUP2 MSTORE SUB SWAP1 KECCAK256 SWAP3 PUSH2 0x12B4 PUSH1 0x40 MLOAD SWAP3 DUP4 SWAP3 TIMESTAMP SWAP2 DUP5 PUSH2 0x19C5 JUMP JUMPDEST SUB SWAP1 LOG2 STOP JUMPDEST PUSH1 0x84 PUSH1 0x40 MLOAD PUSH3 0x461BCD PUSH1 0xE5 SHL DUP2 MSTORE PUSH1 0x20 PUSH1 0x4 DUP3 ADD MSTORE PUSH1 0x36 PUSH1 0x24 DUP3 ADD MSTORE PUSH32 0x4E6F2073652070756564652063616E63656C617220756E612072657365727661 PUSH1 0x44 DUP3 ADD MSTORE PUSH32 0x20696E616374697661206F2066696E616C697A61646100000000000000000000 PUSH1 0x64 DUP3 ADD MSTORE REVERT JUMPDEST CALLVALUE PUSH2 0x99E JUMPI PUSH2 0x1349 PUSH1 0x20 PUSH2 0x1336 CALLDATASIZE PUSH2 0x17BA JUMP JUMPDEST DUP2 PUSH1 0x40 MLOAD SWAP4 DUP3 DUP6 DUP1 SWAP5 MLOAD SWAP4 DUP5 SWAP3 ADD PUSH2 0x17F9 JUMP JUMPDEST DUP2 ADD PUSH1 0x0 DUP2 MSTORE SUB ADD SWAP1 KECCAK256 PUSH2 0x13CD PUSH2 0xD13 PUSH2 0x1362 DUP4 PUSH2 0x1889 JUMP JUMPDEST PUSH2 0x1428 PUSH2 0x1371 PUSH1 0x1 DUP7 ADD PUSH2 0x1889 JUMP JUMPDEST SWAP5 PUSH2 0x137E PUSH1 0x2 DUP3 ADD PUSH2 0x1889 JUMP JUMPDEST SWAP1 PUSH1 0xFF PUSH1 0x3 DUP3 ADD SLOAD SWAP3 PUSH1 0x4 DUP4 ADD SLOAD PUSH1 0x5 DUP5 ADD SLOAD SWAP1 PUSH2 0x13E9 PUSH1 0x6 DUP7 ADD SLOAD SWAP4 PUSH2 0x13DB PUSH2 0x13B6 PUSH1 0x8 PUSH2 0x13AF PUSH1 0x7 DUP12 ADD PUSH2 0x1889 JUMP JUMPDEST SWAP10 ADD PUSH2 0x1889 JUMP JUMPDEST SWAP11 PUSH1 0x40 MLOAD SWAP15 DUP16 SWAP15 DUP16 SWAP3 PUSH2 0x160 DUP1 DUP6 MSTORE DUP5 ADD SWAP1 PUSH2 0x192F JUMP JUMPDEST SWAP2 PUSH1 0x20 DUP2 DUP5 SUB SWAP2 ADD MSTORE PUSH2 0x192F JUMP JUMPDEST DUP13 DUP2 SUB PUSH1 0x40 DUP15 ADD MSTORE SWAP1 PUSH2 0x192F JUMP JUMPDEST SWAP6 PUSH1 0x60 DUP12 ADD MSTORE PUSH1 0x80 DUP11 ADD MSTORE PUSH1 0xA0 DUP10 ADD MSTORE DUP2 DUP2 AND ISZERO ISZERO PUSH1 0xC0 DUP10 ADD MSTORE DUP2 DUP2 PUSH1 0x8 SHR AND ISZERO ISZERO PUSH1 0xE0 DUP10 ADD MSTORE PUSH1 0x10 SHR AND PUSH2 0x100 DUP8 ADD MSTORE DUP6 DUP3 SUB PUSH2 0x120 DUP8 ADD MSTORE PUSH2 0x192F JUMP JUMPDEST SWAP1 DUP4 DUP3 SUB PUSH2 0x140 DUP6 ADD MSTORE PUSH2 0x192F JUMP JUMPDEST CALLVALUE PUSH2 0x99E JUMPI PUSH1 0xC0 PUSH32 0xB82E131FCFA5EE5AABC35F0DAFC55B7DEE8BEB0EBE72709B787A4F481D2040BA PUSH2 0x1468 CALLDATASIZE PUSH2 0x181C JUMP JUMPDEST SWAP4 SWAP2 PUSH2 0x149E PUSH1 0x1 PUSH1 0x1 PUSH1 0xA0 SHL SUB PUSH32 0x0 AND CALLER EQ PUSH2 0x1954 JUMP JUMPDEST PUSH1 0x6 PUSH1 0x40 MLOAD DUP4 DUP4 DUP3 CALLDATACOPY PUSH1 0x20 DUP2 DUP6 DUP2 ADD PUSH1 0x0 DUP2 MSTORE SUB ADD SWAP1 KECCAK256 ADD DUP1 SLOAD PUSH2 0x14C4 PUSH1 0xFF DUP3 AND PUSH2 0x1A01 JUMP JUMPDEST PUSH1 0xFF NOT AND SWAP1 SSTORE DUP2 PUSH1 0x40 MLOAD SWAP3 DUP4 SWAP3 DUP4 CALLDATACOPY DUP2 ADD PUSH1 0x0 DUP2 MSTORE SUB SWAP1 KECCAK256 SWAP3 PUSH1 0x40 MLOAD SWAP1 PUSH1 0x80 DUP3 MSTORE PUSH1 0xB PUSH1 0x80 DUP4 ADD MSTORE PUSH32 0x434C49454E545F57494E53000000000000000000000000000000000000000000 PUSH1 0xA0 DUP4 ADD MSTORE PUSH1 0x0 PUSH1 0x20 DUP4 ADD MSTORE PUSH1 0x40 DUP3 ADD MSTORE TIMESTAMP PUSH1 0x60 DUP3 ADD MSTORE LOG2 STOP JUMPDEST CALLVALUE PUSH2 0x99E JUMPI PUSH1 0x20 CALLDATASIZE PUSH1 0x3 NOT ADD SLT PUSH2 0x99E JUMPI PUSH1 0x4 CALLDATALOAD PUSH8 0xFFFFFFFFFFFFFFFF DUP2 GT PUSH2 0x99E JUMPI PUSH2 0x155A PUSH1 0x40 SWAP2 CALLDATASIZE SWAP1 PUSH1 0x4 ADD PUSH2 0x16CF JUMP JUMPDEST PUSH1 0x20 DUP4 MLOAD DUP3 DUP5 DUP3 CALLDATACOPY DUP2 DUP2 DUP5 DUP2 ADD PUSH1 0x2 DUP2 MSTORE SUB ADD SWAP1 KECCAK256 SLOAD SWAP3 DUP3 DUP6 MLOAD SWAP4 DUP5 SWAP3 DUP4 CALLDATACOPY DUP2 ADD PUSH1 0x3 DUP2 MSTORE SUB ADD SWAP1 KECCAK256 SLOAD DUP3 MLOAD SWAP2 DUP3 MSTORE PUSH1 0x20 DUP3 ADD MSTORE RETURN JUMPDEST CALLVALUE PUSH2 0x99E JUMPI PUSH1 0x20 PUSH2 0x15A4 DUP2 PUSH2 0x1336 CALLDATASIZE PUSH2 0x17BA JUMP JUMPDEST DUP2 ADD PUSH1 0x2 DUP2 MSTORE SUB ADD SWAP1 KECCAK256 SLOAD PUSH1 0x40 MLOAD SWAP1 DUP2 MSTORE RETURN JUMPDEST CALLVALUE PUSH2 0x99E JUMPI PUSH1 0x20 PUSH2 0x15CB DUP2 PUSH2 0x1336 CALLDATASIZE PUSH2 0x17BA JUMP JUMPDEST DUP2 ADD PUSH1 0x3 DUP2 MSTORE SUB ADD SWAP1 KECCAK256 SLOAD PUSH1 0x40 MLOAD SWAP1 DUP2 MSTORE RETURN JUMPDEST CALLVALUE PUSH2 0x99E JUMPI PUSH1 0xC0 PUSH32 0xB82E131FCFA5EE5AABC35F0DAFC55B7DEE8BEB0EBE72709B787A4F481D2040BA PUSH2 0x160F CALLDATASIZE PUSH2 0x16FD JUMP JUMPDEST SWAP5 SWAP3 PUSH2 0x1648 PUSH1 0x1 PUSH1 0x1 PUSH1 0xA0 SHL SUB SWAP4 SWAP3 SWAP4 PUSH32 0x0 AND CALLER EQ PUSH2 0x1954 JUMP JUMPDEST PUSH1 0x6 PUSH1 0x40 MLOAD DUP4 DUP4 DUP3 CALLDATACOPY PUSH1 0x20 DUP2 DUP6 DUP2 ADD PUSH1 0x0 DUP2 MSTORE SUB ADD SWAP1 KECCAK256 ADD DUP1 SLOAD PUSH2 0x166E PUSH1 0xFF DUP3 AND PUSH2 0x1A01 JUMP JUMPDEST PUSH1 0xFF NOT AND SWAP1 SSTORE DUP2 PUSH1 0x40 MLOAD SWAP3 DUP4 SWAP3 DUP4 CALLDATACOPY DUP2 ADD PUSH1 0x0 DUP2 MSTORE SUB SWAP1 KECCAK256 SWAP4 PUSH1 0x40 MLOAD SWAP2 PUSH1 0x80 DUP4 MSTORE PUSH1 0x7 PUSH1 0x80 DUP5 ADD MSTORE PUSH32 0x5041525449414C00000000000000000000000000000000000000000000000000 PUSH1 0xA0 DUP5 ADD MSTORE PUSH1 0x20 DUP4 ADD MSTORE PUSH1 0x40 DUP3 ADD MSTORE TIMESTAMP PUSH1 0x60 DUP3 ADD MSTORE LOG2 STOP JUMPDEST SWAP2 DUP2 PUSH1 0x1F DUP5 ADD SLT ISZERO PUSH2 0x99E JUMPI DUP3 CALLDATALOAD SWAP2 PUSH8 0xFFFFFFFFFFFFFFFF DUP4 GT PUSH2 0x99E JUMPI PUSH1 0x20 DUP4 DUP2 DUP7 ADD SWAP6 ADD ADD GT PUSH2 0x99E JUMPI JUMP JUMPDEST PUSH1 0x60 PUSH1 0x3 NOT DUP3 ADD SLT PUSH2 0x99E JUMPI PUSH1 0x4 CALLDATALOAD SWAP1 PUSH8 0xFFFFFFFFFFFFFFFF DUP3 GT PUSH2 0x99E JUMPI PUSH2 0x1728 SWAP2 PUSH1 0x4 ADD PUSH2 0x16CF JUMP JUMPDEST SWAP1 SWAP2 PUSH1 0x24 CALLDATALOAD SWAP1 PUSH1 0x44 CALLDATALOAD SWAP1 JUMP JUMPDEST PUSH2 0x160 DUP2 ADD SWAP1 DUP2 LT PUSH8 0xFFFFFFFFFFFFFFFF DUP3 GT OR PUSH2 0x617 JUMPI PUSH1 0x40 MSTORE JUMP JUMPDEST SWAP1 PUSH1 0x1F DUP1 NOT SWAP2 ADD AND DUP2 ADD SWAP1 DUP2 LT PUSH8 0xFFFFFFFFFFFFFFFF DUP3 GT OR PUSH2 0x617 JUMPI PUSH1 0x40 MSTORE JUMP JUMPDEST SWAP3 SWAP2 SWAP3 PUSH8 0xFFFFFFFFFFFFFFFF DUP3 GT PUSH2 0x617 JUMPI PUSH1 0x40 MLOAD SWAP2 PUSH2 0x179D PUSH1 0x1F DUP3 ADD PUSH1 0x1F NOT AND PUSH1 0x20 ADD DUP5 PUSH2 0x1751 JUMP JUMPDEST DUP3 SWAP5 DUP2 DUP5 MSTORE DUP2 DUP4 ADD GT PUSH2 0x99E JUMPI DUP3 DUP2 PUSH1 0x20 SWAP4 DUP5 PUSH1 0x0 SWAP7 ADD CALLDATACOPY ADD ADD MSTORE JUMP JUMPDEST PUSH1 0x20 PUSH1 0x3 NOT DUP3 ADD SLT PUSH2 0x99E JUMPI PUSH1 0x4 CALLDATALOAD SWAP1 PUSH8 0xFFFFFFFFFFFFFFFF DUP3 GT PUSH2 0x99E JUMPI DUP1 PUSH1 0x23 DUP4 ADD SLT ISZERO PUSH2 0x99E JUMPI DUP2 PUSH1 0x24 PUSH2 0x17F6 SWAP4 PUSH1 0x4 ADD CALLDATALOAD SWAP2 ADD PUSH2 0x1773 JUMP JUMPDEST SWAP1 JUMP JUMPDEST PUSH1 0x0 JUMPDEST DUP4 DUP2 LT PUSH2 0x180C JUMPI POP POP PUSH1 0x0 SWAP2 ADD MSTORE JUMP JUMPDEST DUP2 DUP2 ADD MLOAD DUP4 DUP3 ADD MSTORE PUSH1 0x20 ADD PUSH2 0x17FC JUMP JUMPDEST PUSH1 0x40 PUSH1 0x3 NOT DUP3 ADD SLT PUSH2 0x99E JUMPI PUSH1 0x4 CALLDATALOAD SWAP1 PUSH8 0xFFFFFFFFFFFFFFFF DUP3 GT PUSH2 0x99E JUMPI PUSH2 0x1847 SWAP2 PUSH1 0x4 ADD PUSH2 0x16CF JUMP JUMPDEST SWAP1 SWAP2 PUSH1 0x24 CALLDATALOAD SWAP1 JUMP JUMPDEST SWAP1 PUSH1 0x1 DUP3 DUP2 SHR SWAP3 AND DUP1 ISZERO PUSH2 0x187F JUMPI JUMPDEST PUSH1 0x20 DUP4 LT EQ PUSH2 0x1869 JUMPI JUMP JUMPDEST PUSH4 0x4E487B71 PUSH1 0xE0 SHL PUSH1 0x0 MSTORE PUSH1 0x22 PUSH1 0x4 MSTORE PUSH1 0x24 PUSH1 0x0 REVERT JUMPDEST SWAP2 PUSH1 0x7F AND SWAP2 PUSH2 0x185E JUMP JUMPDEST SWAP1 PUSH1 0x40 MLOAD SWAP2 DUP3 PUSH1 0x0 DUP3 SLOAD SWAP3 PUSH2 0x189D DUP5 PUSH2 0x184F JUMP JUMPDEST SWAP1 DUP2 DUP5 MSTORE PUSH1 0x1 SWAP5 DUP6 DUP2 AND SWAP1 DUP2 PUSH1 0x0 EQ PUSH2 0x190C JUMPI POP PUSH1 0x1 EQ PUSH2 0x18C9 JUMPI JUMPDEST POP POP PUSH2 0x18C7 SWAP3 POP SUB DUP4 PUSH2 0x1751 JUMP JUMPDEST JUMP JUMPDEST SWAP1 SWAP4 SWAP2 POP PUSH1 0x0 MSTORE PUSH1 0x20 SWAP1 DUP2 PUSH1 0x0 KECCAK256 SWAP4 PUSH1 0x0 SWAP2 JUMPDEST DUP2 DUP4 LT PUSH2 0x18F4 JUMPI POP POP PUSH2 0x18C7 SWAP4 POP DUP3 ADD ADD CODESIZE DUP1 PUSH2 0x18B9 JUMP JUMPDEST DUP6 SLOAD DUP9 DUP5 ADD DUP6 ADD MSTORE SWAP5 DUP6 ADD SWAP5 DUP8 SWAP5 POP SWAP2 DUP4 ADD SWAP2 PUSH2 0x18DC JUMP JUMPDEST SWAP2 POP POP PUSH2 0x18C7 SWAP5 POP PUSH1 0x20 SWAP3 POP PUSH1 0xFF NOT AND DUP3 DUP5 ADD MSTORE ISZERO ISZERO PUSH1 0x5 SHL DUP3 ADD ADD CODESIZE DUP1 PUSH2 0x18B9 JUMP JUMPDEST SWAP1 PUSH1 0x20 SWAP2 PUSH2 0x1948 DUP2 MLOAD DUP1 SWAP3 DUP2 DUP6 MSTORE DUP6 DUP1 DUP7 ADD SWAP2 ADD PUSH2 0x17F9 JUMP JUMPDEST PUSH1 0x1F ADD PUSH1 0x1F NOT AND ADD ADD SWAP1 JUMP JUMPDEST ISZERO PUSH2 0x195B JUMPI JUMP JUMPDEST PUSH1 0x84 PUSH1 0x40 MLOAD PUSH3 0x461BCD PUSH1 0xE5 SHL DUP2 MSTORE PUSH1 0x20 PUSH1 0x4 DUP3 ADD MSTORE PUSH1 0x39 PUSH1 0x24 DUP3 ADD MSTORE PUSH32 0x536F6C6F20656C2061646D696E6973747261646F722064652047415244454E20 PUSH1 0x44 DUP3 ADD MSTORE PUSH32 0x7075656465206C6C616D617220657374612066756E63696F6E00000000000000 PUSH1 0x64 DUP3 ADD MSTORE REVERT JUMPDEST SWAP4 SWAP3 SWAP2 DUP1 PUSH1 0x60 SWAP2 PUSH1 0x20 SWAP4 PUSH1 0x40 DUP9 MSTORE DUP2 PUSH1 0x40 DUP10 ADD MSTORE DUP4 DUP9 ADD CALLDATACOPY PUSH1 0x0 DUP3 DUP3 DUP9 ADD ADD MSTORE PUSH1 0x1F DUP1 NOT SWAP2 ADD AND DUP6 ADD ADD SWAP4 ADD MSTORE JUMP JUMPDEST SWAP2 SWAP1 DUP3 ADD DUP1 SWAP3 GT PUSH2 0x53D JUMPI JUMP JUMPDEST ISZERO PUSH2 0x1A08 JUMPI JUMP JUMPDEST PUSH1 0x64 PUSH1 0x40 MLOAD PUSH3 0x461BCD PUSH1 0xE5 SHL DUP2 MSTORE PUSH1 0x20 PUSH1 0x4 DUP3 ADD MSTORE PUSH1 0x1F PUSH1 0x24 DUP3 ADD MSTORE PUSH32 0x52657365727661206E6F20616374697661206F2079612072657375656C746100 PUSH1 0x44 DUP3 ADD MSTORE REVERT INVALID LOG2 PUSH5 0x6970667358 0x22 SLT KECCAK256 0xE6 CALLCODE PUSH30 0x80C1EBCD8EF9665B953F85B635D9A56E70D3980ED92C8B42F95A21208D64 PUSH20 0x6F6C634300081400330000000000000000000000 "},"methodIdentifiers":{"bookings(string)":"502bf35e","cancelBooking(string,string)":"833a5a14","caregiverRatingCount(string)":"1f007d8a","caregiverTotalRating(string)":"3ad9c924","createBooking(string,string,string,uint256,uint256,uint256,string,string)":"eebef596","extendWalk(string,uint256,uint256)":"c7d90c80","finalizeBooking(string,uint8)":"923d2d33","getBooking(string)":"9624493f","getReputation(string)":"3d1103f4","owner()":"8da5cb5b","resolveDisputeCaregiverWins(string,uint256)":"8bbf8c5f","resolveDisputeClientWins(string,uint256)":"42b6ef79","resolvePartial(string,uint256,uint256)":"02e84412","totalBookings()":"9668ce3e"}}}}}