{"contracts/GardenEscrow.sol":{"GardenEscrow":{"abi":[{"inputs":[],"stateMutability":"nonpayable","type":"constructor"},{"anonymous":false,"inputs":[{"indexed":true,"internalType":"string","name":"bookingId","type":"string"},{"indexed":false,"internalType":"string","name":"petName","type":"string"},{"indexed":false,"internalType":"uint256","name":"amountBs","type":"uint256"}],"name":"BookingCreated","type":"event"},{"anonymous":false,"inputs":[{"indexed":true,"internalType":"string","name":"bookingId","type":"string"},{"indexed":false,"internalType":"string","name":"verdict","type":"string"},{"indexed":false,"internalType":"uint256","name":"caregiverAmountBs","type":"uint256"},{"indexed":false,"internalType":"uint256","name":"clientDiscountBs","type":"uint256"},{"indexed":false,"internalType":"uint256","name":"timestamp","type":"uint256"}],"name":"DisputeResolved","type":"event"},{"anonymous":false,"inputs":[{"indexed":true,"internalType":"string","name":"bookingId","type":"string"},{"indexed":false,"internalType":"uint256","name":"additionalDays","type":"uint256"},{"indexed":false,"internalType":"uint256","name":"newAmountBs","type":"uint256"},{"indexed":false,"internalType":"uint256","name":"timestamp","type":"uint256"}],"name":"HospedajeExtended","type":"event"},{"anonymous":false,"inputs":[{"indexed":true,"internalType":"string","name":"bookingId","type":"string"},{"indexed":false,"internalType":"uint256","name":"timestamp","type":"uint256"}],"name":"PaymentConfirmed","type":"event"},{"anonymous":false,"inputs":[{"indexed":true,"internalType":"string","name":"bookingId","type":"string"},{"indexed":false,"internalType":"string","name":"reason","type":"string"},{"indexed":false,"internalType":"uint256","name":"timestamp","type":"uint256"}],"name":"ServiceCancelled","type":"event"},{"anonymous":false,"inputs":[{"indexed":true,"internalType":"string","name":"bookingId","type":"string"},{"indexed":false,"internalType":"uint8","name":"rating","type":"uint8"},{"indexed":false,"internalType":"uint256","name":"timestamp","type":"uint256"}],"name":"ServiceFinalized","type":"event"},{"anonymous":false,"inputs":[{"indexed":true,"internalType":"string","name":"bookingId","type":"string"},{"indexed":false,"internalType":"uint256","name":"additionalMinutes","type":"uint256"},{"indexed":false,"internalType":"uint256","name":"newAmountBs","type":"uint256"},{"indexed":false,"internalType":"uint256","name":"timestamp","type":"uint256"}],"name":"WalkExtended","type":"event"},{"inputs":[{"internalType":"string","name":"","type":"string"}],"name":"bookings","outputs":[{"internalType":"string","name":"bookingId","type":"string"},{"internalType":"string","name":"clientId","type":"string"},{"internalType":"string","name":"caregiverId","type":"string"},{"internalType":"uint256","name":"amountBs","type":"uint256"},{"internalType":"uint256","name":"startTime","type":"uint256"},{"internalType":"uint256","name":"endTime","type":"uint256"},{"internalType":"bool","name":"isActive","type":"bool"},{"internalType":"bool","name":"isCompleted","type":"bool"},{"internalType":"uint8","name":"rating","type":"uint8"},{"internalType":"string","name":"petName","type":"string"},{"internalType":"string","name":"serviceType","type":"string"}],"stateMutability":"view","type":"function"},{"inputs":[{"internalType":"string","name":"_bookingId","type":"string"},{"internalType":"string","name":"_reason","type":"string"}],"name":"cancelBooking","outputs":[],"stateMutability":"nonpayable","type":"function"},{"inputs":[{"internalType":"string","name":"","type":"string"}],"name":"caregiverRatingCount","outputs":[{"internalType":"uint256","name":"","type":"uint256"}],"stateMutability":"view","type":"function"},{"inputs":[{"internalType":"string","name":"","type":"string"}],"name":"caregiverTotalRating","outputs":[{"internalType":"uint256","name":"","type":"uint256"}],"stateMutability":"view","type":"function"},{"inputs":[{"internalType":"string","name":"_bookingId","type":"string"},{"internalType":"string","name":"_clientId","type":"string"},{"internalType":"string","name":"_caregiverId","type":"string"},{"internalType":"uint256","name":"_amountBs","type":"uint256"},{"internalType":"uint256","name":"_startTime","type":"uint256"},{"internalType":"uint256","name":"_endTime","type":"uint256"},{"internalType":"string","name":"_petName","type":"string"},{"internalType":"string","name":"_serviceType","type":"string"}],"name":"createBooking","outputs":[],"stateMutability":"nonpayable","type":"function"},{"inputs":[{"internalType":"string","name":"_bookingId","type":"string"},{"internalType":"uint256","name":"_additionalDays","type":"uint256"},{"internalType":"uint256","name":"_newAmountBs","type":"uint256"}],"name":"extendHospedaje","outputs":[],"stateMutability":"nonpayable","type":"function"},{"inputs":[{"internalType":"string","name":"_bookingId","type":"string"},{"internalType":"uint256","name":"_additionalMinutes","type":"uint256"},{"internalType":"uint256","name":"_newAmountBs","type":"uint256"}],"name":"extendWalk","outputs":[],"stateMutability":"nonpayable","type":"function"},{"inputs":[{"internalType":"string","name":"_bookingId","type":"string"},{"internalType":"uint8","name":"_rating","type":"uint8"}],"name":"finalizeBooking","outputs":[],"stateMutability":"nonpayable","type":"function"},{"inputs":[{"internalType":"string","name":"_id","type":"string"}],"name":"getBooking","outputs":[{"components":[{"internalType":"string","name":"bookingId","type":"string"},{"internalType":"string","name":"clientId","type":"string"},{"internalType":"string","name":"caregiverId","type":"string"},{"internalType":"uint256","name":"amountBs","type":"uint256"},{"internalType":"uint256","name":"startTime","type":"uint256"},{"internalType":"uint256","name":"endTime","type":"uint256"},{"internalType":"bool","name":"isActive","type":"bool"},{"internalType":"bool","name":"isCompleted","type":"bool"},{"internalType":"uint8","name":"rating","type":"uint8"},{"internalType":"string","name":"petName","type":"string"},{"internalType":"string","name":"serviceType","type":"string"}],"internalType":"struct GardenEscrow.Booking","name":"","type":"tuple"}],"stateMutability":"view","type":"function"},{"inputs":[{"internalType":"string","name":"_caregiverId","type":"string"}],"name":"getReputation","outputs":[{"internalType":"uint256","name":"totalRating","type":"uint256"},{"internalType":"uint256","name":"ratingCount","type":"uint256"}],"stateMutability":"view","type":"function"},{"inputs":[],"name":"owner","outputs":[{"internalType":"address","name":"","type":"address"}],"stateMutability":"view","type":"function"},{"inputs":[{"internalType":"string","name":"_bookingId","type":"string"},{"internalType":"uint256","name":"_caregiverAmountBs","type":"uint256"}],"name":"resolveDisputeCaregiverWins","outputs":[],"stateMutability":"nonpayable","type":"function"},{"inputs":[{"internalType":"string","name":"_bookingId","type":"string"},{"internalType":"uint256","name":"_refundAmountBs","type":"uint256"}],"name":"resolveDisputeClientWins","outputs":[],"stateMutability":"nonpayable","type":"function"},{"inputs":[{"internalType":"string","name":"_bookingId","type":"string"},{"internalType":"uint256","name":"_caregiverAmountBs","type":"uint256"},{"internalType":"uint256","name":"_clientDiscountBs","type":"uint256"}],"name":"resolvePartial","outputs":[],"stateMutability":"nonpayable","type":"function"},{"inputs":[],"name":"totalBookings","outputs":[{"internalType":"uint256","name":"","type":"uint256"}],"stateMutability":"view","type":"function"}],"evm":{"bytecode":{"linkReferences":{},"object":"60a0806040523461005b5733608052611bb69081610061823960805181818161018a015281816109cb01528181610d83015281816110ca0152818161112e015281816112370152818161148d0152818161163701526117020152f35b600080fdfe6080604052600436101561001257600080fd5b60003560e01c806301751d5d146116e557806302e84412146115f45780631f007d8a146115cd5780633ad9c924146115a65780633d1103f41461153d57806342b6ef791461144d578063502bf35e14611339578063833a5a14146111de5780638bbf8c5f146110ee5780638da5cb5b146110aa578063923d2d3314610d325780639624493f14610b245780639668ce3e14610b06578063c7d90c80146109ae5763eebef596146100c157600080fd5b346109a9576101003660031901126109a95760043567ffffffffffffffff81116109a9576100f3903690600401611803565b9060243567ffffffffffffffff81116109a957610114903690600401611803565b9060443567ffffffffffffffff81116109a957610135903690600401611803565b909260c43567ffffffffffffffff81116109a957610157903690600401611803565b94909360e43567ffffffffffffffff81116109a95761017a903690600401611803565b9190926101b16001600160a01b037f0000000000000000000000000000000000000000000000000000000000000000163314611a88565b60046040518b8b823760008c8201526020818d81010301902001546109655789956101fe61020a93610255976101f58d6040519b6101ee8d611868565b36916118a7565b8a5236916118a7565b602088015236916118a7565b60408501526064356060850152608435608085015260a43560a0850152600160c0850152600060e085015260006101008501526102483687876118a7565b61012085015236916118a7565b61014082015260405185858237602081878101600081520301902090805180519067ffffffffffffffff82116106225781906102918554611983565b601f8111610915575b50602090601f83116001146108a95760009261089e575b50508160011b916000199060031b1c19161782555b602081015180519067ffffffffffffffff82116106225781906102ec6001860154611983565b601f811161084b575b50602090601f83116001146107d9576000926107ce575b50508160011b916000199060031b1c19161760018301555b604081015180519067ffffffffffffffff821161062257819061034a6002860154611983565b601f811161077b575b50602090601f8311600114610709576000926106fe575b50508160011b916000199060031b1c19161760028301555b606081015160038301556080810151600483015560a081015160058301556103ec6006830160c08301511515815460ff61ff0060e0870151151560081b1692169061ffff19161717815560ff6101008401511662ff000082549160101b169062ff00001916179055565b61012081015180519067ffffffffffffffff8211610622576104116007850154611983565b601f81116106b7575b50602090601f83116001146106435761014093929160009183610638575b50508160011b916000199060031b1c19161760078401555b015180519067ffffffffffffffff8211610622576104716008840154611983565b601f81116105d7575b50602090601f831160011461056957600892916000918361055e575b50508160011b916000199060031b1c1916179101555b6001549060001982146105485760017f57ce3030b25e873cc2900f490ac3d24d068e7c280f934f8a29d540155038472e9201600155604051858582378086810160008152039020926105076040519283926064359184611af9565b0390a28160405192839283378101600081520390207f250cbee58b321813116d5b3523c84b813eaa55482958e914517b1ddfbbeea62a6020604051428152a2005b634e487b7160e01b600052601160045260246000fd5b015190503880610496565b90601f198316916008850160005260206000209260005b8181106105bf575091600193918560089694106105a6575b505050811b019101556104ac565b015160001960f88460031b161c19169055388080610598565b92936020600181928786015181550195019301610580565b600884016000526020600020601f840160051c81019160208510610618575b601f0160051c01905b81811061060c575061047a565b600081556001016105ff565b90915081906105f6565b634e487b7160e01b600052604160045260246000fd5b015190503880610438565b906007850160005260206000209160005b601f198516811061069f57509183916001936101409695601f19811610610686575b505050811b016007840155610450565b015160001960f88460031b161c19169055388080610676565b91926020600181928685015181550194019201610654565b600785016000526020600020601f840160051c8101602085106106f7575b601f830160051c820181106106eb57505061041a565b600081556001016106d5565b50806106d5565b01519050388061036a565b9250600285016000526020600020906000935b601f1984168510610760576001945083601f19811610610747575b505050811b016002830155610382565b015160001960f88460031b161c19169055388080610737565b8181015183556020948501946001909301929091019061071c565b909150600285016000526020600020601f840160051c8101602085106107c7575b90849392915b601f830160051c820181106107b8575050610353565b600081558594506001016107a2565b508061079c565b01519050388061030c565b9250600185016000526020600020906000935b601f1984168510610830576001945083601f19811610610817575b505050811b016001830155610324565b015160001960f88460031b161c19169055388080610807565b818101518355602094850194600190930192909101906107ec565b909150600185016000526020600020601f840160051c810160208510610897575b90849392915b601f830160051c820181106108885750506102f5565b60008155859450600101610872565b508061086c565b0151905038806102b1565b9250846000526020600020906000935b601f19841685106108fa576001945083601f198116106108e1575b505050811b0182556102c6565b015160001960f88460031b161c191690553880806108d4565b818101518355602094850194600190930192909101906108b9565b909150846000526020600020601f840160051c81016020851061095e575b90849392915b601f830160051c8201811061094f57505061029a565b60008155859450600101610939565b5080610933565b606460405162461bcd60e51b815260206004820152601d60248201527f4c61207265736572766120796120657869737465206f6e2d636861696e0000006044820152fd5b600080fd5b346109a9576109bc36611831565b92916109f26001600160a01b037f0000000000000000000000000000000000000000000000000000000000000000163314611a88565b60405181848237602081838101600081520301902060ff60068201541615610a9c578085600360059301550192835493603c840294848604603c1485151715610548577f95a77f02e9079398f3b4f7d6d4da8b13327ad5e2a93e298f6bab249aeabb0ea895610a6091611b28565b905581604051928392833781016000815203902092610a976040519283924291846040919493926060820195825260208201520152565b0390a2005b608460405162461bcd60e51b815260206004820152602860248201527f52657365727661206e6f20616374697661202d206e6f2073652070756564652060448201527f657874656e6465720000000000000000000000000000000000000000000000006064820152fd5b346109a95760003660031901126109a9576020600154604051908152f35b346109a95760203660031901126109a95760043567ffffffffffffffff81116109a9576020610b5a610d2e923690600401611803565b91906060610140604051610b6d81611868565b828152828582015282604082015260008382015260006080820152600060a0820152600060c0820152600060e0820152600061010082015282610120820152015282604051938492833781016000815203019020610c5d600860405192610bd384611868565b610bdc816119bd565b8452610bea600182016119bd565b6020850152610bfb600282016119bd565b60408501526003810154606085015260048101546080850152600581015460a085015260ff6006820154818116151560c08701528181851c16151560e087015260101c16610100850152610c51600782016119bd565b610120850152016119bd565b61014082015260405191829160208352610140610d19610cbd610ca7610c91855161016060208a0152610180890190611a63565b6020860151888203601f190160408a0152611a63565b6040850151878203601f19016060890152611a63565b60608401516080870152608084015160a087015260a084015160c087015260c0840151151560e087015260e0840151151561010087015260ff61010085015116610120870152610120840151601f198783030184880152611a63565b910151838203601f1901610160850152611a63565b0390f35b346109a95760403660031901126109a95760043567ffffffffffffffff81116109a957610d63903690600401611803565b9060249182359160ff8316928381036109a957610daa6001600160a01b037f0000000000000000000000000000000000000000000000000000000000000000163314611a88565b60405194838387378584810160008152602097889103019020600681019283549360ff8516156110415760ff8560081c16610ffe576001948589101580610ff3575b15610f8b5762ffffff191660109290921b62ff00001691909117610100179055600201604051878160008454610e2181611983565b90888116908115610f765750600114610f3b575b506002815203019020610e49878254611b28565b9055866040518092600090805490610e6082611983565b91888116908115610f245750600114610ee8575b50506003815203019020908154928301809311610ed4575091604093917f720fac15ad95e7e15d4b7d8e3f33218d270ea09a1dcbb4886720c63d1a509a6495935581845192839283378101600081520390209382519182524290820152a2005b634e487b7160e01b60005260116004526000fd5b9091506000528260002083876000925b848410610f0c575050505081018a80610e74565b80548885015287955092909101918591899101610ef8565b60ff19168552505080151502820190508a80610e74565b9050846000528260002083886000925b848410610f5e575050505081018b610e35565b805488850152879550929091019185918a9101610f4b565b60ff191684525080151502820190508b610e35565b60848a866040519162461bcd60e51b83526004830152808201527f4c612063616c696669636163696f6e20646562652073657220656e747265203160448201527f20792035000000000000000000000000000000000000000000000000000000006064820152fd5b506005891115610dec565b606489601f866040519262461bcd60e51b845260048401528201527f59612065737461206d61726361646120636f6d6f20636f6d706c6574616461006044820152fd5b6084896021866040519262461bcd60e51b845260048401528201527f52657365727661206e6f20616374697661206f2079612066696e616c697a616460448201527f61000000000000000000000000000000000000000000000000000000000000006064820152fd5b346109a95760003660031901126109a95760206040516001600160a01b037f0000000000000000000000000000000000000000000000000000000000000000168152f35b346109a95760c07fb82e131fcfa5ee5aabc35f0dafc55b7dee8beb0ebe72709b787a4f481d2040ba61111f36611950565b93916111556001600160a01b037f0000000000000000000000000000000000000000000000000000000000000000163314611a88565b600660405183838237602081858101600081520301902001805461117b60ff8216611b35565b60ff19169055816040519283928337810160008152039020926040519060808252600e60808301527f4341524547495645525f57494e5300000000000000000000000000000000000060a0830152602082015260006040820152426060820152a2005b346109a95760403660031901126109a95767ffffffffffffffff6004358181116109a957611210903690600401611803565b916024359081116109a957611229903690600401611803565b9261125e6001600160a01b037f0000000000000000000000000000000000000000000000000000000000000000163314611a88565b6006604051828582376020818481016000815203019020019283549360ff8516156112cf577fc480801d2bb33eaf2ffbf8ad31a3555cb09eb6fecb6dd73536303055807fd2869460ff1916905581604051928392833781016000815203902092610a97604051928392429184611af9565b608460405162461bcd60e51b815260206004820152603660248201527f4e6f2073652070756564652063616e63656c617220756e61207265736572766160448201527f20696e616374697661206f2066696e616c697a616461000000000000000000006064820152fd5b346109a95761135f602061134c366118ee565b816040519382858094519384920161192d565b810160008152030190206113e3610d2e611378836119bd565b61143e611387600186016119bd565b94611394600282016119bd565b9060ff60038201549260048301546005840154906113ff6006860154936113f16113cc60086113c560078b016119bd565b99016119bd565b9a6040519e8f9e8f92610160808552840190611a63565b916020818403910152611a63565b8c810360408e015290611a63565b9560608b015260808a015260a0890152818116151560c0890152818160081c16151560e089015260101c16610100870152858203610120870152611a63565b90838203610140850152611a63565b346109a95760c07fb82e131fcfa5ee5aabc35f0dafc55b7dee8beb0ebe72709b787a4f481d2040ba61147e36611950565b93916114b46001600160a01b037f0000000000000000000000000000000000000000000000000000000000000000163314611a88565b60066040518383823760208185810160008152030190200180546114da60ff8216611b35565b60ff19169055816040519283928337810160008152039020926040519060808252600b60808301527f434c49454e545f57494e5300000000000000000000000000000000000000000060a0830152600060208301526040820152426060820152a2005b346109a95760203660031901126109a95760043567ffffffffffffffff81116109a9576115706040913690600401611803565b60208351828482378181848101600281520301902054928285519384928337810160038152030190205482519182526020820152f35b346109a95760206115ba8161134c366118ee565b8101600281520301902054604051908152f35b346109a95760206115e18161134c366118ee565b8101600381520301902054604051908152f35b346109a95760c07fb82e131fcfa5ee5aabc35f0dafc55b7dee8beb0ebe72709b787a4f481d2040ba61162536611831565b949261165e6001600160a01b039392937f0000000000000000000000000000000000000000000000000000000000000000163314611a88565b600660405183838237602081858101600081520301902001805461168460ff8216611b35565b60ff19169055816040519283928337810160008152039020936040519160808352600760808401527f5041525449414c0000000000000000000000000000000000000000000000000060a084015260208301526040820152426060820152a2005b346109a9576116f336611831565b92916117296001600160a01b037f0000000000000000000000000000000000000000000000000000000000000000163314611a88565b60405181848237602081838101600081520301902060ff600682015416156117995780856003600593015501928354936201518094858502958587041485151715610548577f604cead4ce981373b8abe4ec84ae3d707ff3c9fbd50f20dcff59981c02b6d51395610a6091611b28565b608460405162461bcd60e51b815260206004820152603560248201527f52657365727661206e6f20616374697661202d206e6f2073652070756564652060448201527f657874656e64657220656c20686f73706564616a6500000000000000000000006064820152fd5b9181601f840112156109a95782359167ffffffffffffffff83116109a957602083818601950101116109a957565b60606003198201126109a9576004359067ffffffffffffffff82116109a95761185c91600401611803565b90916024359060443590565b610160810190811067ffffffffffffffff82111761062257604052565b90601f8019910116810190811067ffffffffffffffff82111761062257604052565b92919267ffffffffffffffff821161062257604051916118d1601f8201601f191660200184611885565b8294818452818301116109a9578281602093846000960137010152565b60206003198201126109a9576004359067ffffffffffffffff82116109a957806023830112156109a95781602461192a936004013591016118a7565b90565b60005b8381106119405750506000910152565b8181015183820152602001611930565b60406003198201126109a9576004359067ffffffffffffffff82116109a95761197b91600401611803565b909160243590565b90600182811c921680156119b3575b602083101461199d57565b634e487b7160e01b600052602260045260246000fd5b91607f1691611992565b90604051918260008254926119d184611983565b908184526001948581169081600014611a4057506001146119fd575b50506119fb92500383611885565b565b9093915060005260209081600020936000915b818310611a285750506119fb935082010138806119ed565b85548884018501529485019487945091830191611a10565b9150506119fb94506020925060ff191682840152151560051b82010138806119ed565b90602091611a7c8151809281855285808601910161192d565b601f01601f1916010190565b15611a8f57565b608460405162461bcd60e51b815260206004820152603960248201527f536f6c6f20656c2061646d696e6973747261646f722064652047415244454e2060448201527f7075656465206c6c616d617220657374612066756e63696f6e000000000000006064820152fd5b9392918060609160209360408852816040890152838801376000828288010152601f8019910116850101930152565b9190820180921161054857565b15611b3c57565b606460405162461bcd60e51b815260206004820152601f60248201527f52657365727661206e6f20616374697661206f2079612072657375656c7461006044820152fdfea2646970667358221220e0371685b41ad2a3e953bb941849179323bdf1c87c6b92aa2f267f226b176f5c64736f6c63430008140033","opcodes":"PUSH1 0xA0 DUP1 PUSH1 0x40 MSTORE CALLVALUE PUSH2 0x5B JUMPI CALLER PUSH1 0x80 MSTORE PUSH2 0x1BB6 SWAP1 DUP2 PUSH2 0x61 DUP3 CODECOPY PUSH1 0x80 MLOAD DUP2 DUP2 DUP2 PUSH2 0x18A ADD MSTORE DUP2 DUP2 PUSH2 0x9CB ADD MSTORE DUP2 DUP2 PUSH2 0xD83 ADD MSTORE DUP2 DUP2 PUSH2 0x10CA ADD MSTORE DUP2 DUP2 PUSH2 0x112E ADD MSTORE DUP2 DUP2 PUSH2 0x1237 ADD MSTORE DUP2 DUP2 PUSH2 0x148D ADD MSTORE DUP2 DUP2 PUSH2 0x1637 ADD MSTORE PUSH2 0x1702 ADD MSTORE RETURN JUMPDEST PUSH1 0x0 DUP1 REVERT INVALID PUSH1 0x80 PUSH1 0x40 MSTORE PUSH1 0x4 CALLDATASIZE LT ISZERO PUSH2 0x12 JUMPI PUSH1 0x0 DUP1 REVERT JUMPDEST PUSH1 0x0 CALLDATALOAD PUSH1 0xE0 SHR DUP1 PUSH4 0x1751D5D EQ PUSH2 0x16E5 JUMPI DUP1 PUSH4 0x2E84412 EQ PUSH2 0x15F4 JUMPI DUP1 PUSH4 0x1F007D8A EQ PUSH2 0x15CD JUMPI DUP1 PUSH4 0x3AD9C924 EQ PUSH2 0x15A6 JUMPI DUP1 PUSH4 0x3D1103F4 EQ PUSH2 0x153D JUMPI DUP1 PUSH4 0x42B6EF79 EQ PUSH2 0x144D JUMPI DUP1 PUSH4 0x502BF35E EQ PUSH2 0x1339 JUMPI DUP1 PUSH4 0x833A5A14 EQ PUSH2 0x11DE JUMPI DUP1 PUSH4 0x8BBF8C5F EQ PUSH2 0x10EE JUMPI DUP1 PUSH4 0x8DA5CB5B EQ PUSH2 0x10AA JUMPI DUP1 PUSH4 0x923D2D33 EQ PUSH2 0xD32 JUMPI DUP1 PUSH4 0x9624493F EQ PUSH2 0xB24 JUMPI DUP1 PUSH4 0x9668CE3E EQ PUSH2 0xB06 JUMPI DUP1 PUSH4 0xC7D90C80 EQ PUSH2 0x9AE JUMPI PUSH4 0xEEBEF596 EQ PUSH2 0xC1 JUMPI PUSH1 0x0 DUP1 REVERT JUMPDEST CALLVALUE PUSH2 0x9A9 JUMPI PUSH2 0x100 CALLDATASIZE PUSH1 0x3 NOT ADD SLT PUSH2 0x9A9 JUMPI PUSH1 0x4 CALLDATALOAD PUSH8 0xFFFFFFFFFFFFFFFF DUP2 GT PUSH2 0x9A9 JUMPI PUSH2 0xF3 SWAP1 CALLDATASIZE SWAP1 PUSH1 0x4 ADD PUSH2 0x1803 JUMP JUMPDEST SWAP1 PUSH1 0x24 CALLDATALOAD PUSH8 0xFFFFFFFFFFFFFFFF DUP2 GT PUSH2 0x9A9 JUMPI PUSH2 0x114 SWAP1 CALLDATASIZE SWAP1 PUSH1 0x4 ADD PUSH2 0x1803 JUMP JUMPDEST SWAP1 PUSH1 0x44 CALLDATALOAD PUSH8 0xFFFFFFFFFFFFFFFF DUP2 GT PUSH2 0x9A9 JUMPI PUSH2 0x135 SWAP1 CALLDATASIZE SWAP1 PUSH1 0x4 ADD PUSH2 0x1803 JUMP JUMPDEST SWAP1 SWAP3 PUSH1 0xC4 CALLDATALOAD PUSH8 0xFFFFFFFFFFFFFFFF DUP2 GT PUSH2 0x9A9 JUMPI PUSH2 0x157 SWAP1 CALLDATASIZE SWAP1 PUSH1 0x4 ADD PUSH2 0x1803 JUMP JUMPDEST SWAP5 SWAP1 SWAP4 PUSH1 0xE4 CALLDATALOAD PUSH8 0xFFFFFFFFFFFFFFFF DUP2 GT PUSH2 0x9A9 JUMPI PUSH2 0x17A SWAP1 CALLDATASIZE SWAP1 PUSH1 0x4 ADD PUSH2 0x1803 JUMP JUMPDEST SWAP2 SWAP1 SWAP3 PUSH2 0x1B1 PUSH1 0x1 PUSH1 0x1 PUSH1 0xA0 SHL SUB PUSH32 0x0 AND CALLER EQ PUSH2 0x1A88 JUMP JUMPDEST PUSH1 0x4 PUSH1 0x40 MLOAD DUP12 DUP12 DUP3 CALLDATACOPY PUSH1 0x0 DUP13 DUP3 ADD MSTORE PUSH1 0x20 DUP2 DUP14 DUP2 ADD SUB ADD SWAP1 KECCAK256 ADD SLOAD PUSH2 0x965 JUMPI DUP10 SWAP6 PUSH2 0x1FE PUSH2 0x20A SWAP4 PUSH2 0x255 SWAP8 PUSH2 0x1F5 DUP14 PUSH1 0x40 MLOAD SWAP12 PUSH2 0x1EE DUP14 PUSH2 0x1868 JUMP JUMPDEST CALLDATASIZE SWAP2 PUSH2 0x18A7 JUMP JUMPDEST DUP11 MSTORE CALLDATASIZE SWAP2 PUSH2 0x18A7 JUMP JUMPDEST PUSH1 0x20 DUP9 ADD MSTORE CALLDATASIZE SWAP2 PUSH2 0x18A7 JUMP JUMPDEST PUSH1 0x40 DUP6 ADD MSTORE PUSH1 0x64 CALLDATALOAD PUSH1 0x60 DUP6 ADD MSTORE PUSH1 0x84 CALLDATALOAD PUSH1 0x80 DUP6 ADD MSTORE PUSH1 0xA4 CALLDATALOAD PUSH1 0xA0 DUP6 ADD MSTORE PUSH1 0x1 PUSH1 0xC0 DUP6 ADD MSTORE PUSH1 0x0 PUSH1 0xE0 DUP6 ADD MSTORE PUSH1 0x0 PUSH2 0x100 DUP6 ADD MSTORE PUSH2 0x248 CALLDATASIZE DUP8 DUP8 PUSH2 0x18A7 JUMP JUMPDEST PUSH2 0x120 DUP6 ADD MSTORE CALLDATASIZE SWAP2 PUSH2 0x18A7 JUMP JUMPDEST PUSH2 0x140 DUP3 ADD MSTORE PUSH1 0x40 MLOAD DUP6 DUP6 DUP3 CALLDATACOPY PUSH1 0x20 DUP2 DUP8 DUP2 ADD PUSH1 0x0 DUP2 MSTORE SUB ADD SWAP1 KECCAK256 SWAP1 DUP1 MLOAD DUP1 MLOAD SWAP1 PUSH8 0xFFFFFFFFFFFFFFFF DUP3 GT PUSH2 0x622 JUMPI DUP2 SWAP1 PUSH2 0x291 DUP6 SLOAD PUSH2 0x1983 JUMP JUMPDEST PUSH1 0x1F DUP2 GT PUSH2 0x915 JUMPI JUMPDEST POP PUSH1 0x20 SWAP1 PUSH1 0x1F DUP4 GT PUSH1 0x1 EQ PUSH2 0x8A9 JUMPI PUSH1 0x0 SWAP3 PUSH2 0x89E JUMPI JUMPDEST POP POP DUP2 PUSH1 0x1 SHL SWAP2 PUSH1 0x0 NOT SWAP1 PUSH1 0x3 SHL SHR NOT AND OR DUP3 SSTORE JUMPDEST PUSH1 0x20 DUP2 ADD MLOAD DUP1 MLOAD SWAP1 PUSH8 0xFFFFFFFFFFFFFFFF DUP3 GT PUSH2 0x622 JUMPI DUP2 SWAP1 PUSH2 0x2EC PUSH1 0x1 DUP7 ADD SLOAD PUSH2 0x1983 JUMP JUMPDEST PUSH1 0x1F DUP2 GT PUSH2 0x84B JUMPI JUMPDEST POP PUSH1 0x20 SWAP1 PUSH1 0x1F DUP4 GT PUSH1 0x1 EQ PUSH2 0x7D9 JUMPI PUSH1 0x0 SWAP3 PUSH2 0x7CE JUMPI JUMPDEST POP POP DUP2 PUSH1 0x1 SHL SWAP2 PUSH1 0x0 NOT SWAP1 PUSH1 0x3 SHL SHR NOT AND OR PUSH1 0x1 DUP4 ADD SSTORE JUMPDEST PUSH1 0x40 DUP2 ADD MLOAD DUP1 MLOAD SWAP1 PUSH8 0xFFFFFFFFFFFFFFFF DUP3 GT PUSH2 0x622 JUMPI DUP2 SWAP1 PUSH2 0x34A PUSH1 0x2 DUP7 ADD SLOAD PUSH2 0x1983 JUMP JUMPDEST PUSH1 0x1F DUP2 GT PUSH2 0x77B JUMPI JUMPDEST POP PUSH1 0x20 SWAP1 PUSH1 0x1F DUP4 GT PUSH1 0x1 EQ PUSH2 0x709 JUMPI PUSH1 0x0 SWAP3 PUSH2 0x6FE JUMPI JUMPDEST POP POP DUP2 PUSH1 0x1 SHL SWAP2 PUSH1 0x0 NOT SWAP1 PUSH1 0x3 SHL SHR NOT AND OR PUSH1 0x2 DUP4 ADD SSTORE JUMPDEST PUSH1 0x60 DUP2 ADD MLOAD PUSH1 0x3 DUP4 ADD SSTORE PUSH1 0x80 DUP2 ADD MLOAD PUSH1 0x4 DUP4 ADD SSTORE PUSH1 0xA0 DUP2 ADD MLOAD PUSH1 0x5 DUP4 ADD SSTORE PUSH2 0x3EC PUSH1 0x6 DUP4 ADD PUSH1 0xC0 DUP4 ADD MLOAD ISZERO ISZERO DUP2 SLOAD PUSH1 0xFF PUSH2 0xFF00 PUSH1 0xE0 DUP8 ADD MLOAD ISZERO ISZERO PUSH1 0x8 SHL AND SWAP3 AND SWAP1 PUSH2 0xFFFF NOT AND OR OR DUP2 SSTORE PUSH1 0xFF PUSH2 0x100 DUP5 ADD MLOAD AND PUSH3 0xFF0000 DUP3 SLOAD SWAP2 PUSH1 0x10 SHL AND SWAP1 PUSH3 0xFF0000 NOT AND OR SWAP1 SSTORE JUMP JUMPDEST PUSH2 0x120 DUP2 ADD MLOAD DUP1 MLOAD SWAP1 PUSH8 0xFFFFFFFFFFFFFFFF DUP3 GT PUSH2 0x622 JUMPI PUSH2 0x411 PUSH1 0x7 DUP6 ADD SLOAD PUSH2 0x1983 JUMP JUMPDEST PUSH1 0x1F DUP2 GT PUSH2 0x6B7 JUMPI JUMPDEST POP PUSH1 0x20 SWAP1 PUSH1 0x1F DUP4 GT PUSH1 0x1 EQ PUSH2 0x643 JUMPI PUSH2 0x140 SWAP4 SWAP3 SWAP2 PUSH1 0x0 SWAP2 DUP4 PUSH2 0x638 JUMPI JUMPDEST POP POP DUP2 PUSH1 0x1 SHL SWAP2 PUSH1 0x0 NOT SWAP1 PUSH1 0x3 SHL SHR NOT AND OR PUSH1 0x7 DUP5 ADD SSTORE JUMPDEST ADD MLOAD DUP1 MLOAD SWAP1 PUSH8 0xFFFFFFFFFFFFFFFF DUP3 GT PUSH2 0x622 JUMPI PUSH2 0x471 PUSH1 0x8 DUP5 ADD SLOAD PUSH2 0x1983 JUMP JUMPDEST PUSH1 0x1F DUP2 GT PUSH2 0x5D7 JUMPI JUMPDEST POP PUSH1 0x20 SWAP1 PUSH1 0x1F DUP4 GT PUSH1 0x1 EQ PUSH2 0x569 JUMPI PUSH1 0x8 SWAP3 SWAP2 PUSH1 0x0 SWAP2 DUP4 PUSH2 0x55E JUMPI JUMPDEST POP POP DUP2 PUSH1 0x1 SHL SWAP2 PUSH1 0x0 NOT SWAP1 PUSH1 0x3 SHL SHR NOT AND OR SWAP2 ADD SSTORE JUMPDEST PUSH1 0x1 SLOAD SWAP1 PUSH1 0x0 NOT DUP3 EQ PUSH2 0x548 JUMPI PUSH1 0x1 PUSH32 0x57CE3030B25E873CC2900F490AC3D24D068E7C280F934F8A29D540155038472E SWAP3 ADD PUSH1 0x1 SSTORE PUSH1 0x40 MLOAD DUP6 DUP6 DUP3 CALLDATACOPY DUP1 DUP7 DUP2 ADD PUSH1 0x0 DUP2 MSTORE SUB SWAP1 KECCAK256 SWAP3 PUSH2 0x507 PUSH1 0x40 MLOAD SWAP3 DUP4 SWAP3 PUSH1 0x64 CALLDATALOAD SWAP2 DUP5 PUSH2 0x1AF9 JUMP JUMPDEST SUB SWAP1 LOG2 DUP2 PUSH1 0x40 MLOAD SWAP3 DUP4 SWAP3 DUP4 CALLDATACOPY DUP2 ADD PUSH1 0x0 DUP2 MSTORE SUB SWAP1 KECCAK256 PUSH32 0x250CBEE58B321813116D5B3523C84B813EAA55482958E914517B1DDFBBEEA62A PUSH1 0x20 PUSH1 0x40 MLOAD TIMESTAMP DUP2 MSTORE LOG2 STOP JUMPDEST PUSH4 0x4E487B71 PUSH1 0xE0 SHL PUSH1 0x0 MSTORE PUSH1 0x11 PUSH1 0x4 MSTORE PUSH1 0x24 PUSH1 0x0 REVERT JUMPDEST ADD MLOAD SWAP1 POP CODESIZE DUP1 PUSH2 0x496 JUMP JUMPDEST SWAP1 PUSH1 0x1F NOT DUP4 AND SWAP2 PUSH1 0x8 DUP6 ADD PUSH1 0x0 MSTORE PUSH1 0x20 PUSH1 0x0 KECCAK256 SWAP3 PUSH1 0x0 JUMPDEST DUP2 DUP2 LT PUSH2 0x5BF JUMPI POP SWAP2 PUSH1 0x1 SWAP4 SWAP2 DUP6 PUSH1 0x8 SWAP7 SWAP5 LT PUSH2 0x5A6 JUMPI JUMPDEST POP POP POP DUP2 SHL ADD SWAP2 ADD SSTORE PUSH2 0x4AC JUMP JUMPDEST ADD MLOAD PUSH1 0x0 NOT PUSH1 0xF8 DUP5 PUSH1 0x3 SHL AND SHR NOT AND SWAP1 SSTORE CODESIZE DUP1 DUP1 PUSH2 0x598 JUMP JUMPDEST SWAP3 SWAP4 PUSH1 0x20 PUSH1 0x1 DUP2 SWAP3 DUP8 DUP7 ADD MLOAD DUP2 SSTORE ADD SWAP6 ADD SWAP4 ADD PUSH2 0x580 JUMP JUMPDEST PUSH1 0x8 DUP5 ADD PUSH1 0x0 MSTORE PUSH1 0x20 PUSH1 0x0 KECCAK256 PUSH1 0x1F DUP5 ADD PUSH1 0x5 SHR DUP2 ADD SWAP2 PUSH1 0x20 DUP6 LT PUSH2 0x618 JUMPI JUMPDEST PUSH1 0x1F ADD PUSH1 0x5 SHR ADD SWAP1 JUMPDEST DUP2 DUP2 LT PUSH2 0x60C JUMPI POP PUSH2 0x47A JUMP JUMPDEST PUSH1 0x0 DUP2 SSTORE PUSH1 0x1 ADD PUSH2 0x5FF JUMP JUMPDEST SWAP1 SWAP2 POP DUP2 SWAP1 PUSH2 0x5F6 JUMP JUMPDEST PUSH4 0x4E487B71 PUSH1 0xE0 SHL PUSH1 0x0 MSTORE PUSH1 0x41 PUSH1 0x4 MSTORE PUSH1 0x24 PUSH1 0x0 REVERT JUMPDEST ADD MLOAD SWAP1 POP CODESIZE DUP1 PUSH2 0x438 JUMP JUMPDEST SWAP1 PUSH1 0x7 DUP6 ADD PUSH1 0x0 MSTORE PUSH1 0x20 PUSH1 0x0 KECCAK256 SWAP2 PUSH1 0x0 JUMPDEST PUSH1 0x1F NOT DUP6 AND DUP2 LT PUSH2 0x69F JUMPI POP SWAP2 DUP4 SWAP2 PUSH1 0x1 SWAP4 PUSH2 0x140 SWAP7 SWAP6 PUSH1 0x1F NOT DUP2 AND LT PUSH2 0x686 JUMPI JUMPDEST POP POP POP DUP2 SHL ADD PUSH1 0x7 DUP5 ADD SSTORE PUSH2 0x450 JUMP JUMPDEST ADD MLOAD PUSH1 0x0 NOT PUSH1 0xF8 DUP5 PUSH1 0x3 SHL AND SHR NOT AND SWAP1 SSTORE CODESIZE DUP1 DUP1 PUSH2 0x676 JUMP JUMPDEST SWAP2 SWAP3 PUSH1 0x20 PUSH1 0x1 DUP2 SWAP3 DUP7 DUP6 ADD MLOAD DUP2 SSTORE ADD SWAP5 ADD SWAP3 ADD PUSH2 0x654 JUMP JUMPDEST PUSH1 0x7 DUP6 ADD PUSH1 0x0 MSTORE PUSH1 0x20 PUSH1 0x0 KECCAK256 PUSH1 0x1F DUP5 ADD PUSH1 0x5 SHR DUP2 ADD PUSH1 0x20 DUP6 LT PUSH2 0x6F7 JUMPI JUMPDEST PUSH1 0x1F DUP4 ADD PUSH1 0x5 SHR DUP3 ADD DUP2 LT PUSH2 0x6EB JUMPI POP POP PUSH2 0x41A JUMP JUMPDEST PUSH1 0x0 DUP2 SSTORE PUSH1 0x1 ADD PUSH2 0x6D5 JUMP JUMPDEST POP DUP1 PUSH2 0x6D5 JUMP JUMPDEST ADD MLOAD SWAP1 POP CODESIZE DUP1 PUSH2 0x36A JUMP JUMPDEST SWAP3 POP PUSH1 0x2 DUP6 ADD PUSH1 0x0 MSTORE PUSH1 0x20 PUSH1 0x0 KECCAK256 SWAP1 PUSH1 0x0 SWAP4 JUMPDEST PUSH1 0x1F NOT DUP5 AND DUP6 LT PUSH2 0x760 JUMPI PUSH1 0x1 SWAP5 POP DUP4 PUSH1 0x1F NOT DUP2 AND LT PUSH2 0x747 JUMPI JUMPDEST POP POP POP DUP2 SHL ADD PUSH1 0x2 DUP4 ADD SSTORE PUSH2 0x382 JUMP JUMPDEST ADD MLOAD PUSH1 0x0 NOT PUSH1 0xF8 DUP5 PUSH1 0x3 SHL AND SHR NOT AND SWAP1 SSTORE CODESIZE DUP1 DUP1 PUSH2 0x737 JUMP JUMPDEST DUP2 DUP2 ADD MLOAD DUP4 SSTORE PUSH1 0x20 SWAP5 DUP6 ADD SWAP5 PUSH1 0x1 SWAP1 SWAP4 ADD SWAP3 SWAP1 SWAP2 ADD SWAP1 PUSH2 0x71C JUMP JUMPDEST SWAP1 SWAP2 POP PUSH1 0x2 DUP6 ADD PUSH1 0x0 MSTORE PUSH1 0x20 PUSH1 0x0 KECCAK256 PUSH1 0x1F DUP5 ADD PUSH1 0x5 SHR DUP2 ADD PUSH1 0x20 DUP6 LT PUSH2 0x7C7 JUMPI JUMPDEST SWAP1 DUP5 SWAP4 SWAP3 SWAP2 JUMPDEST PUSH1 0x1F DUP4 ADD PUSH1 0x5 SHR DUP3 ADD DUP2 LT PUSH2 0x7B8 JUMPI POP POP PUSH2 0x353 JUMP JUMPDEST PUSH1 0x0 DUP2 SSTORE DUP6 SWAP5 POP PUSH1 0x1 ADD PUSH2 0x7A2 JUMP JUMPDEST POP DUP1 PUSH2 0x79C JUMP JUMPDEST ADD MLOAD SWAP1 POP CODESIZE DUP1 PUSH2 0x30C JUMP JUMPDEST SWAP3 POP PUSH1 0x1 DUP6 ADD PUSH1 0x0 MSTORE PUSH1 0x20 PUSH1 0x0 KECCAK256 SWAP1 PUSH1 0x0 SWAP4 JUMPDEST PUSH1 0x1F NOT DUP5 AND DUP6 LT PUSH2 0x830 JUMPI PUSH1 0x1 SWAP5 POP DUP4 PUSH1 0x1F NOT DUP2 AND LT PUSH2 0x817 JUMPI JUMPDEST POP POP POP DUP2 SHL ADD PUSH1 0x1 DUP4 ADD SSTORE PUSH2 0x324 JUMP JUMPDEST ADD MLOAD PUSH1 0x0 NOT PUSH1 0xF8 DUP5 PUSH1 0x3 SHL AND SHR NOT AND SWAP1 SSTORE CODESIZE DUP1 DUP1 PUSH2 0x807 JUMP JUMPDEST DUP2 DUP2 ADD MLOAD DUP4 SSTORE PUSH1 0x20 SWAP5 DUP6 ADD SWAP5 PUSH1 0x1 SWAP1 SWAP4 ADD SWAP3 SWAP1 SWAP2 ADD SWAP1 PUSH2 0x7EC JUMP JUMPDEST SWAP1 SWAP2 POP PUSH1 0x1 DUP6 ADD PUSH1 0x0 MSTORE PUSH1 0x20 PUSH1 0x0 KECCAK256 PUSH1 0x1F DUP5 ADD PUSH1 0x5 SHR DUP2 ADD PUSH1 0x20 DUP6 LT PUSH2 0x897 JUMPI JUMPDEST SWAP1 DUP5 SWAP4 SWAP3 SWAP2 JUMPDEST PUSH1 0x1F DUP4 ADD PUSH1 0x5 SHR DUP3 ADD DUP2 LT PUSH2 0x888 JUMPI POP POP PUSH2 0x2F5 JUMP JUMPDEST PUSH1 0x0 DUP2 SSTORE DUP6 SWAP5 POP PUSH1 0x1 ADD PUSH2 0x872 JUMP JUMPDEST POP DUP1 PUSH2 0x86C JUMP JUMPDEST ADD MLOAD SWAP1 POP CODESIZE DUP1 PUSH2 0x2B1 JUMP JUMPDEST SWAP3 POP DUP5 PUSH1 0x0 MSTORE PUSH1 0x20 PUSH1 0x0 KECCAK256 SWAP1 PUSH1 0x0 SWAP4 JUMPDEST PUSH1 0x1F NOT DUP5 AND DUP6 LT PUSH2 0x8FA JUMPI PUSH1 0x1 SWAP5 POP DUP4 PUSH1 0x1F NOT DUP2 AND LT PUSH2 0x8E1 JUMPI JUMPDEST POP POP POP DUP2 SHL ADD DUP3 SSTORE PUSH2 0x2C6 JUMP JUMPDEST ADD MLOAD PUSH1 0x0 NOT PUSH1 0xF8 DUP5 PUSH1 0x3 SHL AND SHR NOT AND SWAP1 SSTORE CODESIZE DUP1 DUP1 PUSH2 0x8D4 JUMP JUMPDEST DUP2 DUP2 ADD MLOAD DUP4 SSTORE PUSH1 0x20 SWAP5 DUP6 ADD SWAP5 PUSH1 0x1 SWAP1 SWAP4 ADD SWAP3 SWAP1 SWAP2 ADD SWAP1 PUSH2 0x8B9 JUMP JUMPDEST SWAP1 SWAP2 POP DUP5 PUSH1 0x0 MSTORE PUSH1 0x20 PUSH1 0x0 KECCAK256 PUSH1 0x1F DUP5 ADD PUSH1 0x5 SHR DUP2 ADD PUSH1 0x20 DUP6 LT PUSH2 0x95E JUMPI JUMPDEST SWAP1 DUP5 SWAP4 SWAP3 SWAP2 JUMPDEST PUSH1 0x1F DUP4 ADD PUSH1 0x5 SHR DUP3 ADD DUP2 LT PUSH2 0x94F JUMPI POP POP PUSH2 0x29A JUMP JUMPDEST PUSH1 0x0 DUP2 SSTORE DUP6 SWAP5 POP PUSH1 0x1 ADD PUSH2 0x939 JUMP JUMPDEST POP DUP1 PUSH2 0x933 JUMP JUMPDEST PUSH1 0x64 PUSH1 0x40 MLOAD PUSH3 0x461BCD PUSH1 0xE5 SHL DUP2 MSTORE PUSH1 0x20 PUSH1 0x4 DUP3 ADD MSTORE PUSH1 0x1D PUSH1 0x24 DUP3 ADD MSTORE PUSH32 0x4C61207265736572766120796120657869737465206F6E2D636861696E000000 PUSH1 0x44 DUP3 ADD MSTORE REVERT JUMPDEST PUSH1 0x0 DUP1 REVERT JUMPDEST CALLVALUE PUSH2 0x9A9 JUMPI PUSH2 0x9BC CALLDATASIZE PUSH2 0x1831 JUMP JUMPDEST SWAP3 SWAP2 PUSH2 0x9F2 PUSH1 0x1 PUSH1 0x1 PUSH1 0xA0 SHL SUB PUSH32 0x0 AND CALLER EQ PUSH2 0x1A88 JUMP JUMPDEST PUSH1 0x40 MLOAD DUP2 DUP5 DUP3 CALLDATACOPY PUSH1 0x20 DUP2 DUP4 DUP2 ADD PUSH1 0x0 DUP2 MSTORE SUB ADD SWAP1 KECCAK256 PUSH1 0xFF PUSH1 0x6 DUP3 ADD SLOAD AND ISZERO PUSH2 0xA9C JUMPI DUP1 DUP6 PUSH1 0x3 PUSH1 0x5 SWAP4 ADD SSTORE ADD SWAP3 DUP4 SLOAD SWAP4 PUSH1 0x3C DUP5 MUL SWAP5 DUP5 DUP7 DIV PUSH1 0x3C EQ DUP6 ISZERO OR ISZERO PUSH2 0x548 JUMPI PUSH32 0x95A77F02E9079398F3B4F7D6D4DA8B13327AD5E2A93E298F6BAB249AEABB0EA8 SWAP6 PUSH2 0xA60 SWAP2 PUSH2 0x1B28 JUMP JUMPDEST SWAP1 SSTORE DUP2 PUSH1 0x40 MLOAD SWAP3 DUP4 SWAP3 DUP4 CALLDATACOPY DUP2 ADD PUSH1 0x0 DUP2 MSTORE SUB SWAP1 KECCAK256 SWAP3 PUSH2 0xA97 PUSH1 0x40 MLOAD SWAP3 DUP4 SWAP3 TIMESTAMP SWAP2 DUP5 PUSH1 0x40 SWAP2 SWAP5 SWAP4 SWAP3 PUSH1 0x60 DUP3 ADD SWAP6 DUP3 MSTORE PUSH1 0x20 DUP3 ADD MSTORE ADD MSTORE JUMP JUMPDEST SUB SWAP1 LOG2 STOP JUMPDEST PUSH1 0x84 PUSH1 0x40 MLOAD PUSH3 0x461BCD PUSH1 0xE5 SHL DUP2 MSTORE PUSH1 0x20 PUSH1 0x4 DUP3 ADD MSTORE PUSH1 0x28 PUSH1 0x24 DUP3 ADD MSTORE PUSH32 0x52657365727661206E6F20616374697661202D206E6F20736520707565646520 PUSH1 0x44 DUP3 ADD MSTORE PUSH32 0x657874656E646572000000000000000000000000000000000000000000000000 PUSH1 0x64 DUP3 ADD MSTORE REVERT JUMPDEST CALLVALUE PUSH2 0x9A9 JUMPI PUSH1 0x0 CALLDATASIZE PUSH1 0x3 NOT ADD SLT PUSH2 0x9A9 JUMPI PUSH1 0x20 PUSH1 0x1 SLOAD PUSH1 0x40 MLOAD SWAP1 DUP2 MSTORE RETURN JUMPDEST CALLVALUE PUSH2 0x9A9 JUMPI PUSH1 0x20 CALLDATASIZE PUSH1 0x3 NOT ADD SLT PUSH2 0x9A9 JUMPI PUSH1 0x4 CALLDATALOAD PUSH8 0xFFFFFFFFFFFFFFFF DUP2 GT PUSH2 0x9A9 JUMPI PUSH1 0x20 PUSH2 0xB5A PUSH2 0xD2E SWAP3 CALLDATASIZE SWAP1 PUSH1 0x4 ADD PUSH2 0x1803 JUMP JUMPDEST SWAP2 SWAP1 PUSH1 0x60 PUSH2 0x140 PUSH1 0x40 MLOAD PUSH2 0xB6D DUP2 PUSH2 0x1868 JUMP JUMPDEST DUP3 DUP2 MSTORE DUP3 DUP6 DUP3 ADD MSTORE DUP3 PUSH1 0x40 DUP3 ADD MSTORE PUSH1 0x0 DUP4 DUP3 ADD MSTORE PUSH1 0x0 PUSH1 0x80 DUP3 ADD MSTORE PUSH1 0x0 PUSH1 0xA0 DUP3 ADD MSTORE PUSH1 0x0 PUSH1 0xC0 DUP3 ADD MSTORE PUSH1 0x0 PUSH1 0xE0 DUP3 ADD MSTORE PUSH1 0x0 PUSH2 0x100 DUP3 ADD MSTORE DUP3 PUSH2 0x120 DUP3 ADD MSTORE ADD MSTORE DUP3 PUSH1 0x40 MLOAD SWAP4 DUP5 SWAP3 DUP4 CALLDATACOPY DUP2 ADD PUSH1 0x0 DUP2 MSTORE SUB ADD SWAP1 KECCAK256 PUSH2 0xC5D PUSH1 0x8 PUSH1 0x40 MLOAD SWAP3 PUSH2 0xBD3 DUP5 PUSH2 0x1868 JUMP JUMPDEST PUSH2 0xBDC DUP2 PUSH2 0x19BD JUMP JUMPDEST DUP5 MSTORE PUSH2 0xBEA PUSH1 0x1 DUP3 ADD PUSH2 0x19BD JUMP JUMPDEST PUSH1 0x20 DUP6 ADD MSTORE PUSH2 0xBFB PUSH1 0x2 DUP3 ADD PUSH2 0x19BD JUMP JUMPDEST PUSH1 0x40 DUP6 ADD MSTORE PUSH1 0x3 DUP2 ADD SLOAD PUSH1 0x60 DUP6 ADD MSTORE PUSH1 0x4 DUP2 ADD SLOAD PUSH1 0x80 DUP6 ADD MSTORE PUSH1 0x5 DUP2 ADD SLOAD PUSH1 0xA0 DUP6 ADD MSTORE PUSH1 0xFF PUSH1 0x6 DUP3 ADD SLOAD DUP2 DUP2 AND ISZERO ISZERO PUSH1 0xC0 DUP8 ADD MSTORE DUP2 DUP2 DUP6 SHR AND ISZERO ISZERO PUSH1 0xE0 DUP8 ADD MSTORE PUSH1 0x10 SHR AND PUSH2 0x100 DUP6 ADD MSTORE PUSH2 0xC51 PUSH1 0x7 DUP3 ADD PUSH2 0x19BD JUMP JUMPDEST PUSH2 0x120 DUP6 ADD MSTORE ADD PUSH2 0x19BD JUMP JUMPDEST PUSH2 0x140 DUP3 ADD MSTORE PUSH1 0x40 MLOAD SWAP2 DUP3 SWAP2 PUSH1 0x20 DUP4 MSTORE PUSH2 0x140 PUSH2 0xD19 PUSH2 0xCBD PUSH2 0xCA7 PUSH2 0xC91 DUP6 MLOAD PUSH2 0x160 PUSH1 0x20 DUP11 ADD MSTORE PUSH2 0x180 DUP10 ADD SWAP1 PUSH2 0x1A63 JUMP JUMPDEST PUSH1 0x20 DUP7 ADD MLOAD DUP9 DUP3 SUB PUSH1 0x1F NOT ADD PUSH1 0x40 DUP11 ADD MSTORE PUSH2 0x1A63 JUMP JUMPDEST PUSH1 0x40 DUP6 ADD MLOAD DUP8 DUP3 SUB PUSH1 0x1F NOT ADD PUSH1 0x60 DUP10 ADD MSTORE PUSH2 0x1A63 JUMP JUMPDEST PUSH1 0x60 DUP5 ADD MLOAD PUSH1 0x80 DUP8 ADD MSTORE PUSH1 0x80 DUP5 ADD MLOAD PUSH1 0xA0 DUP8 ADD MSTORE PUSH1 0xA0 DUP5 ADD MLOAD PUSH1 0xC0 DUP8 ADD MSTORE PUSH1 0xC0 DUP5 ADD MLOAD ISZERO ISZERO PUSH1 0xE0 DUP8 ADD MSTORE PUSH1 0xE0 DUP5 ADD MLOAD ISZERO ISZERO PUSH2 0x100 DUP8 ADD MSTORE PUSH1 0xFF PUSH2 0x100 DUP6 ADD MLOAD AND PUSH2 0x120 DUP8 ADD MSTORE PUSH2 0x120 DUP5 ADD MLOAD PUSH1 0x1F NOT DUP8 DUP4 SUB ADD DUP5 DUP9 ADD MSTORE PUSH2 0x1A63 JUMP JUMPDEST SWAP2 ADD MLOAD DUP4 DUP3 SUB PUSH1 0x1F NOT ADD PUSH2 0x160 DUP6 ADD MSTORE PUSH2 0x1A63 JUMP JUMPDEST SUB SWAP1 RETURN JUMPDEST CALLVALUE PUSH2 0x9A9 JUMPI PUSH1 0x40 CALLDATASIZE PUSH1 0x3 NOT ADD SLT PUSH2 0x9A9 JUMPI PUSH1 0x4 CALLDATALOAD PUSH8 0xFFFFFFFFFFFFFFFF DUP2 GT PUSH2 0x9A9 JUMPI PUSH2 0xD63 SWAP1 CALLDATASIZE SWAP1 PUSH1 0x4 ADD PUSH2 0x1803 JUMP JUMPDEST SWAP1 PUSH1 0x24 SWAP2 DUP3 CALLDATALOAD SWAP2 PUSH1 0xFF DUP4 AND SWAP3 DUP4 DUP2 SUB PUSH2 0x9A9 JUMPI PUSH2 0xDAA PUSH1 0x1 PUSH1 0x1 PUSH1 0xA0 SHL SUB PUSH32 0x0 AND CALLER EQ PUSH2 0x1A88 JUMP JUMPDEST PUSH1 0x40 MLOAD SWAP5 DUP4 DUP4 DUP8 CALLDATACOPY DUP6 DUP5 DUP2 ADD PUSH1 0x0 DUP2 MSTORE PUSH1 0x20 SWAP8 DUP9 SWAP2 SUB ADD SWAP1 KECCAK256 PUSH1 0x6 DUP2 ADD SWAP3 DUP4 SLOAD SWAP4 PUSH1 0xFF DUP6 AND ISZERO PUSH2 0x1041 JUMPI PUSH1 0xFF DUP6 PUSH1 0x8 SHR AND PUSH2 0xFFE JUMPI PUSH1 0x1 SWAP5 DUP6 DUP10 LT ISZERO DUP1 PUSH2 0xFF3 JUMPI JUMPDEST ISZERO PUSH2 0xF8B JUMPI PUSH3 0xFFFFFF NOT AND PUSH1 0x10 SWAP3 SWAP1 SWAP3 SHL PUSH3 0xFF0000 AND SWAP2 SWAP1 SWAP2 OR PUSH2 0x100 OR SWAP1 SSTORE PUSH1 0x2 ADD PUSH1 0x40 MLOAD DUP8 DUP2 PUSH1 0x0 DUP5 SLOAD PUSH2 0xE21 DUP2 PUSH2 0x1983 JUMP JUMPDEST SWAP1 DUP9 DUP2 AND SWAP1 DUP2 ISZERO PUSH2 0xF76 JUMPI POP PUSH1 0x1 EQ PUSH2 0xF3B JUMPI JUMPDEST POP PUSH1 0x2 DUP2 MSTORE SUB ADD SWAP1 KECCAK256 PUSH2 0xE49 DUP8 DUP3 SLOAD PUSH2 0x1B28 JUMP JUMPDEST SWAP1 SSTORE DUP7 PUSH1 0x40 MLOAD DUP1 SWAP3 PUSH1 0x0 SWAP1 DUP1 SLOAD SWAP1 PUSH2 0xE60 DUP3 PUSH2 0x1983 JUMP JUMPDEST SWAP2 DUP9 DUP2 AND SWAP1 DUP2 ISZERO PUSH2 0xF24 JUMPI POP PUSH1 0x1 EQ PUSH2 0xEE8 JUMPI JUMPDEST POP POP PUSH1 0x3 DUP2 MSTORE SUB ADD SWAP1 KECCAK256 SWAP1 DUP2 SLOAD SWAP3 DUP4 ADD DUP1 SWAP4 GT PUSH2 0xED4 JUMPI POP SWAP2 PUSH1 0x40 SWAP4 SWAP2 PUSH32 0x720FAC15AD95E7E15D4B7D8E3F33218D270EA09A1DCBB4886720C63D1A509A64 SWAP6 SWAP4 SSTORE DUP2 DUP5 MLOAD SWAP3 DUP4 SWAP3 DUP4 CALLDATACOPY DUP2 ADD PUSH1 0x0 DUP2 MSTORE SUB SWAP1 KECCAK256 SWAP4 DUP3 MLOAD SWAP2 DUP3 MSTORE TIMESTAMP SWAP1 DUP3 ADD MSTORE LOG2 STOP JUMPDEST PUSH4 0x4E487B71 PUSH1 0xE0 SHL PUSH1 0x0 MSTORE PUSH1 0x11 PUSH1 0x4 MSTORE PUSH1 0x0 REVERT JUMPDEST SWAP1 SWAP2 POP PUSH1 0x0 MSTORE DUP3 PUSH1 0x0 KECCAK256 DUP4 DUP8 PUSH1 0x0 SWAP3 JUMPDEST DUP5 DUP5 LT PUSH2 0xF0C JUMPI POP POP POP POP DUP2 ADD DUP11 DUP1 PUSH2 0xE74 JUMP JUMPDEST DUP1 SLOAD DUP9 DUP6 ADD MSTORE DUP8 SWAP6 POP SWAP3 SWAP1 SWAP2 ADD SWAP2 DUP6 SWAP2 DUP10 SWAP2 ADD PUSH2 0xEF8 JUMP JUMPDEST PUSH1 0xFF NOT AND DUP6 MSTORE POP POP DUP1 ISZERO ISZERO MUL DUP3 ADD SWAP1 POP DUP11 DUP1 PUSH2 0xE74 JUMP JUMPDEST SWAP1 POP DUP5 PUSH1 0x0 MSTORE DUP3 PUSH1 0x0 KECCAK256 DUP4 DUP9 PUSH1 0x0 SWAP3 JUMPDEST DUP5 DUP5 LT PUSH2 0xF5E JUMPI POP POP POP POP DUP2 ADD DUP12 PUSH2 0xE35 JUMP JUMPDEST DUP1 SLOAD DUP9 DUP6 ADD MSTORE DUP8 SWAP6 POP SWAP3 SWAP1 SWAP2 ADD SWAP2 DUP6 SWAP2 DUP11 SWAP2 ADD PUSH2 0xF4B JUMP JUMPDEST PUSH1 0xFF NOT AND DUP5 MSTORE POP DUP1 ISZERO ISZERO MUL DUP3 ADD SWAP1 POP DUP12 PUSH2 0xE35 JUMP JUMPDEST PUSH1 0x84 DUP11 DUP7 PUSH1 0x40 MLOAD SWAP2 PUSH3 0x461BCD PUSH1 0xE5 SHL DUP4 MSTORE PUSH1 0x4 DUP4 ADD MSTORE DUP1 DUP3 ADD MSTORE PUSH32 0x4C612063616C696669636163696F6E20646562652073657220656E7472652031 PUSH1 0x44 DUP3 ADD MSTORE PUSH32 0x2079203500000000000000000000000000000000000000000000000000000000 PUSH1 0x64 DUP3 ADD MSTORE REVERT JUMPDEST POP PUSH1 0x5 DUP10 GT ISZERO PUSH2 0xDEC JUMP JUMPDEST PUSH1 0x64 DUP10 PUSH1 0x1F DUP7 PUSH1 0x40 MLOAD SWAP3 PUSH3 0x461BCD PUSH1 0xE5 SHL DUP5 MSTORE PUSH1 0x4 DUP5 ADD MSTORE DUP3 ADD MSTORE PUSH32 0x59612065737461206D61726361646120636F6D6F20636F6D706C657461646100 PUSH1 0x44 DUP3 ADD MSTORE REVERT JUMPDEST PUSH1 0x84 DUP10 PUSH1 0x21 DUP7 PUSH1 0x40 MLOAD SWAP3 PUSH3 0x461BCD PUSH1 0xE5 SHL DUP5 MSTORE PUSH1 0x4 DUP5 ADD MSTORE DUP3 ADD MSTORE PUSH32 0x52657365727661206E6F20616374697661206F2079612066696E616C697A6164 PUSH1 0x44 DUP3 ADD MSTORE PUSH32 0x6100000000000000000000000000000000000000000000000000000000000000 PUSH1 0x64 DUP3 ADD MSTORE REVERT JUMPDEST CALLVALUE PUSH2 0x9A9 JUMPI PUSH1 0x0 CALLDATASIZE PUSH1 0x3 NOT ADD SLT PUSH2 0x9A9 JUMPI PUSH1 0x20 PUSH1 0x40 MLOAD PUSH1 0x1 PUSH1 0x1 PUSH1 0xA0 SHL SUB PUSH32 0x0 AND DUP2 MSTORE RETURN JUMPDEST CALLVALUE PUSH2 0x9A9 JUMPI PUSH1 0xC0 PUSH32 0xB82E131FCFA5EE5AABC35F0DAFC55B7DEE8BEB0EBE72709B787A4F481D2040BA PUSH2 0x111F CALLDATASIZE PUSH2 0x1950 JUMP JUMPDEST SWAP4 SWAP2 PUSH2 0x1155 PUSH1 0x1 PUSH1 0x1 PUSH1 0xA0 SHL SUB PUSH32 0x0 AND CALLER EQ PUSH2 0x1A88 JUMP JUMPDEST PUSH1 0x6 PUSH1 0x40 MLOAD DUP4 DUP4 DUP3 CALLDATACOPY PUSH1 0x20 DUP2 DUP6 DUP2 ADD PUSH1 0x0 DUP2 MSTORE SUB ADD SWAP1 KECCAK256 ADD DUP1 SLOAD PUSH2 0x117B PUSH1 0xFF DUP3 AND PUSH2 0x1B35 JUMP JUMPDEST PUSH1 0xFF NOT AND SWAP1 SSTORE DUP2 PUSH1 0x40 MLOAD SWAP3 DUP4 SWAP3 DUP4 CALLDATACOPY DUP2 ADD PUSH1 0x0 DUP2 MSTORE SUB SWAP1 KECCAK256 SWAP3 PUSH1 0x40 MLOAD SWAP1 PUSH1 0x80 DUP3 MSTORE PUSH1 0xE PUSH1 0x80 DUP4 ADD MSTORE PUSH32 0x4341524547495645525F57494E53000000000000000000000000000000000000 PUSH1 0xA0 DUP4 ADD MSTORE PUSH1 0x20 DUP3 ADD MSTORE PUSH1 0x0 PUSH1 0x40 DUP3 ADD MSTORE TIMESTAMP PUSH1 0x60 DUP3 ADD MSTORE LOG2 STOP JUMPDEST CALLVALUE PUSH2 0x9A9 JUMPI PUSH1 0x40 CALLDATASIZE PUSH1 0x3 NOT ADD SLT PUSH2 0x9A9 JUMPI PUSH8 0xFFFFFFFFFFFFFFFF PUSH1 0x4 CALLDATALOAD DUP2 DUP2 GT PUSH2 0x9A9 JUMPI PUSH2 0x1210 SWAP1 CALLDATASIZE SWAP1 PUSH1 0x4 ADD PUSH2 0x1803 JUMP JUMPDEST SWAP2 PUSH1 0x24 CALLDATALOAD SWAP1 DUP2 GT PUSH2 0x9A9 JUMPI PUSH2 0x1229 SWAP1 CALLDATASIZE SWAP1 PUSH1 0x4 ADD PUSH2 0x1803 JUMP JUMPDEST SWAP3 PUSH2 0x125E PUSH1 0x1 PUSH1 0x1 PUSH1 0xA0 SHL SUB PUSH32 0x0 AND CALLER EQ PUSH2 0x1A88 JUMP JUMPDEST PUSH1 0x6 PUSH1 0x40 MLOAD DUP3 DUP6 DUP3 CALLDATACOPY PUSH1 0x20 DUP2 DUP5 DUP2 ADD PUSH1 0x0 DUP2 MSTORE SUB ADD SWAP1 KECCAK256 ADD SWAP3 DUP4 SLOAD SWAP4 PUSH1 0xFF DUP6 AND ISZERO PUSH2 0x12CF JUMPI PUSH32 0xC480801D2BB33EAF2FFBF8AD31A3555CB09EB6FECB6DD73536303055807FD286 SWAP5 PUSH1 0xFF NOT AND SWAP1 SSTORE DUP2 PUSH1 0x40 MLOAD SWAP3 DUP4 SWAP3 DUP4 CALLDATACOPY DUP2 ADD PUSH1 0x0 DUP2 MSTORE SUB SWAP1 KECCAK256 SWAP3 PUSH2 0xA97 PUSH1 0x40 MLOAD SWAP3 DUP4 SWAP3 TIMESTAMP SWAP2 DUP5 PUSH2 0x1AF9 JUMP JUMPDEST PUSH1 0x84 PUSH1 0x40 MLOAD PUSH3 0x461BCD PUSH1 0xE5 SHL DUP2 MSTORE PUSH1 0x20 PUSH1 0x4 DUP3 ADD MSTORE PUSH1 0x36 PUSH1 0x24 DUP3 ADD MSTORE PUSH32 0x4E6F2073652070756564652063616E63656C617220756E612072657365727661 PUSH1 0x44 DUP3 ADD MSTORE PUSH32 0x20696E616374697661206F2066696E616C697A61646100000000000000000000 PUSH1 0x64 DUP3 ADD MSTORE REVERT JUMPDEST CALLVALUE PUSH2 0x9A9 JUMPI PUSH2 0x135F PUSH1 0x20 PUSH2 0x134C CALLDATASIZE PUSH2 0x18EE JUMP JUMPDEST DUP2 PUSH1 0x40 MLOAD SWAP4 DUP3 DUP6 DUP1 SWAP5 MLOAD SWAP4 DUP5 SWAP3 ADD PUSH2 0x192D JUMP JUMPDEST DUP2 ADD PUSH1 0x0 DUP2 MSTORE SUB ADD SWAP1 KECCAK256 PUSH2 0x13E3 PUSH2 0xD2E PUSH2 0x1378 DUP4 PUSH2 0x19BD JUMP JUMPDEST PUSH2 0x143E PUSH2 0x1387 PUSH1 0x1 DUP7 ADD PUSH2 0x19BD JUMP JUMPDEST SWAP5 PUSH2 0x1394 PUSH1 0x2 DUP3 ADD PUSH2 0x19BD JUMP JUMPDEST SWAP1 PUSH1 0xFF PUSH1 0x3 DUP3 ADD SLOAD SWAP3 PUSH1 0x4 DUP4 ADD SLOAD PUSH1 0x5 DUP5 ADD SLOAD SWAP1 PUSH2 0x13FF PUSH1 0x6 DUP7 ADD SLOAD SWAP4 PUSH2 0x13F1 PUSH2 0x13CC PUSH1 0x8 PUSH2 0x13C5 PUSH1 0x7 DUP12 ADD PUSH2 0x19BD JUMP JUMPDEST SWAP10 ADD PUSH2 0x19BD JUMP JUMPDEST SWAP11 PUSH1 0x40 MLOAD SWAP15 DUP16 SWAP15 DUP16 SWAP3 PUSH2 0x160 DUP1 DUP6 MSTORE DUP5 ADD SWAP1 PUSH2 0x1A63 JUMP JUMPDEST SWAP2 PUSH1 0x20 DUP2 DUP5 SUB SWAP2 ADD MSTORE PUSH2 0x1A63 JUMP JUMPDEST DUP13 DUP2 SUB PUSH1 0x40 DUP15 ADD MSTORE SWAP1 PUSH2 0x1A63 JUMP JUMPDEST SWAP6 PUSH1 0x60 DUP12 ADD MSTORE PUSH1 0x80 DUP11 ADD MSTORE PUSH1 0xA0 DUP10 ADD MSTORE DUP2 DUP2 AND ISZERO ISZERO PUSH1 0xC0 DUP10 ADD MSTORE DUP2 DUP2 PUSH1 0x8 SHR AND ISZERO ISZERO PUSH1 0xE0 DUP10 ADD MSTORE PUSH1 0x10 SHR AND PUSH2 0x100 DUP8 ADD MSTORE DUP6 DUP3 SUB PUSH2 0x120 DUP8 ADD MSTORE PUSH2 0x1A63 JUMP JUMPDEST SWAP1 DUP4 DUP3 SUB PUSH2 0x140 DUP6 ADD MSTORE PUSH2 0x1A63 JUMP JUMPDEST CALLVALUE PUSH2 0x9A9 JUMPI PUSH1 0xC0 PUSH32 0xB82E131FCFA5EE5AABC35F0DAFC55B7DEE8BEB0EBE72709B787A4F481D2040BA PUSH2 0x147E CALLDATASIZE PUSH2 0x1950 JUMP JUMPDEST SWAP4 SWAP2 PUSH2 0x14B4 PUSH1 0x1 PUSH1 0x1 PUSH1 0xA0 SHL SUB PUSH32 0x0 AND CALLER EQ PUSH2 0x1A88 JUMP JUMPDEST PUSH1 0x6 PUSH1 0x40 MLOAD DUP4 DUP4 DUP3 CALLDATACOPY PUSH1 0x20 DUP2 DUP6 DUP2 ADD PUSH1 0x0 DUP2 MSTORE SUB ADD SWAP1 KECCAK256 ADD DUP1 SLOAD PUSH2 0x14DA PUSH1 0xFF DUP3 AND PUSH2 0x1B35 JUMP JUMPDEST PUSH1 0xFF NOT AND SWAP1 SSTORE DUP2 PUSH1 0x40 MLOAD SWAP3 DUP4 SWAP3 DUP4 CALLDATACOPY DUP2 ADD PUSH1 0x0 DUP2 MSTORE SUB SWAP1 KECCAK256 SWAP3 PUSH1 0x40 MLOAD SWAP1 PUSH1 0x80 DUP3 MSTORE PUSH1 0xB PUSH1 0x80 DUP4 ADD MSTORE PUSH32 0x434C49454E545F57494E53000000000000000000000000000000000000000000 PUSH1 0xA0 DUP4 ADD MSTORE PUSH1 0x0 PUSH1 0x20 DUP4 ADD MSTORE PUSH1 0x40 DUP3 ADD MSTORE TIMESTAMP PUSH1 0x60 DUP3 ADD MSTORE LOG2 STOP JUMPDEST CALLVALUE PUSH2 0x9A9 JUMPI PUSH1 0x20 CALLDATASIZE PUSH1 0x3 NOT ADD SLT PUSH2 0x9A9 JUMPI PUSH1 0x4 CALLDATALOAD PUSH8 0xFFFFFFFFFFFFFFFF DUP2 GT PUSH2 0x9A9 JUMPI PUSH2 0x1570 PUSH1 0x40 SWAP2 CALLDATASIZE SWAP1 PUSH1 0x4 ADD PUSH2 0x1803 JUMP JUMPDEST PUSH1 0x20 DUP4 MLOAD DUP3 DUP5 DUP3 CALLDATACOPY DUP2 DUP2 DUP5 DUP2 ADD PUSH1 0x2 DUP2 MSTORE SUB ADD SWAP1 KECCAK256 SLOAD SWAP3 DUP3 DUP6 MLOAD SWAP4 DUP5 SWAP3 DUP4 CALLDATACOPY DUP2 ADD PUSH1 0x3 DUP2 MSTORE SUB ADD SWAP1 KECCAK256 SLOAD DUP3 MLOAD SWAP2 DUP3 MSTORE PUSH1 0x20 DUP3 ADD MSTORE RETURN JUMPDEST CALLVALUE PUSH2 0x9A9 JUMPI PUSH1 0x20 PUSH2 0x15BA DUP2 PUSH2 0x134C CALLDATASIZE PUSH2 0x18EE JUMP JUMPDEST DUP2 ADD PUSH1 0x2 DUP2 MSTORE SUB ADD SWAP1 KECCAK256 SLOAD PUSH1 0x40 MLOAD SWAP1 DUP2 MSTORE RETURN JUMPDEST CALLVALUE PUSH2 0x9A9 JUMPI PUSH1 0x20 PUSH2 0x15E1 DUP2 PUSH2 0x134C CALLDATASIZE PUSH2 0x18EE JUMP JUMPDEST DUP2 ADD PUSH1 0x3 DUP2 MSTORE SUB ADD SWAP1 KECCAK256 SLOAD PUSH1 0x40 MLOAD SWAP1 DUP2 MSTORE RETURN JUMPDEST CALLVALUE PUSH2 0x9A9 JUMPI PUSH1 0xC0 PUSH32 0xB82E131FCFA5EE5AABC35F0DAFC55B7DEE8BEB0EBE72709B787A4F481D2040BA PUSH2 0x1625 CALLDATASIZE PUSH2 0x1831 JUMP JUMPDEST SWAP5 SWAP3 PUSH2 0x165E PUSH1 0x1 PUSH1 0x1 PUSH1 0xA0 SHL SUB SWAP4 SWAP3 SWAP4 PUSH32 0x0 AND CALLER EQ PUSH2 0x1A88 JUMP JUMPDEST PUSH1 0x6 PUSH1 0x40 MLOAD DUP4 DUP4 DUP3 CALLDATACOPY PUSH1 0x20 DUP2 DUP6 DUP2 ADD PUSH1 0x0 DUP2 MSTORE SUB ADD SWAP1 KECCAK256 ADD DUP1 SLOAD PUSH2 0x1684 PUSH1 0xFF DUP3 AND PUSH2 0x1B35 JUMP JUMPDEST PUSH1 0xFF NOT AND SWAP1 SSTORE DUP2 PUSH1 0x40 MLOAD SWAP3 DUP4 SWAP3 DUP4 CALLDATACOPY DUP2 ADD PUSH1 0x0 DUP2 MSTORE SUB SWAP1 KECCAK256 SWAP4 PUSH1 0x40 MLOAD SWAP2 PUSH1 0x80 DUP4 MSTORE PUSH1 0x7 PUSH1 0x80 DUP5 ADD MSTORE PUSH32 0x5041525449414C00000000000000000000000000000000000000000000000000 PUSH1 0xA0 DUP5 ADD MSTORE PUSH1 0x20 DUP4 ADD MSTORE PUSH1 0x40 DUP3 ADD MSTORE TIMESTAMP PUSH1 0x60 DUP3 ADD MSTORE LOG2 STOP JUMPDEST CALLVALUE PUSH2 0x9A9 JUMPI PUSH2 0x16F3 CALLDATASIZE PUSH2 0x1831 JUMP JUMPDEST SWAP3 SWAP2 PUSH2 0x1729 PUSH1 0x1 PUSH1 0x1 PUSH1 0xA0 SHL SUB PUSH32 0x0 AND CALLER EQ PUSH2 0x1A88 JUMP JUMPDEST PUSH1 0x40 MLOAD DUP2 DUP5 DUP3 CALLDATACOPY PUSH1 0x20 DUP2 DUP4 DUP2 ADD PUSH1 0x0 DUP2 MSTORE SUB ADD SWAP1 KECCAK256 PUSH1 0xFF PUSH1 0x6 DUP3 ADD SLOAD AND ISZERO PUSH2 0x1799 JUMPI DUP1 DUP6 PUSH1 0x3 PUSH1 0x5 SWAP4 ADD SSTORE ADD SWAP3 DUP4 SLOAD SWAP4 PUSH3 0x15180 SWAP5 DUP6 DUP6 MUL SWAP6 DUP6 DUP8 DIV EQ DUP6 ISZERO OR ISZERO PUSH2 0x548 JUMPI PUSH32 0x604CEAD4CE981373B8ABE4EC84AE3D707FF3C9FBD50F20DCFF59981C02B6D513 SWAP6 PUSH2 0xA60 SWAP2 PUSH2 0x1B28 JUMP JUMPDEST PUSH1 0x84 PUSH1 0x40 MLOAD PUSH3 0x461BCD PUSH1 0xE5 SHL DUP2 MSTORE PUSH1 0x20 PUSH1 0x4 DUP3 ADD MSTORE PUSH1 0x35 PUSH1 0x24 DUP3 ADD MSTORE PUSH32 0x52657365727661206E6F20616374697661202D206E6F20736520707565646520 PUSH1 0x44 DUP3 ADD MSTORE PUSH32 0x657874656E64657220656C20686F73706564616A650000000000000000000000 PUSH1 0x64 DUP3 ADD MSTORE REVERT JUMPDEST SWAP2 DUP2 PUSH1 0x1F DUP5 ADD SLT ISZERO PUSH2 0x9A9 JUMPI DUP3 CALLDATALOAD SWAP2 PUSH8 0xFFFFFFFFFFFFFFFF DUP4 GT PUSH2 0x9A9 JUMPI PUSH1 0x20 DUP4 DUP2 DUP7 ADD SWAP6 ADD ADD GT PUSH2 0x9A9 JUMPI JUMP JUMPDEST PUSH1 0x60 PUSH1 0x3 NOT DUP3 ADD SLT PUSH2 0x9A9 JUMPI PUSH1 0x4 CALLDATALOAD SWAP1 PUSH8 0xFFFFFFFFFFFFFFFF DUP3 GT PUSH2 0x9A9 JUMPI PUSH2 0x185C SWAP2 PUSH1 0x4 ADD PUSH2 0x1803 JUMP JUMPDEST SWAP1 SWAP2 PUSH1 0x24 CALLDATALOAD SWAP1 PUSH1 0x44 CALLDATALOAD SWAP1 JUMP JUMPDEST PUSH2 0x160 DUP2 ADD SWAP1 DUP2 LT PUSH8 0xFFFFFFFFFFFFFFFF DUP3 GT OR PUSH2 0x622 JUMPI PUSH1 0x40 MSTORE JUMP JUMPDEST SWAP1 PUSH1 0x1F DUP1 NOT SWAP2 ADD AND DUP2 ADD SWAP1 DUP2 LT PUSH8 0xFFFFFFFFFFFFFFFF DUP3 GT OR PUSH2 0x622 JUMPI PUSH1 0x40 MSTORE JUMP JUMPDEST SWAP3 SWAP2 SWAP3 PUSH8 0xFFFFFFFFFFFFFFFF DUP3 GT PUSH2 0x622 JUMPI PUSH1 0x40 MLOAD SWAP2 PUSH2 0x18D1 PUSH1 0x1F DUP3 ADD PUSH1 0x1F NOT AND PUSH1 0x20 ADD DUP5 PUSH2 0x1885 JUMP JUMPDEST DUP3 SWAP5 DUP2 DUP5 MSTORE DUP2 DUP4 ADD GT PUSH2 0x9A9 JUMPI DUP3 DUP2 PUSH1 0x20 SWAP4 DUP5 PUSH1 0x0 SWAP7 ADD CALLDATACOPY ADD ADD MSTORE JUMP JUMPDEST PUSH1 0x20 PUSH1 0x3 NOT DUP3 ADD SLT PUSH2 0x9A9 JUMPI PUSH1 0x4 CALLDATALOAD SWAP1 PUSH8 0xFFFFFFFFFFFFFFFF DUP3 GT PUSH2 0x9A9 JUMPI DUP1 PUSH1 0x23 DUP4 ADD SLT ISZERO PUSH2 0x9A9 JUMPI DUP2 PUSH1 0x24 PUSH2 0x192A SWAP4 PUSH1 0x4 ADD CALLDATALOAD SWAP2 ADD PUSH2 0x18A7 JUMP JUMPDEST SWAP1 JUMP JUMPDEST PUSH1 0x0 JUMPDEST DUP4 DUP2 LT PUSH2 0x1940 JUMPI POP POP PUSH1 0x0 SWAP2 ADD MSTORE JUMP JUMPDEST DUP2 DUP2 ADD MLOAD DUP4 DUP3 ADD MSTORE PUSH1 0x20 ADD PUSH2 0x1930 JUMP JUMPDEST PUSH1 0x40 PUSH1 0x3 NOT DUP3 ADD SLT PUSH2 0x9A9 JUMPI PUSH1 0x4 CALLDATALOAD SWAP1 PUSH8 0xFFFFFFFFFFFFFFFF DUP3 GT PUSH2 0x9A9 JUMPI PUSH2 0x197B SWAP2 PUSH1 0x4 ADD PUSH2 0x1803 JUMP JUMPDEST SWAP1 SWAP2 PUSH1 0x24 CALLDATALOAD SWAP1 JUMP JUMPDEST SWAP1 PUSH1 0x1 DUP3 DUP2 SHR SWAP3 AND DUP1 ISZERO PUSH2 0x19B3 JUMPI JUMPDEST PUSH1 0x20 DUP4 LT EQ PUSH2 0x199D JUMPI JUMP JUMPDEST PUSH4 0x4E487B71 PUSH1 0xE0 SHL PUSH1 0x0 MSTORE PUSH1 0x22 PUSH1 0x4 MSTORE PUSH1 0x24 PUSH1 0x0 REVERT JUMPDEST SWAP2 PUSH1 0x7F AND SWAP2 PUSH2 0x1992 JUMP JUMPDEST SWAP1 PUSH1 0x40 MLOAD SWAP2 DUP3 PUSH1 0x0 DUP3 SLOAD SWAP3 PUSH2 0x19D1 DUP5 PUSH2 0x1983 JUMP JUMPDEST SWAP1 DUP2 DUP5 MSTORE PUSH1 0x1 SWAP5 DUP6 DUP2 AND SWAP1 DUP2 PUSH1 0x0 EQ PUSH2 0x1A40 JUMPI POP PUSH1 0x1 EQ PUSH2 0x19FD JUMPI JUMPDEST POP POP PUSH2 0x19FB SWAP3 POP SUB DUP4 PUSH2 0x1885 JUMP JUMPDEST JUMP JUMPDEST SWAP1 SWAP4 SWAP2 POP PUSH1 0x0 MSTORE PUSH1 0x20 SWAP1 DUP2 PUSH1 0x0 KECCAK256 SWAP4 PUSH1 0x0 SWAP2 JUMPDEST DUP2 DUP4 LT PUSH2 0x1A28 JUMPI POP POP PUSH2 0x19FB SWAP4 POP DUP3 ADD ADD CODESIZE DUP1 PUSH2 0x19ED JUMP JUMPDEST DUP6 SLOAD DUP9 DUP5 ADD DUP6 ADD MSTORE SWAP5 DUP6 ADD SWAP5 DUP8 SWAP5 POP SWAP2 DUP4 ADD SWAP2 PUSH2 0x1A10 JUMP JUMPDEST SWAP2 POP POP PUSH2 0x19FB SWAP5 POP PUSH1 0x20 SWAP3 POP PUSH1 0xFF NOT AND DUP3 DUP5 ADD MSTORE ISZERO ISZERO PUSH1 0x5 SHL DUP3 ADD ADD CODESIZE DUP1 PUSH2 0x19ED JUMP JUMPDEST SWAP1 PUSH1 0x20 SWAP2 PUSH2 0x1A7C DUP2 MLOAD DUP1 SWAP3 DUP2 DUP6 MSTORE DUP6 DUP1 DUP7 ADD SWAP2 ADD PUSH2 0x192D JUMP JUMPDEST PUSH1 0x1F ADD PUSH1 0x1F NOT AND ADD ADD SWAP1 JUMP JUMPDEST ISZERO PUSH2 0x1A8F JUMPI JUMP JUMPDEST PUSH1 0x84 PUSH1 0x40 MLOAD PUSH3 0x461BCD PUSH1 0xE5 SHL DUP2 MSTORE PUSH1 0x20 PUSH1 0x4 DUP3 ADD MSTORE PUSH1 0x39 PUSH1 0x24 DUP3 ADD MSTORE PUSH32 0x536F6C6F20656C2061646D696E6973747261646F722064652047415244454E20 PUSH1 0x44 DUP3 ADD MSTORE PUSH32 0x7075656465206C6C616D617220657374612066756E63696F6E00000000000000 PUSH1 0x64 DUP3 ADD MSTORE REVERT JUMPDEST SWAP4 SWAP3 SWAP2 DUP1 PUSH1 0x60 SWAP2 PUSH1 0x20 SWAP4 PUSH1 0x40 DUP9 MSTORE DUP2 PUSH1 0x40 DUP10 ADD MSTORE DUP4 DUP9 ADD CALLDATACOPY PUSH1 0x0 DUP3 DUP3 DUP9 ADD ADD MSTORE PUSH1 0x1F DUP1 NOT SWAP2 ADD AND DUP6 ADD ADD SWAP4 ADD MSTORE JUMP JUMPDEST SWAP2 SWAP1 DUP3 ADD DUP1 SWAP3 GT PUSH2 0x548 JUMPI JUMP JUMPDEST ISZERO PUSH2 0x1B3C JUMPI JUMP JUMPDEST PUSH1 0x64 PUSH1 0x40 MLOAD PUSH3 0x461BCD PUSH1 0xE5 SHL DUP2 MSTORE PUSH1 0x20 PUSH1 0x4 DUP3 ADD MSTORE PUSH1 0x1F PUSH1 0x24 DUP3 ADD MSTORE PUSH32 0x52657365727661206E6F20616374697661206F2079612072657375656C746100 PUSH1 0x44 DUP3 ADD MSTORE REVERT INVALID LOG2 PUSH5 0x6970667358 0x22 SLT KECCAK256 0xE0 CALLDATACOPY AND DUP6 0xB4 BYTE 0xD2 LOG3 0xE9 MSTORE8 0xBB SWAP5 XOR 0x49 OR SWAP4 0x23 0xBD CALL 0xC8 PUSH29 0x6B92AA2F267F226B176F5C64736F6C6343000814003300000000000000 "},"methodIdentifiers":{"bookings(string)":"502bf35e","cancelBooking(string,string)":"833a5a14","caregiverRatingCount(string)":"1f007d8a","caregiverTotalRating(string)":"3ad9c924","createBooking(string,string,string,uint256,uint256,uint256,string,string)":"eebef596","extendHospedaje(string,uint256,uint256)":"01751d5d","extendWalk(string,uint256,uint256)":"c7d90c80","finalizeBooking(string,uint8)":"923d2d33","getBooking(string)":"9624493f","getReputation(string)":"3d1103f4","owner()":"8da5cb5b","resolveDisputeCaregiverWins(string,uint256)":"8bbf8c5f","resolveDisputeClientWins(string,uint256)":"42b6ef79","resolvePartial(string,uint256,uint256)":"02e84412","totalBookings()":"9668ce3e"}}}}}