{
  "_format": "hh-sol-artifact-1",
  "contractName": "GardenEscrow",
  "sourceName": "contracts/GardenEscrow.sol",
  "abi": [
    {
      "inputs": [],
      "stateMutability": "nonpayable",
      "type": "constructor"
    },
    {
      "anonymous": false,
      "inputs": [
        {
          "indexed": true,
          "internalType": "string",
          "name": "bookingId",
          "type": "string"
        },
        {
          "indexed": false,
          "internalType": "string",
          "name": "petName",
          "type": "string"
        },
        {
          "indexed": false,
          "internalType": "uint256",
          "name": "amountBs",
          "type": "uint256"
        }
      ],
      "name": "BookingCreated",
      "type": "event"
    },
    {
      "anonymous": false,
      "inputs": [
        {
          "indexed": true,
          "internalType": "string",
          "name": "bookingId",
          "type": "string"
        },
        {
          "indexed": false,
          "internalType": "string",
          "name": "verdict",
          "type": "string"
        },
        {
          "indexed": false,
          "internalType": "uint256",
          "name": "caregiverAmountBs",
          "type": "uint256"
        },
        {
          "indexed": false,
          "internalType": "uint256",
          "name": "clientDiscountBs",
          "type": "uint256"
        },
        {
          "indexed": false,
          "internalType": "uint256",
          "name": "timestamp",
          "type": "uint256"
        }
      ],
      "name": "DisputeResolved",
      "type": "event"
    },
    {
      "anonymous": false,
      "inputs": [
        {
          "indexed": true,
          "internalType": "string",
          "name": "bookingId",
          "type": "string"
        },
        {
          "indexed": false,
          "internalType": "uint256",
          "name": "timestamp",
          "type": "uint256"
        }
      ],
      "name": "PaymentConfirmed",
      "type": "event"
    },
    {
      "anonymous": false,
      "inputs": [
        {
          "indexed": true,
          "internalType": "string",
          "name": "bookingId",
          "type": "string"
        },
        {
          "indexed": false,
          "internalType": "string",
          "name": "reason",
          "type": "string"
        },
        {
          "indexed": false,
          "internalType": "uint256",
          "name": "timestamp",
          "type": "uint256"
        }
      ],
      "name": "ServiceCancelled",
      "type": "event"
    },
    {
      "anonymous": false,
      "inputs": [
        {
          "indexed": true,
          "internalType": "string",
          "name": "bookingId",
          "type": "string"
        },
        {
          "indexed": false,
          "internalType": "uint8",
          "name": "rating",
          "type": "uint8"
        },
        {
          "indexed": false,
          "internalType": "uint256",
          "name": "timestamp",
          "type": "uint256"
        }
      ],
      "name": "ServiceFinalized",
      "type": "event"
    },
    {
      "anonymous": false,
      "inputs": [
        {
          "indexed": true,
          "internalType": "string",
          "name": "bookingId",
          "type": "string"
        },
        {
          "indexed": false,
          "internalType": "uint256",
          "name": "additionalMinutes",
          "type": "uint256"
        },
        {
          "indexed": false,
          "internalType": "uint256",
          "name": "newAmountBs",
          "type": "uint256"
        },
        {
          "indexed": false,
          "internalType": "uint256",
          "name": "timestamp",
          "type": "uint256"
        }
      ],
      "name": "WalkExtended",
      "type": "event"
    },
    {
      "inputs": [
        {
          "internalType": "string",
          "name": "",
          "type": "string"
        }
      ],
      "name": "bookings",
      "outputs": [
        {
          "internalType": "string",
          "name": "bookingId",
          "type": "string"
        },
        {
          "internalType": "string",
          "name": "clientId",
          "type": "string"
        },
        {
          "internalType": "string",
          "name": "caregiverId",
          "type": "string"
        },
        {
          "internalType": "uint256",
          "name": "amountBs",
          "type": "uint256"
        },
        {
          "internalType": "uint256",
          "name": "startTime",
          "type": "uint256"
        },
        {
          "internalType": "uint256",
          "name": "endTime",
          "type": "uint256"
        },
        {
          "internalType": "bool",
          "name": "isActive",
          "type": "bool"
        },
        {
          "internalType": "bool",
          "name": "isCompleted",
          "type": "bool"
        },
        {
          "internalType": "uint8",
          "name": "rating",
          "type": "uint8"
        },
        {
          "internalType": "string",
          "name": "petName",
          "type": "string"
        },
        {
          "internalType": "string",
          "name": "serviceType",
          "type": "string"
        }
      ],
      "stateMutability": "view",
      "type": "function"
    },
    {
      "inputs": [
        {
          "internalType": "string",
          "name": "_bookingId",
          "type": "string"
        },
        {
          "internalType": "string",
          "name": "_reason",
          "type": "string"
        }
      ],
      "name": "cancelBooking",
      "outputs": [],
      "stateMutability": "nonpayable",
      "type": "function"
    },
    {
      "inputs": [
        {
          "internalType": "string",
          "name": "",
          "type": "string"
        }
      ],
      "name": "caregiverRatingCount",
      "outputs": [
        {
          "internalType": "uint256",
          "name": "",
          "type": "uint256"
        }
      ],
      "stateMutability": "view",
      "type": "function"
    },
    {
      "inputs": [
        {
          "internalType": "string",
          "name": "",
          "type": "string"
        }
      ],
      "name": "caregiverTotalRating",
      "outputs": [
        {
          "internalType": "uint256",
          "name": "",
          "type": "uint256"
        }
      ],
      "stateMutability": "view",
      "type": "function"
    },
    {
      "inputs": [
        {
          "internalType": "string",
          "name": "_bookingId",
          "type": "string"
        },
        {
          "internalType": "string",
          "name": "_clientId",
          "type": "string"
        },
        {
          "internalType": "string",
          "name": "_caregiverId",
          "type": "string"
        },
        {
          "internalType": "uint256",
          "name": "_amountBs",
          "type": "uint256"
        },
        {
          "internalType": "uint256",
          "name": "_startTime",
          "type": "uint256"
        },
        {
          "internalType": "uint256",
          "name": "_endTime",
          "type": "uint256"
        },
        {
          "internalType": "string",
          "name": "_petName",
          "type": "string"
        },
        {
          "internalType": "string",
          "name": "_serviceType",
          "type": "string"
        }
      ],
      "name": "createBooking",
      "outputs": [],
      "stateMutability": "nonpayable",
      "type": "function"
    },
    {
      "inputs": [
        {
          "internalType": "string",
          "name": "_bookingId",
          "type": "string"
        },
        {
          "internalType": "uint256",
          "name": "_additionalMinutes",
          "type": "uint256"
        },
        {
          "internalType": "uint256",
          "name": "_newAmountBs",
          "type": "uint256"
        }
      ],
      "name": "extendWalk",
      "outputs": [],
      "stateMutability": "nonpayable",
      "type": "function"
    },
    {
      "inputs": [
        {
          "internalType": "string",
          "name": "_bookingId",
          "type": "string"
        },
        {
          "internalType": "uint8",
          "name": "_rating",
          "type": "uint8"
        }
      ],
      "name": "finalizeBooking",
      "outputs": [],
      "stateMutability": "nonpayable",
      "type": "function"
    },
    {
      "inputs": [
        {
          "internalType": "string",
          "name": "_id",
          "type": "string"
        }
      ],
      "name": "getBooking",
      "outputs": [
        {
          "components": [
            {
              "internalType": "string",
              "name": "bookingId",
              "type": "string"
            },
            {
              "internalType": "string",
              "name": "clientId",
              "type": "string"
            },
            {
              "internalType": "string",
              "name": "caregiverId",
              "type": "string"
            },
            {
              "internalType": "uint256",
              "name": "amountBs",
              "type": "uint256"
            },
            {
              "internalType": "uint256",
              "name": "startTime",
              "type": "uint256"
            },
            {
              "internalType": "uint256",
              "name": "endTime",
              "type": "uint256"
            },
            {
              "internalType": "bool",
              "name": "isActive",
              "type": "bool"
            },
            {
              "internalType": "bool",
              "name": "isCompleted",
              "type": "bool"
            },
            {
              "internalType": "uint8",
              "name": "rating",
              "type": "uint8"
            },
            {
              "internalType": "string",
              "name": "petName",
              "type": "string"
            },
            {
              "internalType": "string",
              "name": "serviceType",
              "type": "string"
            }
          ],
          "internalType": "struct GardenEscrow.Booking",
          "name": "",
          "type": "tuple"
        }
      ],
      "stateMutability": "view",
      "type": "function"
    },
    {
      "inputs": [
        {
          "internalType": "string",
          "name": "_caregiverId",
          "type": "string"
        }
      ],
      "name": "getReputation",
      "outputs": [
        {
          "internalType": "uint256",
          "name": "totalRating",
          "type": "uint256"
        },
        {
          "internalType": "uint256",
          "name": "ratingCount",
          "type": "uint256"
        }
      ],
      "stateMutability": "view",
      "type": "function"
    },
    {
      "inputs": [],
      "name": "owner",
      "outputs": [
        {
          "internalType": "address",
          "name": "",
          "type": "address"
        }
      ],
      "stateMutability": "view",
      "type": "function"
    },
    {
      "inputs": [
        {
          "internalType": "string",
          "name": "_bookingId",
          "type": "string"
        },
        {
          "internalType": "uint256",
          "name": "_caregiverAmountBs",
          "type": "uint256"
        }
      ],
      "name": "resolveDisputeCaregiverWins",
      "outputs": [],
      "stateMutability": "nonpayable",
      "type": "function"
    },
    {
      "inputs": [
        {
          "internalType": "string",
          "name": "_bookingId",
          "type": "string"
        },
        {
          "internalType": "uint256",
          "name": "_refundAmountBs",
          "type": "uint256"
        }
      ],
      "name": "resolveDisputeClientWins",
      "outputs": [],
      "stateMutability": "nonpayable",
      "type": "function"
    },
    {
      "inputs": [
        {
          "internalType": "string",
          "name": "_bookingId",
          "type": "string"
        },
        {
          "internalType": "uint256",
          "name": "_caregiverAmountBs",
          "type": "uint256"
        },
        {
          "internalType": "uint256",
          "name": "_clientDiscountBs",
          "type": "uint256"
        }
      ],
      "name": "resolvePartial",
      "outputs": [],
      "stateMutability": "nonpayable",
      "type": "function"
    },
    {
      "inputs": [],
      "name": "totalBookings",
      "outputs": [
        {
          "internalType": "uint256",
          "name": "",
          "type": "uint256"
        }
      ],
      "stateMutability": "view",
      "type": "function"
    }
  ],
  "bytecode": "0x60a080604052346100545733608052611a82908161005a823960805181818161017f015281816109c101528181610d68015281816110af015281816111130152818161121c0152818161147701526116210152f35b600080fdfe6080604052600436101561001257600080fd5b60003560e01c806302e84412146115de5780631f007d8a146115b75780633ad9c924146115905780633d1103f41461152757806342b6ef7914611437578063502bf35e14611323578063833a5a14146111c35780638bbf8c5f146110d35780638da5cb5b1461108f578063923d2d3314610d175780639624493f14610b095780639668ce3e14610aeb578063c7d90c80146109a35763eebef596146100b657600080fd5b3461099e5761010036600319011261099e5760043567ffffffffffffffff811161099e576100e89036906004016116cf565b9060243567ffffffffffffffff811161099e576101099036906004016116cf565b9060443567ffffffffffffffff811161099e5761012a9036906004016116cf565b909260c43567ffffffffffffffff811161099e5761014c9036906004016116cf565b94909360e43567ffffffffffffffff811161099e5761016f9036906004016116cf565b9190926101a66001600160a01b037f0000000000000000000000000000000000000000000000000000000000000000163314611954565b60046040518b8b823760008c8201526020818d810103019020015461095a5789956101f36101ff9361024a976101ea8d6040519b6101e38d611734565b3691611773565b8a523691611773565b60208801523691611773565b60408501526064356060850152608435608085015260a43560a0850152600160c0850152600060e0850152600061010085015261023d368787611773565b6101208501523691611773565b61014082015260405185858237602081878101600081520301902090805180519067ffffffffffffffff8211610617578190610286855461184f565b601f811161090a575b50602090601f831160011461089e57600092610893575b50508160011b916000199060031b1c19161782555b602081015180519067ffffffffffffffff82116106175781906102e1600186015461184f565b601f8111610840575b50602090601f83116001146107ce576000926107c3575b50508160011b916000199060031b1c19161760018301555b604081015180519067ffffffffffffffff821161061757819061033f600286015461184f565b601f8111610770575b50602090601f83116001146106fe576000926106f3575b50508160011b916000199060031b1c19161760028301555b606081015160038301556080810151600483015560a081015160058301556103e16006830160c08301511515815460ff61ff0060e0870151151560081b1692169061ffff19161717815560ff6101008401511662ff000082549160101b169062ff00001916179055565b61012081015180519067ffffffffffffffff821161061757610406600785015461184f565b601f81116106ac575b50602090601f8311600114610638576101409392916000918361062d575b50508160011b916000199060031b1c19161760078401555b015180519067ffffffffffffffff821161061757610466600884015461184f565b601f81116105cc575b50602090601f831160011461055e576008929160009183610553575b50508160011b916000199060031b1c1916179101555b60015490600019821461053d5760017f57ce3030b25e873cc2900f490ac3d24d068e7c280f934f8a29d540155038472e9201600155604051858582378086810160008152039020926104fc60405192839260643591846119c5565b0390a28160405192839283378101600081520390207f250cbee58b321813116d5b3523c84b813eaa55482958e914517b1ddfbbeea62a6020604051428152a2005b634e487b7160e01b600052601160045260246000fd5b01519050388061048b565b90601f198316916008850160005260206000209260005b8181106105b45750916001939185600896941061059b575b505050811b019101556104a1565b015160001960f88460031b161c1916905538808061058d565b92936020600181928786015181550195019301610575565b600884016000526020600020601f840160051c8101916020851061060d575b601f0160051c01905b818110610601575061046f565b600081556001016105f4565b90915081906105eb565b634e487b7160e01b600052604160045260246000fd5b01519050388061042d565b906007850160005260206000209160005b601f198516811061069457509183916001936101409695601f1981161061067b575b505050811b016007840155610445565b015160001960f88460031b161c1916905538808061066b565b91926020600181928685015181550194019201610649565b600785016000526020600020601f840160051c8101602085106106ec575b601f830160051c820181106106e057505061040f565b600081556001016106ca565b50806106ca565b01519050388061035f565b9250600285016000526020600020906000935b601f1984168510610755576001945083601f1981161061073c575b505050811b016002830155610377565b015160001960f88460031b161c1916905538808061072c565b81810151835560209485019460019093019290910190610711565b909150600285016000526020600020601f840160051c8101602085106107bc575b90849392915b601f830160051c820181106107ad575050610348565b60008155859450600101610797565b5080610791565b015190503880610301565b9250600185016000526020600020906000935b601f1984168510610825576001945083601f1981161061080c575b505050811b016001830155610319565b015160001960f88460031b161c191690553880806107fc565b818101518355602094850194600190930192909101906107e1565b909150600185016000526020600020601f840160051c81016020851061088c575b90849392915b601f830160051c8201811061087d5750506102ea565b60008155859450600101610867565b5080610861565b0151905038806102a6565b9250846000526020600020906000935b601f19841685106108ef576001945083601f198116106108d6575b505050811b0182556102bb565b015160001960f88460031b161c191690553880806108c9565b818101518355602094850194600190930192909101906108ae565b909150846000526020600020601f840160051c810160208510610953575b90849392915b601f830160051c8201811061094457505061028f565b6000815585945060010161092e565b5080610928565b606460405162461bcd60e51b815260206004820152601d60248201527f4c61207265736572766120796120657869737465206f6e2d636861696e0000006044820152fd5b600080fd5b3461099e576109b1366116fd565b9291906109e86001600160a01b037f0000000000000000000000000000000000000000000000000000000000000000163314611954565b60405182848237602081848101600081520301902060ff60068201541615610a81578085600360059301550191825493603c830293838504603c148415171561053d57610a586060957f95a77f02e9079398f3b4f7d6d4da8b13327ad5e2a93e298f6bab249aeabb0ea8976119f4565b9055816040519283928337810160008152039020936040519182526020820152426040820152a2005b608460405162461bcd60e51b815260206004820152602860248201527f52657365727661206e6f20616374697661202d206e6f2073652070756564652060448201527f657874656e6465720000000000000000000000000000000000000000000000006064820152fd5b3461099e57600036600319011261099e576020600154604051908152f35b3461099e57602036600319011261099e5760043567ffffffffffffffff811161099e576020610b3f610d139236906004016116cf565b91906060610140604051610b5281611734565b828152828582015282604082015260008382015260006080820152600060a0820152600060c0820152600060e0820152600061010082015282610120820152015282604051938492833781016000815203019020610c42600860405192610bb884611734565b610bc181611889565b8452610bcf60018201611889565b6020850152610be060028201611889565b60408501526003810154606085015260048101546080850152600581015460a085015260ff6006820154818116151560c08701528181851c16151560e087015260101c16610100850152610c3660078201611889565b61012085015201611889565b61014082015260405191829160208352610140610cfe610ca2610c8c610c76855161016060208a015261018089019061192f565b6020860151888203601f190160408a015261192f565b6040850151878203601f1901606089015261192f565b60608401516080870152608084015160a087015260a084015160c087015260c0840151151560e087015260e0840151151561010087015260ff61010085015116610120870152610120840151601f19878303018488015261192f565b910151838203601f190161016085015261192f565b0390f35b3461099e57604036600319011261099e5760043567ffffffffffffffff811161099e57610d489036906004016116cf565b9060249182359160ff83169283810361099e57610d8f6001600160a01b037f0000000000000000000000000000000000000000000000000000000000000000163314611954565b60405194838387378584810160008152602097889103019020600681019283549360ff8516156110265760ff8560081c16610fe3576001948589101580610fd8575b15610f705762ffffff191660109290921b62ff00001691909117610100179055600201604051878160008454610e068161184f565b90888116908115610f5b5750600114610f20575b506002815203019020610e2e8782546119f4565b9055866040518092600090805490610e458261184f565b91888116908115610f095750600114610ecd575b50506003815203019020908154928301809311610eb9575091604093917f720fac15ad95e7e15d4b7d8e3f33218d270ea09a1dcbb4886720c63d1a509a6495935581845192839283378101600081520390209382519182524290820152a2005b634e487b7160e01b60005260116004526000fd5b9091506000528260002083876000925b848410610ef1575050505081018a80610e59565b80548885015287955092909101918591899101610edd565b60ff19168552505080151502820190508a80610e59565b9050846000528260002083886000925b848410610f43575050505081018b610e1a565b805488850152879550929091019185918a9101610f30565b60ff191684525080151502820190508b610e1a565b60848a866040519162461bcd60e51b83526004830152808201527f4c612063616c696669636163696f6e20646562652073657220656e747265203160448201527f20792035000000000000000000000000000000000000000000000000000000006064820152fd5b506005891115610dd1565b606489601f866040519262461bcd60e51b845260048401528201527f59612065737461206d61726361646120636f6d6f20636f6d706c6574616461006044820152fd5b6084896021866040519262461bcd60e51b845260048401528201527f52657365727661206e6f20616374697661206f2079612066696e616c697a616460448201527f61000000000000000000000000000000000000000000000000000000000000006064820152fd5b3461099e57600036600319011261099e5760206040516001600160a01b037f0000000000000000000000000000000000000000000000000000000000000000168152f35b3461099e5760c07fb82e131fcfa5ee5aabc35f0dafc55b7dee8beb0ebe72709b787a4f481d2040ba6111043661181c565b939161113a6001600160a01b037f0000000000000000000000000000000000000000000000000000000000000000163314611954565b600660405183838237602081858101600081520301902001805461116060ff8216611a01565b60ff19169055816040519283928337810160008152039020926040519060808252600e60808301527f4341524547495645525f57494e5300000000000000000000000000000000000060a0830152602082015260006040820152426060820152a2005b3461099e57604036600319011261099e5767ffffffffffffffff60043581811161099e576111f59036906004016116cf565b9160243590811161099e5761120e9036906004016116cf565b926112436001600160a01b037f0000000000000000000000000000000000000000000000000000000000000000163314611954565b6006604051828582376020818481016000815203019020019283549360ff8516156112b9577fc480801d2bb33eaf2ffbf8ad31a3555cb09eb6fecb6dd73536303055807fd2869460ff19169055816040519283928337810160008152039020926112b46040519283924291846119c5565b0390a2005b608460405162461bcd60e51b815260206004820152603660248201527f4e6f2073652070756564652063616e63656c617220756e61207265736572766160448201527f20696e616374697661206f2066696e616c697a616461000000000000000000006064820152fd5b3461099e576113496020611336366117ba565b81604051938285809451938492016117f9565b810160008152030190206113cd610d1361136283611889565b61142861137160018601611889565b9461137e60028201611889565b9060ff60038201549260048301546005840154906113e96006860154936113db6113b660086113af60078b01611889565b9901611889565b9a6040519e8f9e8f9261016080855284019061192f565b91602081840391015261192f565b8c810360408e01529061192f565b9560608b015260808a015260a0890152818116151560c0890152818160081c16151560e089015260101c1661010087015285820361012087015261192f565b9083820361014085015261192f565b3461099e5760c07fb82e131fcfa5ee5aabc35f0dafc55b7dee8beb0ebe72709b787a4f481d2040ba6114683661181c565b939161149e6001600160a01b037f0000000000000000000000000000000000000000000000000000000000000000163314611954565b60066040518383823760208185810160008152030190200180546114c460ff8216611a01565b60ff19169055816040519283928337810160008152039020926040519060808252600b60808301527f434c49454e545f57494e5300000000000000000000000000000000000000000060a0830152600060208301526040820152426060820152a2005b3461099e57602036600319011261099e5760043567ffffffffffffffff811161099e5761155a60409136906004016116cf565b60208351828482378181848101600281520301902054928285519384928337810160038152030190205482519182526020820152f35b3461099e5760206115a481611336366117ba565b8101600281520301902054604051908152f35b3461099e5760206115cb81611336366117ba565b8101600381520301902054604051908152f35b3461099e5760c07fb82e131fcfa5ee5aabc35f0dafc55b7dee8beb0ebe72709b787a4f481d2040ba61160f366116fd565b94926116486001600160a01b039392937f0000000000000000000000000000000000000000000000000000000000000000163314611954565b600660405183838237602081858101600081520301902001805461166e60ff8216611a01565b60ff19169055816040519283928337810160008152039020936040519160808352600760808401527f5041525449414c0000000000000000000000000000000000000000000000000060a084015260208301526040820152426060820152a2005b9181601f8401121561099e5782359167ffffffffffffffff831161099e576020838186019501011161099e57565b606060031982011261099e576004359067ffffffffffffffff821161099e57611728916004016116cf565b90916024359060443590565b610160810190811067ffffffffffffffff82111761061757604052565b90601f8019910116810190811067ffffffffffffffff82111761061757604052565b92919267ffffffffffffffff8211610617576040519161179d601f8201601f191660200184611751565b82948184528183011161099e578281602093846000960137010152565b602060031982011261099e576004359067ffffffffffffffff821161099e578060238301121561099e578160246117f693600401359101611773565b90565b60005b83811061180c5750506000910152565b81810151838201526020016117fc565b604060031982011261099e576004359067ffffffffffffffff821161099e57611847916004016116cf565b909160243590565b90600182811c9216801561187f575b602083101461186957565b634e487b7160e01b600052602260045260246000fd5b91607f169161185e565b906040519182600082549261189d8461184f565b90818452600194858116908160001461190c57506001146118c9575b50506118c792500383611751565b565b9093915060005260209081600020936000915b8183106118f45750506118c7935082010138806118b9565b855488840185015294850194879450918301916118dc565b9150506118c794506020925060ff191682840152151560051b82010138806118b9565b90602091611948815180928185528580860191016117f9565b601f01601f1916010190565b1561195b57565b608460405162461bcd60e51b815260206004820152603960248201527f536f6c6f20656c2061646d696e6973747261646f722064652047415244454e2060448201527f7075656465206c6c616d617220657374612066756e63696f6e000000000000006064820152fd5b9392918060609160209360408852816040890152838801376000828288010152601f8019910116850101930152565b9190820180921161053d57565b15611a0857565b606460405162461bcd60e51b815260206004820152601f60248201527f52657365727661206e6f20616374697661206f2079612072657375656c7461006044820152fdfea2646970667358221220e6f27d80c1ebcd8ef9665b953f85b635d9a56e70d3980ed92c8b42f95a21208d64736f6c63430008140033",
  "linkReferences": {},
  "deployedLinkReferences": {}
}