{
  "_format": "hh-sol-artifact-1",
  "contractName": "GardenEscrow",
  "sourceName": "contracts/GardenEscrow.sol",
  "abi": [
    {
      "inputs": [],
      "stateMutability": "nonpayable",
      "type": "constructor"
    },
    {
      "anonymous": false,
      "inputs": [
        {
          "indexed": true,
          "internalType": "string",
          "name": "bookingId",
          "type": "string"
        },
        {
          "indexed": false,
          "internalType": "string",
          "name": "petName",
          "type": "string"
        },
        {
          "indexed": false,
          "internalType": "uint256",
          "name": "amountBs",
          "type": "uint256"
        }
      ],
      "name": "BookingCreated",
      "type": "event"
    },
    {
      "anonymous": false,
      "inputs": [
        {
          "indexed": true,
          "internalType": "string",
          "name": "bookingId",
          "type": "string"
        },
        {
          "indexed": false,
          "internalType": "uint256",
          "name": "timestamp",
          "type": "uint256"
        }
      ],
      "name": "PaymentConfirmed",
      "type": "event"
    },
    {
      "anonymous": false,
      "inputs": [
        {
          "indexed": true,
          "internalType": "string",
          "name": "bookingId",
          "type": "string"
        },
        {
          "indexed": false,
          "internalType": "string",
          "name": "reason",
          "type": "string"
        },
        {
          "indexed": false,
          "internalType": "uint256",
          "name": "timestamp",
          "type": "uint256"
        }
      ],
      "name": "ServiceCancelled",
      "type": "event"
    },
    {
      "anonymous": false,
      "inputs": [
        {
          "indexed": true,
          "internalType": "string",
          "name": "bookingId",
          "type": "string"
        },
        {
          "indexed": false,
          "internalType": "uint8",
          "name": "rating",
          "type": "uint8"
        },
        {
          "indexed": false,
          "internalType": "uint256",
          "name": "timestamp",
          "type": "uint256"
        }
      ],
      "name": "ServiceFinalized",
      "type": "event"
    },
    {
      "inputs": [
        {
          "internalType": "string",
          "name": "",
          "type": "string"
        }
      ],
      "name": "bookings",
      "outputs": [
        {
          "internalType": "string",
          "name": "bookingId",
          "type": "string"
        },
        {
          "internalType": "string",
          "name": "clientId",
          "type": "string"
        },
        {
          "internalType": "string",
          "name": "caregiverId",
          "type": "string"
        },
        {
          "internalType": "uint256",
          "name": "amountBs",
          "type": "uint256"
        },
        {
          "internalType": "uint256",
          "name": "startTime",
          "type": "uint256"
        },
        {
          "internalType": "uint256",
          "name": "endTime",
          "type": "uint256"
        },
        {
          "internalType": "bool",
          "name": "isActive",
          "type": "bool"
        },
        {
          "internalType": "bool",
          "name": "isCompleted",
          "type": "bool"
        },
        {
          "internalType": "uint8",
          "name": "rating",
          "type": "uint8"
        },
        {
          "internalType": "string",
          "name": "petName",
          "type": "string"
        },
        {
          "internalType": "string",
          "name": "serviceType",
          "type": "string"
        }
      ],
      "stateMutability": "view",
      "type": "function"
    },
    {
      "inputs": [
        {
          "internalType": "string",
          "name": "_bookingId",
          "type": "string"
        },
        {
          "internalType": "string",
          "name": "_reason",
          "type": "string"
        }
      ],
      "name": "cancelBooking",
      "outputs": [],
      "stateMutability": "nonpayable",
      "type": "function"
    },
    {
      "inputs": [
        {
          "internalType": "string",
          "name": "_bookingId",
          "type": "string"
        },
        {
          "internalType": "string",
          "name": "_clientId",
          "type": "string"
        },
        {
          "internalType": "string",
          "name": "_caregiverId",
          "type": "string"
        },
        {
          "internalType": "uint256",
          "name": "_amountBs",
          "type": "uint256"
        },
        {
          "internalType": "uint256",
          "name": "_startTime",
          "type": "uint256"
        },
        {
          "internalType": "uint256",
          "name": "_endTime",
          "type": "uint256"
        },
        {
          "internalType": "string",
          "name": "_petName",
          "type": "string"
        },
        {
          "internalType": "string",
          "name": "_serviceType",
          "type": "string"
        }
      ],
      "name": "createBooking",
      "outputs": [],
      "stateMutability": "nonpayable",
      "type": "function"
    },
    {
      "inputs": [
        {
          "internalType": "string",
          "name": "_bookingId",
          "type": "string"
        },
        {
          "internalType": "uint8",
          "name": "_rating",
          "type": "uint8"
        }
      ],
      "name": "finalizeBooking",
      "outputs": [],
      "stateMutability": "nonpayable",
      "type": "function"
    },
    {
      "inputs": [
        {
          "internalType": "string",
          "name": "_id",
          "type": "string"
        }
      ],
      "name": "getBooking",
      "outputs": [
        {
          "components": [
            {
              "internalType": "string",
              "name": "bookingId",
              "type": "string"
            },
            {
              "internalType": "string",
              "name": "clientId",
              "type": "string"
            },
            {
              "internalType": "string",
              "name": "caregiverId",
              "type": "string"
            },
            {
              "internalType": "uint256",
              "name": "amountBs",
              "type": "uint256"
            },
            {
              "internalType": "uint256",
              "name": "startTime",
              "type": "uint256"
            },
            {
              "internalType": "uint256",
              "name": "endTime",
              "type": "uint256"
            },
            {
              "internalType": "bool",
              "name": "isActive",
              "type": "bool"
            },
            {
              "internalType": "bool",
              "name": "isCompleted",
              "type": "bool"
            },
            {
              "internalType": "uint8",
              "name": "rating",
              "type": "uint8"
            },
            {
              "internalType": "string",
              "name": "petName",
              "type": "string"
            },
            {
              "internalType": "string",
              "name": "serviceType",
              "type": "string"
            }
          ],
          "internalType": "struct GardenEscrow.Booking",
          "name": "",
          "type": "tuple"
        }
      ],
      "stateMutability": "view",
      "type": "function"
    },
    {
      "inputs": [],
      "name": "owner",
      "outputs": [
        {
          "internalType": "address",
          "name": "",
          "type": "address"
        }
      ],
      "stateMutability": "view",
      "type": "function"
    },
    {
      "inputs": [],
      "name": "totalBookings",
      "outputs": [
        {
          "internalType": "uint256",
          "name": "",
          "type": "uint256"
        }
      ],
      "stateMutability": "view",
      "type": "function"
    }
  ],
  "bytecode": "0x60a08060405234610038573360805261138d908161003e823960805181818161013f01528181610beb01528181610e020152610e8c0152f35b600080fdfe6080604052600436101561001257600080fd5b60003560e01c8063502bf35e14610f93578063833a5a1414610e265780638da5cb5b14610dd5578063923d2d3314610b8f5780639624493f146109815780639668ce3e146109635763eebef5961461006957600080fd5b3461095e5761010036600319011261095e5760043567ffffffffffffffff811161095e5761009b903690600401611289565b9060243567ffffffffffffffff811161095e576100bc903690600401611289565b9060443567ffffffffffffffff811161095e576100dd903690600401611289565b909260c43567ffffffffffffffff811161095e576100ff903690600401611289565b94909360e43567ffffffffffffffff811161095e57610122903690600401611289565b91909261016673ffffffffffffffffffffffffffffffffffffffff7f00000000000000000000000000000000000000000000000000000000000000001633146112b7565b60046040518b8b823760008c8201526020818d810103019020015461091a5789956101b36101bf9361020a976101aa8d6040519b6101a38d6110db565b369161111a565b8a52369161111a565b6020880152369161111a565b60408501526064356060850152608435608085015260a43560a0850152600160c0850152600060e085015260006101008501526101fd36878761111a565b610120850152369161111a565b61014082015260405185858237602081878101600081520301902090805180519067ffffffffffffffff82116105d75781906102468554611184565b601f81116108ca575b50602090601f831160011461085e57600092610853575b50508160011b916000199060031b1c19161782555b602081015180519067ffffffffffffffff82116105d75781906102a16001860154611184565b601f8111610800575b50602090601f831160011461078e57600092610783575b50508160011b916000199060031b1c19161760018301555b604081015180519067ffffffffffffffff82116105d75781906102ff6002860154611184565b601f8111610730575b50602090601f83116001146106be576000926106b3575b50508160011b916000199060031b1c19161760028301555b606081015160038301556080810151600483015560a081015160058301556103a16006830160c08301511515815460ff61ff0060e0870151151560081b1692169061ffff19161717815560ff6101008401511662ff000082549160101b169062ff00001916179055565b61012081015180519067ffffffffffffffff82116105d7576103c66007850154611184565b601f811161066c575b50602090601f83116001146105f857610140939291600091836105ed575b50508160011b916000199060031b1c19161760078401555b015180519067ffffffffffffffff82116105d7576104266008840154611184565b601f811161058c575b50602090601f831160011461051e576008929160009183610513575b50508160011b916000199060031b1c1916179101555b6001549060001982146104fd5760017f57ce3030b25e873cc2900f490ac3d24d068e7c280f934f8a29d540155038472e9201600155604051858582378086810160008152039020926104bc6040519283926064359184611328565b0390a28160405192839283378101600081520390207f250cbee58b321813116d5b3523c84b813eaa55482958e914517b1ddfbbeea62a6020604051428152a2005b634e487b7160e01b600052601160045260246000fd5b01519050388061044b565b90601f198316916008850160005260206000209260005b8181106105745750916001939185600896941061055b575b505050811b01910155610461565b015160001960f88460031b161c1916905538808061054d565b92936020600181928786015181550195019301610535565b600884016000526020600020601f840160051c810191602085106105cd575b601f0160051c01905b8181106105c1575061042f565b600081556001016105b4565b90915081906105ab565b634e487b7160e01b600052604160045260246000fd5b0151905038806103ed565b906007850160005260206000209160005b601f198516811061065457509183916001936101409695601f1981161061063b575b505050811b016007840155610405565b015160001960f88460031b161c1916905538808061062b565b91926020600181928685015181550194019201610609565b600785016000526020600020601f840160051c8101602085106106ac575b601f830160051c820181106106a05750506103cf565b6000815560010161068a565b508061068a565b01519050388061031f565b9250600285016000526020600020906000935b601f1984168510610715576001945083601f198116106106fc575b505050811b016002830155610337565b015160001960f88460031b161c191690553880806106ec565b818101518355602094850194600190930192909101906106d1565b909150600285016000526020600020601f840160051c81016020851061077c575b90849392915b601f830160051c8201811061076d575050610308565b60008155859450600101610757565b5080610751565b0151905038806102c1565b9250600185016000526020600020906000935b601f19841685106107e5576001945083601f198116106107cc575b505050811b0160018301556102d9565b015160001960f88460031b161c191690553880806107bc565b818101518355602094850194600190930192909101906107a1565b909150600185016000526020600020601f840160051c81016020851061084c575b90849392915b601f830160051c8201811061083d5750506102aa565b60008155859450600101610827565b5080610821565b015190503880610266565b9250846000526020600020906000935b601f19841685106108af576001945083601f19811610610896575b505050811b01825561027b565b015160001960f88460031b161c19169055388080610889565b8181015183556020948501946001909301929091019061086e565b909150846000526020600020601f840160051c810160208510610913575b90849392915b601f830160051c8201811061090457505061024f565b600081558594506001016108ee565b50806108e8565b606460405162461bcd60e51b815260206004820152601d60248201527f4c61207265736572766120796120657869737465206f6e2d636861696e0000006044820152fd5b600080fd5b3461095e57600036600319011261095e576020600154604051908152f35b3461095e57602036600319011261095e5760043567ffffffffffffffff811161095e5760206109b7610b8b923690600401611289565b919060606101406040516109ca816110db565b828152828582015282604082015260008382015260006080820152600060a0820152600060c0820152600060e0820152600061010082015282610120820152015282604051938492833781016000815203019020610aba600860405192610a30846110db565b610a39816111be565b8452610a47600182016111be565b6020850152610a58600282016111be565b60408501526003810154606085015260048101546080850152600581015460a085015260ff6006820154818116151560c08701528181851c16151560e087015260101c16610100850152610aae600782016111be565b610120850152016111be565b61014082015260405191829160208352610140610b76610b1a610b04610aee855161016060208a0152610180890190611264565b6020860151888203601f190160408a0152611264565b6040850151878203601f19016060890152611264565b60608401516080870152608084015160a087015260a084015160c087015260c0840151151560e087015260e0840151151561010087015260ff61010085015116610120870152610120840151601f198783030184880152611264565b910151838203601f1901610160850152611264565b0390f35b3461095e57604036600319011261095e5760043567ffffffffffffffff811161095e57610bc0903690600401611289565b906024359060ff82169283830361095e57610c1273ffffffffffffffffffffffffffffffffffffffff7f00000000000000000000000000000000000000000000000000000000000000001633146112b7565b60066040518284823760208184810160008152030190200191825460ff811615610d6b5760ff8160081c16610d2757600186101580610d1c575b15610cb35762ffffff191660109490941b62ff00001693909317610100179091557f720fac15ad95e7e15d4b7d8e3f33218d270ea09a1dcbb4886720c63d1a509a6491604091908183519283928337810160008152039020928151908152426020820152a2005b608460405162461bcd60e51b8152602060048201526024808201527f4c612063616c696669636163696f6e20646562652073657220656e747265203160448201527f20792035000000000000000000000000000000000000000000000000000000006064820152fd5b506005861115610c4c565b606460405162461bcd60e51b815260206004820152601f60248201527f59612065737461206d61726361646120636f6d6f20636f6d706c6574616461006044820152fd5b608460405162461bcd60e51b815260206004820152602160248201527f52657365727661206e6f20616374697661206f2079612066696e616c697a616460448201527f61000000000000000000000000000000000000000000000000000000000000006064820152fd5b3461095e57600036600319011261095e57602060405173ffffffffffffffffffffffffffffffffffffffff7f0000000000000000000000000000000000000000000000000000000000000000168152f35b3461095e57604036600319011261095e5767ffffffffffffffff60043581811161095e57610e58903690600401611289565b9160243590811161095e57610e71903690600401611289565b92610eb373ffffffffffffffffffffffffffffffffffffffff7f00000000000000000000000000000000000000000000000000000000000000001633146112b7565b6006604051828582376020818481016000815203019020019283549360ff851615610f29577fc480801d2bb33eaf2ffbf8ad31a3555cb09eb6fecb6dd73536303055807fd2869460ff1916905581604051928392833781016000815203902092610f24604051928392429184611328565b0390a2005b608460405162461bcd60e51b815260206004820152603660248201527f4e6f2073652070756564652063616e63656c617220756e61207265736572766160448201527f20696e616374697661206f2066696e616c697a616461000000000000000000006064820152fd5b3461095e57602036600319011261095e5760043567ffffffffffffffff811161095e573660238201121561095e576020610fda610fed92369060248160040135910161111a565b8160405193828580945193849201611161565b81016000815203019020611071610b8b611006836111be565b6110cc611015600186016111be565b94611022600282016111be565b9060ff600382015492600483015460058401549061108d60068601549361107f61105a600861105360078b016111be565b99016111be565b9a6040519e8f9e8f92610160808552840190611264565b916020818403910152611264565b8c810360408e015290611264565b9560608b015260808a015260a0890152818116151560c0890152818160081c16151560e089015260101c16610100870152858203610120870152611264565b90838203610140850152611264565b610160810190811067ffffffffffffffff8211176105d757604052565b90601f8019910116810190811067ffffffffffffffff8211176105d757604052565b92919267ffffffffffffffff82116105d75760405191611144601f8201601f1916602001846110f8565b82948184528183011161095e578281602093846000960137010152565b60005b8381106111745750506000910152565b8181015183820152602001611164565b90600182811c921680156111b4575b602083101461119e57565b634e487b7160e01b600052602260045260246000fd5b91607f1691611193565b90604051918260008254926111d284611184565b90818452600194858116908160001461124157506001146111fe575b50506111fc925003836110f8565b565b9093915060005260209081600020936000915b8183106112295750506111fc935082010138806111ee565b85548884018501529485019487945091830191611211565b9150506111fc94506020925060ff191682840152151560051b82010138806111ee565b9060209161127d81518092818552858086019101611161565b601f01601f1916010190565b9181601f8401121561095e5782359167ffffffffffffffff831161095e576020838186019501011161095e57565b156112be57565b608460405162461bcd60e51b815260206004820152603960248201527f536f6c6f20656c2061646d696e6973747261646f722064652047415244454e2060448201527f7075656465206c6c616d617220657374612066756e63696f6e000000000000006064820152fd5b9392918060609160209360408852816040890152838801376000828288010152601f801991011685010193015256fea2646970667358221220b82a1a912744102383909fd753f57b17de05b039a2f475cea6d188ba3fdb88b164736f6c63430008140033",
  "linkReferences": {},
  "deployedLinkReferences": {}
}