{
  "_format": "hh-sol-artifact-1",
  "contractName": "GardenEscrow",
  "sourceName": "contracts/GardenEscrow.sol",
  "abi": [
    {
      "inputs": [],
      "stateMutability": "nonpayable",
      "type": "constructor"
    },
    {
      "anonymous": false,
      "inputs": [
        {
          "indexed": true,
          "internalType": "string",
          "name": "bookingId",
          "type": "string"
        },
        {
          "indexed": false,
          "internalType": "string",
          "name": "petName",
          "type": "string"
        },
        {
          "indexed": false,
          "internalType": "uint256",
          "name": "amountBs",
          "type": "uint256"
        }
      ],
      "name": "BookingCreated",
      "type": "event"
    },
    {
      "anonymous": false,
      "inputs": [
        {
          "indexed": true,
          "internalType": "string",
          "name": "bookingId",
          "type": "string"
        },
        {
          "indexed": false,
          "internalType": "string",
          "name": "verdict",
          "type": "string"
        },
        {
          "indexed": false,
          "internalType": "uint256",
          "name": "caregiverAmountBs",
          "type": "uint256"
        },
        {
          "indexed": false,
          "internalType": "uint256",
          "name": "clientDiscountBs",
          "type": "uint256"
        },
        {
          "indexed": false,
          "internalType": "uint256",
          "name": "timestamp",
          "type": "uint256"
        }
      ],
      "name": "DisputeResolved",
      "type": "event"
    },
    {
      "anonymous": false,
      "inputs": [
        {
          "indexed": true,
          "internalType": "string",
          "name": "bookingId",
          "type": "string"
        },
        {
          "indexed": false,
          "internalType": "uint256",
          "name": "additionalDays",
          "type": "uint256"
        },
        {
          "indexed": false,
          "internalType": "uint256",
          "name": "newAmountBs",
          "type": "uint256"
        },
        {
          "indexed": false,
          "internalType": "uint256",
          "name": "timestamp",
          "type": "uint256"
        }
      ],
      "name": "HospedajeExtended",
      "type": "event"
    },
    {
      "anonymous": false,
      "inputs": [
        {
          "indexed": true,
          "internalType": "string",
          "name": "bookingId",
          "type": "string"
        },
        {
          "indexed": false,
          "internalType": "uint256",
          "name": "timestamp",
          "type": "uint256"
        }
      ],
      "name": "PaymentConfirmed",
      "type": "event"
    },
    {
      "anonymous": false,
      "inputs": [
        {
          "indexed": true,
          "internalType": "string",
          "name": "bookingId",
          "type": "string"
        },
        {
          "indexed": false,
          "internalType": "string",
          "name": "reason",
          "type": "string"
        },
        {
          "indexed": false,
          "internalType": "uint256",
          "name": "timestamp",
          "type": "uint256"
        }
      ],
      "name": "ServiceCancelled",
      "type": "event"
    },
    {
      "anonymous": false,
      "inputs": [
        {
          "indexed": true,
          "internalType": "string",
          "name": "bookingId",
          "type": "string"
        },
        {
          "indexed": false,
          "internalType": "uint8",
          "name": "rating",
          "type": "uint8"
        },
        {
          "indexed": false,
          "internalType": "uint256",
          "name": "timestamp",
          "type": "uint256"
        }
      ],
      "name": "ServiceFinalized",
      "type": "event"
    },
    {
      "anonymous": false,
      "inputs": [
        {
          "indexed": true,
          "internalType": "string",
          "name": "bookingId",
          "type": "string"
        },
        {
          "indexed": false,
          "internalType": "uint256",
          "name": "additionalMinutes",
          "type": "uint256"
        },
        {
          "indexed": false,
          "internalType": "uint256",
          "name": "newAmountBs",
          "type": "uint256"
        },
        {
          "indexed": false,
          "internalType": "uint256",
          "name": "timestamp",
          "type": "uint256"
        }
      ],
      "name": "WalkExtended",
      "type": "event"
    },
    {
      "inputs": [
        {
          "internalType": "string",
          "name": "",
          "type": "string"
        }
      ],
      "name": "bookings",
      "outputs": [
        {
          "internalType": "string",
          "name": "bookingId",
          "type": "string"
        },
        {
          "internalType": "string",
          "name": "clientId",
          "type": "string"
        },
        {
          "internalType": "string",
          "name": "caregiverId",
          "type": "string"
        },
        {
          "internalType": "uint256",
          "name": "amountBs",
          "type": "uint256"
        },
        {
          "internalType": "uint256",
          "name": "startTime",
          "type": "uint256"
        },
        {
          "internalType": "uint256",
          "name": "endTime",
          "type": "uint256"
        },
        {
          "internalType": "bool",
          "name": "isActive",
          "type": "bool"
        },
        {
          "internalType": "bool",
          "name": "isCompleted",
          "type": "bool"
        },
        {
          "internalType": "uint8",
          "name": "rating",
          "type": "uint8"
        },
        {
          "internalType": "string",
          "name": "petName",
          "type": "string"
        },
        {
          "internalType": "string",
          "name": "serviceType",
          "type": "string"
        }
      ],
      "stateMutability": "view",
      "type": "function"
    },
    {
      "inputs": [
        {
          "internalType": "string",
          "name": "_bookingId",
          "type": "string"
        },
        {
          "internalType": "string",
          "name": "_reason",
          "type": "string"
        }
      ],
      "name": "cancelBooking",
      "outputs": [],
      "stateMutability": "nonpayable",
      "type": "function"
    },
    {
      "inputs": [
        {
          "internalType": "string",
          "name": "",
          "type": "string"
        }
      ],
      "name": "caregiverRatingCount",
      "outputs": [
        {
          "internalType": "uint256",
          "name": "",
          "type": "uint256"
        }
      ],
      "stateMutability": "view",
      "type": "function"
    },
    {
      "inputs": [
        {
          "internalType": "string",
          "name": "",
          "type": "string"
        }
      ],
      "name": "caregiverTotalRating",
      "outputs": [
        {
          "internalType": "uint256",
          "name": "",
          "type": "uint256"
        }
      ],
      "stateMutability": "view",
      "type": "function"
    },
    {
      "inputs": [
        {
          "internalType": "string",
          "name": "_bookingId",
          "type": "string"
        },
        {
          "internalType": "string",
          "name": "_clientId",
          "type": "string"
        },
        {
          "internalType": "string",
          "name": "_caregiverId",
          "type": "string"
        },
        {
          "internalType": "uint256",
          "name": "_amountBs",
          "type": "uint256"
        },
        {
          "internalType": "uint256",
          "name": "_startTime",
          "type": "uint256"
        },
        {
          "internalType": "uint256",
          "name": "_endTime",
          "type": "uint256"
        },
        {
          "internalType": "string",
          "name": "_petName",
          "type": "string"
        },
        {
          "internalType": "string",
          "name": "_serviceType",
          "type": "string"
        }
      ],
      "name": "createBooking",
      "outputs": [],
      "stateMutability": "nonpayable",
      "type": "function"
    },
    {
      "inputs": [
        {
          "internalType": "string",
          "name": "_bookingId",
          "type": "string"
        },
        {
          "internalType": "uint256",
          "name": "_additionalDays",
          "type": "uint256"
        },
        {
          "internalType": "uint256",
          "name": "_newAmountBs",
          "type": "uint256"
        }
      ],
      "name": "extendHospedaje",
      "outputs": [],
      "stateMutability": "nonpayable",
      "type": "function"
    },
    {
      "inputs": [
        {
          "internalType": "string",
          "name": "_bookingId",
          "type": "string"
        },
        {
          "internalType": "uint256",
          "name": "_additionalMinutes",
          "type": "uint256"
        },
        {
          "internalType": "uint256",
          "name": "_newAmountBs",
          "type": "uint256"
        }
      ],
      "name": "extendWalk",
      "outputs": [],
      "stateMutability": "nonpayable",
      "type": "function"
    },
    {
      "inputs": [
        {
          "internalType": "string",
          "name": "_bookingId",
          "type": "string"
        },
        {
          "internalType": "uint8",
          "name": "_rating",
          "type": "uint8"
        }
      ],
      "name": "finalizeBooking",
      "outputs": [],
      "stateMutability": "nonpayable",
      "type": "function"
    },
    {
      "inputs": [
        {
          "internalType": "string",
          "name": "_id",
          "type": "string"
        }
      ],
      "name": "getBooking",
      "outputs": [
        {
          "components": [
            {
              "internalType": "string",
              "name": "bookingId",
              "type": "string"
            },
            {
              "internalType": "string",
              "name": "clientId",
              "type": "string"
            },
            {
              "internalType": "string",
              "name": "caregiverId",
              "type": "string"
            },
            {
              "internalType": "uint256",
              "name": "amountBs",
              "type": "uint256"
            },
            {
              "internalType": "uint256",
              "name": "startTime",
              "type": "uint256"
            },
            {
              "internalType": "uint256",
              "name": "endTime",
              "type": "uint256"
            },
            {
              "internalType": "bool",
              "name": "isActive",
              "type": "bool"
            },
            {
              "internalType": "bool",
              "name": "isCompleted",
              "type": "bool"
            },
            {
              "internalType": "uint8",
              "name": "rating",
              "type": "uint8"
            },
            {
              "internalType": "string",
              "name": "petName",
              "type": "string"
            },
            {
              "internalType": "string",
              "name": "serviceType",
              "type": "string"
            }
          ],
          "internalType": "struct GardenEscrow.Booking",
          "name": "",
          "type": "tuple"
        }
      ],
      "stateMutability": "view",
      "type": "function"
    },
    {
      "inputs": [
        {
          "internalType": "string",
          "name": "_caregiverId",
          "type": "string"
        }
      ],
      "name": "getReputation",
      "outputs": [
        {
          "internalType": "uint256",
          "name": "totalRating",
          "type": "uint256"
        },
        {
          "internalType": "uint256",
          "name": "ratingCount",
          "type": "uint256"
        }
      ],
      "stateMutability": "view",
      "type": "function"
    },
    {
      "inputs": [],
      "name": "owner",
      "outputs": [
        {
          "internalType": "address",
          "name": "",
          "type": "address"
        }
      ],
      "stateMutability": "view",
      "type": "function"
    },
    {
      "inputs": [
        {
          "internalType": "string",
          "name": "_bookingId",
          "type": "string"
        },
        {
          "internalType": "uint256",
          "name": "_caregiverAmountBs",
          "type": "uint256"
        }
      ],
      "name": "resolveDisputeCaregiverWins",
      "outputs": [],
      "stateMutability": "nonpayable",
      "type": "function"
    },
    {
      "inputs": [
        {
          "internalType": "string",
          "name": "_bookingId",
          "type": "string"
        },
        {
          "internalType": "uint256",
          "name": "_refundAmountBs",
          "type": "uint256"
        }
      ],
      "name": "resolveDisputeClientWins",
      "outputs": [],
      "stateMutability": "nonpayable",
      "type": "function"
    },
    {
      "inputs": [
        {
          "internalType": "string",
          "name": "_bookingId",
          "type": "string"
        },
        {
          "internalType": "uint256",
          "name": "_caregiverAmountBs",
          "type": "uint256"
        },
        {
          "internalType": "uint256",
          "name": "_clientDiscountBs",
          "type": "uint256"
        }
      ],
      "name": "resolvePartial",
      "outputs": [],
      "stateMutability": "nonpayable",
      "type": "function"
    },
    {
      "inputs": [],
      "name": "totalBookings",
      "outputs": [
        {
          "internalType": "uint256",
          "name": "",
          "type": "uint256"
        }
      ],
      "stateMutability": "view",
      "type": "function"
    }
  ],
  "bytecode": "0x60a0806040523461005b5733608052611bb69081610061823960805181818161018a015281816109cb01528181610d83015281816110ca0152818161112e015281816112370152818161148d0152818161163701526117020152f35b600080fdfe6080604052600436101561001257600080fd5b60003560e01c806301751d5d146116e557806302e84412146115f45780631f007d8a146115cd5780633ad9c924146115a65780633d1103f41461153d57806342b6ef791461144d578063502bf35e14611339578063833a5a14146111de5780638bbf8c5f146110ee5780638da5cb5b146110aa578063923d2d3314610d325780639624493f14610b245780639668ce3e14610b06578063c7d90c80146109ae5763eebef596146100c157600080fd5b346109a9576101003660031901126109a95760043567ffffffffffffffff81116109a9576100f3903690600401611803565b9060243567ffffffffffffffff81116109a957610114903690600401611803565b9060443567ffffffffffffffff81116109a957610135903690600401611803565b909260c43567ffffffffffffffff81116109a957610157903690600401611803565b94909360e43567ffffffffffffffff81116109a95761017a903690600401611803565b9190926101b16001600160a01b037f0000000000000000000000000000000000000000000000000000000000000000163314611a88565b60046040518b8b823760008c8201526020818d81010301902001546109655789956101fe61020a93610255976101f58d6040519b6101ee8d611868565b36916118a7565b8a5236916118a7565b602088015236916118a7565b60408501526064356060850152608435608085015260a43560a0850152600160c0850152600060e085015260006101008501526102483687876118a7565b61012085015236916118a7565b61014082015260405185858237602081878101600081520301902090805180519067ffffffffffffffff82116106225781906102918554611983565b601f8111610915575b50602090601f83116001146108a95760009261089e575b50508160011b916000199060031b1c19161782555b602081015180519067ffffffffffffffff82116106225781906102ec6001860154611983565b601f811161084b575b50602090601f83116001146107d9576000926107ce575b50508160011b916000199060031b1c19161760018301555b604081015180519067ffffffffffffffff821161062257819061034a6002860154611983565b601f811161077b575b50602090601f8311600114610709576000926106fe575b50508160011b916000199060031b1c19161760028301555b606081015160038301556080810151600483015560a081015160058301556103ec6006830160c08301511515815460ff61ff0060e0870151151560081b1692169061ffff19161717815560ff6101008401511662ff000082549160101b169062ff00001916179055565b61012081015180519067ffffffffffffffff8211610622576104116007850154611983565b601f81116106b7575b50602090601f83116001146106435761014093929160009183610638575b50508160011b916000199060031b1c19161760078401555b015180519067ffffffffffffffff8211610622576104716008840154611983565b601f81116105d7575b50602090601f831160011461056957600892916000918361055e575b50508160011b916000199060031b1c1916179101555b6001549060001982146105485760017f57ce3030b25e873cc2900f490ac3d24d068e7c280f934f8a29d540155038472e9201600155604051858582378086810160008152039020926105076040519283926064359184611af9565b0390a28160405192839283378101600081520390207f250cbee58b321813116d5b3523c84b813eaa55482958e914517b1ddfbbeea62a6020604051428152a2005b634e487b7160e01b600052601160045260246000fd5b015190503880610496565b90601f198316916008850160005260206000209260005b8181106105bf575091600193918560089694106105a6575b505050811b019101556104ac565b015160001960f88460031b161c19169055388080610598565b92936020600181928786015181550195019301610580565b600884016000526020600020601f840160051c81019160208510610618575b601f0160051c01905b81811061060c575061047a565b600081556001016105ff565b90915081906105f6565b634e487b7160e01b600052604160045260246000fd5b015190503880610438565b906007850160005260206000209160005b601f198516811061069f57509183916001936101409695601f19811610610686575b505050811b016007840155610450565b015160001960f88460031b161c19169055388080610676565b91926020600181928685015181550194019201610654565b600785016000526020600020601f840160051c8101602085106106f7575b601f830160051c820181106106eb57505061041a565b600081556001016106d5565b50806106d5565b01519050388061036a565b9250600285016000526020600020906000935b601f1984168510610760576001945083601f19811610610747575b505050811b016002830155610382565b015160001960f88460031b161c19169055388080610737565b8181015183556020948501946001909301929091019061071c565b909150600285016000526020600020601f840160051c8101602085106107c7575b90849392915b601f830160051c820181106107b8575050610353565b600081558594506001016107a2565b508061079c565b01519050388061030c565b9250600185016000526020600020906000935b601f1984168510610830576001945083601f19811610610817575b505050811b016001830155610324565b015160001960f88460031b161c19169055388080610807565b818101518355602094850194600190930192909101906107ec565b909150600185016000526020600020601f840160051c810160208510610897575b90849392915b601f830160051c820181106108885750506102f5565b60008155859450600101610872565b508061086c565b0151905038806102b1565b9250846000526020600020906000935b601f19841685106108fa576001945083601f198116106108e1575b505050811b0182556102c6565b015160001960f88460031b161c191690553880806108d4565b818101518355602094850194600190930192909101906108b9565b909150846000526020600020601f840160051c81016020851061095e575b90849392915b601f830160051c8201811061094f57505061029a565b60008155859450600101610939565b5080610933565b606460405162461bcd60e51b815260206004820152601d60248201527f4c61207265736572766120796120657869737465206f6e2d636861696e0000006044820152fd5b600080fd5b346109a9576109bc36611831565b92916109f26001600160a01b037f0000000000000000000000000000000000000000000000000000000000000000163314611a88565b60405181848237602081838101600081520301902060ff60068201541615610a9c578085600360059301550192835493603c840294848604603c1485151715610548577f95a77f02e9079398f3b4f7d6d4da8b13327ad5e2a93e298f6bab249aeabb0ea895610a6091611b28565b905581604051928392833781016000815203902092610a976040519283924291846040919493926060820195825260208201520152565b0390a2005b608460405162461bcd60e51b815260206004820152602860248201527f52657365727661206e6f20616374697661202d206e6f2073652070756564652060448201527f657874656e6465720000000000000000000000000000000000000000000000006064820152fd5b346109a95760003660031901126109a9576020600154604051908152f35b346109a95760203660031901126109a95760043567ffffffffffffffff81116109a9576020610b5a610d2e923690600401611803565b91906060610140604051610b6d81611868565b828152828582015282604082015260008382015260006080820152600060a0820152600060c0820152600060e0820152600061010082015282610120820152015282604051938492833781016000815203019020610c5d600860405192610bd384611868565b610bdc816119bd565b8452610bea600182016119bd565b6020850152610bfb600282016119bd565b60408501526003810154606085015260048101546080850152600581015460a085015260ff6006820154818116151560c08701528181851c16151560e087015260101c16610100850152610c51600782016119bd565b610120850152016119bd565b61014082015260405191829160208352610140610d19610cbd610ca7610c91855161016060208a0152610180890190611a63565b6020860151888203601f190160408a0152611a63565b6040850151878203601f19016060890152611a63565b60608401516080870152608084015160a087015260a084015160c087015260c0840151151560e087015260e0840151151561010087015260ff61010085015116610120870152610120840151601f198783030184880152611a63565b910151838203601f1901610160850152611a63565b0390f35b346109a95760403660031901126109a95760043567ffffffffffffffff81116109a957610d63903690600401611803565b9060249182359160ff8316928381036109a957610daa6001600160a01b037f0000000000000000000000000000000000000000000000000000000000000000163314611a88565b60405194838387378584810160008152602097889103019020600681019283549360ff8516156110415760ff8560081c16610ffe576001948589101580610ff3575b15610f8b5762ffffff191660109290921b62ff00001691909117610100179055600201604051878160008454610e2181611983565b90888116908115610f765750600114610f3b575b506002815203019020610e49878254611b28565b9055866040518092600090805490610e6082611983565b91888116908115610f245750600114610ee8575b50506003815203019020908154928301809311610ed4575091604093917f720fac15ad95e7e15d4b7d8e3f33218d270ea09a1dcbb4886720c63d1a509a6495935581845192839283378101600081520390209382519182524290820152a2005b634e487b7160e01b60005260116004526000fd5b9091506000528260002083876000925b848410610f0c575050505081018a80610e74565b80548885015287955092909101918591899101610ef8565b60ff19168552505080151502820190508a80610e74565b9050846000528260002083886000925b848410610f5e575050505081018b610e35565b805488850152879550929091019185918a9101610f4b565b60ff191684525080151502820190508b610e35565b60848a866040519162461bcd60e51b83526004830152808201527f4c612063616c696669636163696f6e20646562652073657220656e747265203160448201527f20792035000000000000000000000000000000000000000000000000000000006064820152fd5b506005891115610dec565b606489601f866040519262461bcd60e51b845260048401528201527f59612065737461206d61726361646120636f6d6f20636f6d706c6574616461006044820152fd5b6084896021866040519262461bcd60e51b845260048401528201527f52657365727661206e6f20616374697661206f2079612066696e616c697a616460448201527f61000000000000000000000000000000000000000000000000000000000000006064820152fd5b346109a95760003660031901126109a95760206040516001600160a01b037f0000000000000000000000000000000000000000000000000000000000000000168152f35b346109a95760c07fb82e131fcfa5ee5aabc35f0dafc55b7dee8beb0ebe72709b787a4f481d2040ba61111f36611950565b93916111556001600160a01b037f0000000000000000000000000000000000000000000000000000000000000000163314611a88565b600660405183838237602081858101600081520301902001805461117b60ff8216611b35565b60ff19169055816040519283928337810160008152039020926040519060808252600e60808301527f4341524547495645525f57494e5300000000000000000000000000000000000060a0830152602082015260006040820152426060820152a2005b346109a95760403660031901126109a95767ffffffffffffffff6004358181116109a957611210903690600401611803565b916024359081116109a957611229903690600401611803565b9261125e6001600160a01b037f0000000000000000000000000000000000000000000000000000000000000000163314611a88565b6006604051828582376020818481016000815203019020019283549360ff8516156112cf577fc480801d2bb33eaf2ffbf8ad31a3555cb09eb6fecb6dd73536303055807fd2869460ff1916905581604051928392833781016000815203902092610a97604051928392429184611af9565b608460405162461bcd60e51b815260206004820152603660248201527f4e6f2073652070756564652063616e63656c617220756e61207265736572766160448201527f20696e616374697661206f2066696e616c697a616461000000000000000000006064820152fd5b346109a95761135f602061134c366118ee565b816040519382858094519384920161192d565b810160008152030190206113e3610d2e611378836119bd565b61143e611387600186016119bd565b94611394600282016119bd565b9060ff60038201549260048301546005840154906113ff6006860154936113f16113cc60086113c560078b016119bd565b99016119bd565b9a6040519e8f9e8f92610160808552840190611a63565b916020818403910152611a63565b8c810360408e015290611a63565b9560608b015260808a015260a0890152818116151560c0890152818160081c16151560e089015260101c16610100870152858203610120870152611a63565b90838203610140850152611a63565b346109a95760c07fb82e131fcfa5ee5aabc35f0dafc55b7dee8beb0ebe72709b787a4f481d2040ba61147e36611950565b93916114b46001600160a01b037f0000000000000000000000000000000000000000000000000000000000000000163314611a88565b60066040518383823760208185810160008152030190200180546114da60ff8216611b35565b60ff19169055816040519283928337810160008152039020926040519060808252600b60808301527f434c49454e545f57494e5300000000000000000000000000000000000000000060a0830152600060208301526040820152426060820152a2005b346109a95760203660031901126109a95760043567ffffffffffffffff81116109a9576115706040913690600401611803565b60208351828482378181848101600281520301902054928285519384928337810160038152030190205482519182526020820152f35b346109a95760206115ba8161134c366118ee565b8101600281520301902054604051908152f35b346109a95760206115e18161134c366118ee565b8101600381520301902054604051908152f35b346109a95760c07fb82e131fcfa5ee5aabc35f0dafc55b7dee8beb0ebe72709b787a4f481d2040ba61162536611831565b949261165e6001600160a01b039392937f0000000000000000000000000000000000000000000000000000000000000000163314611a88565b600660405183838237602081858101600081520301902001805461168460ff8216611b35565b60ff19169055816040519283928337810160008152039020936040519160808352600760808401527f5041525449414c0000000000000000000000000000000000000000000000000060a084015260208301526040820152426060820152a2005b346109a9576116f336611831565b92916117296001600160a01b037f0000000000000000000000000000000000000000000000000000000000000000163314611a88565b60405181848237602081838101600081520301902060ff600682015416156117995780856003600593015501928354936201518094858502958587041485151715610548577f604cead4ce981373b8abe4ec84ae3d707ff3c9fbd50f20dcff59981c02b6d51395610a6091611b28565b608460405162461bcd60e51b815260206004820152603560248201527f52657365727661206e6f20616374697661202d206e6f2073652070756564652060448201527f657874656e64657220656c20686f73706564616a6500000000000000000000006064820152fd5b9181601f840112156109a95782359167ffffffffffffffff83116109a957602083818601950101116109a957565b60606003198201126109a9576004359067ffffffffffffffff82116109a95761185c91600401611803565b90916024359060443590565b610160810190811067ffffffffffffffff82111761062257604052565b90601f8019910116810190811067ffffffffffffffff82111761062257604052565b92919267ffffffffffffffff821161062257604051916118d1601f8201601f191660200184611885565b8294818452818301116109a9578281602093846000960137010152565b60206003198201126109a9576004359067ffffffffffffffff82116109a957806023830112156109a95781602461192a936004013591016118a7565b90565b60005b8381106119405750506000910152565b8181015183820152602001611930565b60406003198201126109a9576004359067ffffffffffffffff82116109a95761197b91600401611803565b909160243590565b90600182811c921680156119b3575b602083101461199d57565b634e487b7160e01b600052602260045260246000fd5b91607f1691611992565b90604051918260008254926119d184611983565b908184526001948581169081600014611a4057506001146119fd575b50506119fb92500383611885565b565b9093915060005260209081600020936000915b818310611a285750506119fb935082010138806119ed565b85548884018501529485019487945091830191611a10565b9150506119fb94506020925060ff191682840152151560051b82010138806119ed565b90602091611a7c8151809281855285808601910161192d565b601f01601f1916010190565b15611a8f57565b608460405162461bcd60e51b815260206004820152603960248201527f536f6c6f20656c2061646d696e6973747261646f722064652047415244454e2060448201527f7075656465206c6c616d617220657374612066756e63696f6e000000000000006064820152fd5b9392918060609160209360408852816040890152838801376000828288010152601f8019910116850101930152565b9190820180921161054857565b15611b3c57565b606460405162461bcd60e51b815260206004820152601f60248201527f52657365727661206e6f20616374697661206f2079612072657375656c7461006044820152fdfea2646970667358221220e0371685b41ad2a3e953bb941849179323bdf1c87c6b92aa2f267f226b176f5c64736f6c63430008140033",
  "linkReferences": {},
  "deployedLinkReferences": {}
}