{
  "_format": "hh-sol-artifact-1",
  "contractName": "GardenProfiles",
  "sourceName": "contracts/GardenProfiles.sol",
  "abi": [
    {
      "inputs": [],
      "stateMutability": "nonpayable",
      "type": "constructor"
    },
    {
      "anonymous": false,
      "inputs": [
        {
          "indexed": true,
          "internalType": "string",
          "name": "ownerId",
          "type": "string"
        },
        {
          "indexed": false,
          "internalType": "string",
          "name": "petName",
          "type": "string"
        }
      ],
      "name": "PetOnChainAdded",
      "type": "event"
    },
    {
      "anonymous": false,
      "inputs": [
        {
          "indexed": true,
          "internalType": "string",
          "name": "userId",
          "type": "string"
        },
        {
          "indexed": false,
          "internalType": "string",
          "name": "name",
          "type": "string"
        },
        {
          "indexed": false,
          "internalType": "enum GardenProfiles.UserRole",
          "name": "role",
          "type": "uint8"
        },
        {
          "indexed": false,
          "internalType": "bool",
          "name": "isVerified",
          "type": "bool"
        }
      ],
      "name": "ProfileSynced",
      "type": "event"
    },
    {
      "anonymous": false,
      "inputs": [
        {
          "indexed": true,
          "internalType": "string",
          "name": "userId",
          "type": "string"
        },
        {
          "indexed": false,
          "internalType": "bool",
          "name": "isVerified",
          "type": "bool"
        }
      ],
      "name": "VerificationStatusUpdated",
      "type": "event"
    },
    {
      "inputs": [
        {
          "internalType": "string",
          "name": "_ownerId",
          "type": "string"
        },
        {
          "internalType": "string",
          "name": "_petName",
          "type": "string"
        },
        {
          "internalType": "string",
          "name": "_breed",
          "type": "string"
        }
      ],
      "name": "addPetToOwner",
      "outputs": [],
      "stateMutability": "nonpayable",
      "type": "function"
    },
    {
      "inputs": [
        {
          "internalType": "string",
          "name": "_ownerId",
          "type": "string"
        }
      ],
      "name": "getOwnerPetsCount",
      "outputs": [
        {
          "internalType": "uint256",
          "name": "",
          "type": "uint256"
        }
      ],
      "stateMutability": "view",
      "type": "function"
    },
    {
      "inputs": [
        {
          "internalType": "string",
          "name": "_userId",
          "type": "string"
        }
      ],
      "name": "isUserVerified",
      "outputs": [
        {
          "internalType": "bool",
          "name": "",
          "type": "bool"
        }
      ],
      "stateMutability": "view",
      "type": "function"
    },
    {
      "inputs": [],
      "name": "owner",
      "outputs": [
        {
          "internalType": "address",
          "name": "",
          "type": "address"
        }
      ],
      "stateMutability": "view",
      "type": "function"
    },
    {
      "inputs": [
        {
          "internalType": "string",
          "name": "",
          "type": "string"
        },
        {
          "internalType": "uint256",
          "name": "",
          "type": "uint256"
        }
      ],
      "name": "ownerPets",
      "outputs": [
        {
          "internalType": "string",
          "name": "petName",
          "type": "string"
        },
        {
          "internalType": "string",
          "name": "breed",
          "type": "string"
        },
        {
          "internalType": "uint256",
          "name": "lastUpdate",
          "type": "uint256"
        }
      ],
      "stateMutability": "view",
      "type": "function"
    },
    {
      "inputs": [
        {
          "internalType": "string",
          "name": "",
          "type": "string"
        }
      ],
      "name": "profiles",
      "outputs": [
        {
          "internalType": "string",
          "name": "userId",
          "type": "string"
        },
        {
          "internalType": "string",
          "name": "name",
          "type": "string"
        },
        {
          "internalType": "enum GardenProfiles.UserRole",
          "name": "role",
          "type": "uint8"
        },
        {
          "internalType": "bool",
          "name": "isVerified",
          "type": "bool"
        },
        {
          "internalType": "uint256",
          "name": "joinedAt",
          "type": "uint256"
        },
        {
          "internalType": "string",
          "name": "metadataHash",
          "type": "string"
        },
        {
          "internalType": "bool",
          "name": "exists",
          "type": "bool"
        }
      ],
      "stateMutability": "view",
      "type": "function"
    },
    {
      "inputs": [
        {
          "internalType": "string",
          "name": "_userId",
          "type": "string"
        },
        {
          "internalType": "string",
          "name": "_name",
          "type": "string"
        },
        {
          "internalType": "uint8",
          "name": "_role",
          "type": "uint8"
        },
        {
          "internalType": "bool",
          "name": "_isVerified",
          "type": "bool"
        },
        {
          "internalType": "string",
          "name": "_metadataHash",
          "type": "string"
        }
      ],
      "name": "syncProfile",
      "outputs": [],
      "stateMutability": "nonpayable",
      "type": "function"
    },
    {
      "inputs": [
        {
          "internalType": "string",
          "name": "_userId",
          "type": "string"
        },
        {
          "internalType": "bool",
          "name": "_status",
          "type": "bool"
        }
      ],
      "name": "updateVerificationStatus",
      "outputs": [],
      "stateMutability": "nonpayable",
      "type": "function"
    }
  ],
  "bytecode": "0x60a080604052346100385733608052611238908161003e8239608051818181610106015281816106bd01528181610d070152610d850152f35b600080fdfe608080604052600436101561001357600080fd5b60003560e01c9081631c77a10a14610f07575080638219f94e14610eaa5780638a4ac29f14610d2b5780638da5cb5b14610cda5780639c6719ff14610c21578063c77663db14610616578063cba521e2146105275763d10be60b1461007757600080fd5b346105225760603660031901126105225760043567ffffffffffffffff8111610522576100a8903690600401610f54565b60243567ffffffffffffffff8111610522576100c8903690600401610f54565b9160443567ffffffffffffffff8111610522576100e9903690600401610f54565b61012d73ffffffffffffffffffffffffffffffffffffffff9692967f0000000000000000000000000000000000000000000000000000000000000000163314611170565b60ff6005604051858582376020818781016000815203019020015416156104b8576040518383823760208185810160018152030190209060405196606088019188831067ffffffffffffffff8411176103c55761019b92604052610192368989610fa4565b89523691610fa4565b60208701524260408701528054680100000000000000008110156103c5576101c89160018201815561102c565b6104a257855180519067ffffffffffffffff82116103c55781906101ec845461105e565b601f8111610452575b50602090601f83116001146103e6576000926103db575b50508160011b916000199060031b1c19161781555b602086015195865167ffffffffffffffff81116103c557610245600184015461105e565b601f811161037a575b506020601f82116001146102e65791816040926002947f5fa6d0b3edbb646f8f7dcc1974f8642d9291e5b42087d88405c7c26ecb0f5ab49a9b6000926102db575b50508160011b916000199060031b1c19161760018501555b0151910155816040519283928337810160008152039020926102d66040519283926020845260208401916111e1565b0390a2005b01519050388061028f565b601f198216986001850160005260206000209960005b8181106103625750927f5fa6d0b3edbb646f8f7dcc1974f8642d9291e5b42087d88405c7c26ecb0f5ab4999a600295936001938360409710610349575b505050811b0160018501556102a7565b015160001960f88460031b161c19169055388080610339565b838301518c556001909b019a602093840193016102fc565b600184016000526020600020601f830160051c810191602084106103bb575b601f0160051c01905b8181106103af575061024e565b600081556001016103a2565b9091508190610399565b634e487b7160e01b600052604160045260246000fd5b01519050388061020c565b9250836000526020600020906000935b601f1984168510610437576001945083601f1981161061041e575b505050811b018155610221565b015160001960f88460031b161c19169055388080610411565b818101518355602094850194600190930192909101906103f6565b909150836000526020600020601f840160051c81016020851061049b575b90849392915b601f830160051c8201811061048c5750506101f5565b60008155859450600101610476565b5080610470565b634e487b7160e01b600052600060045260246000fd5b608460405162461bcd60e51b815260206004820152602760248201527f456c206475656e6f20646562652074656e65722070657266696c2073696e637260448201527f6f6e697a61646f000000000000000000000000000000000000000000000000006064820152fd5b600080fd5b346105225760203660031901126105225760043567ffffffffffffffff81116105225761057360206105606105cf933690600401610feb565b8160405193828580945193849201611009565b8101600081520301902061058681611098565b9061060a61059660018301611098565b91600281015490600381015460ff6105dd8160056105b660048701611098565b9501541696604051998a9960e08b5260e08b019061113e565b9089820360208b015261113e565b936105ed60408901838316611163565b60081c1615156060870152608086015284820360a086015261113e565b90151560c08301520390f35b346105225760a03660031901126105225760043567ffffffffffffffff811161052257610647903690600401610f54565b60243567ffffffffffffffff811161052257610667903690600401610f54565b60443560ff81168103610522576064359384151585036105225760843567ffffffffffffffff8111610522576106a1903690600401610f54565b96906106e473ffffffffffffffffffffffffffffffffffffffff7f0000000000000000000000000000000000000000000000000000000000000000163314611170565b600360ff85161015610a6d5760ff6005604051858582376000818701908152819003602001902001541615610c1a5760036040518484823760208186810160008152030190200154905b604051988960e081011067ffffffffffffffff60e08c0111176103c5576107909260e08b01604052610761368787610fa4565b8b5261076e36898b610fa4565b60208c015260ff871660408c015289151560608c015260808b01523691610fa4565b60a0880152600160c088015260405182828237602081848101600081520301902096805180519067ffffffffffffffff82116103c55781906107d28b5461105e565b601f8111610bca575b50602090601f8311600114610b5e57600092610b53575b50508160011b916000199060031b1c19161788555b602081015180519067ffffffffffffffff82116103c557819061082d60018c015461105e565b601f8111610b00575b50602090601f8311600114610a8e57600092610a83575b50508160011b916000199060031b1c19161760018901555b6040810151600289016003821015610a6d578054606084015161ff0090151560081b1660ff9390931661ffff19909116179190911790556080810151600389015560a081015197885167ffffffffffffffff81116103c5576108ca600483015461105e565b601f8111610a26575b506020601f821160011461099057918160059260c0947f608038de77c026eefba156300c9558e27c9b4c5b3eac9e3fe6ce4a54a0a6a0999c9d600092610985575b50508160011b916000199060031b1c19161760048201555b01910151151560ff801983541691161790558160405192839283378101600081520390209461097961096b6040519586956060875260608701916111e1565b9260ff602086019116611163565b151560408301520390a2005b015190508d80610914565b6004830160005260206000209a60005b601f1984168110610a0e5750827f608038de77c026eefba156300c9558e27c9b4c5b3eac9e3fe6ce4a54a0a6a0999b9c60c09593600193600596601f198116106109f5575b505050811b01600482015561092c565b015160001960f88460031b161c191690558d80806109e5565b828201518d556001909c019b602092830192016109a0565b600483016000526020600020601f830160051c810160208410610a66575b601f830160051c82018110610a5a5750506108d3565b60008155600101610a44565b5080610a44565b634e487b7160e01b600052602160045260246000fd5b015190508a8061084d565b925060018b016000526020600020906000935b601f1984168510610ae5576001945083601f19811610610acc575b505050811b016001890155610865565b015160001960f88460031b161c191690558a8080610abc565b81810151835560209485019460019093019290910190610aa1565b90915060018b016000526020600020601f840160051c810160208510610b4c575b90849392915b601f830160051c82018110610b3d575050610836565b60008155859450600101610b27565b5080610b21565b015190508a806107f2565b92508a6000526020600020906000935b601f1984168510610baf576001945083601f19811610610b96575b505050811b018855610807565b015160001960f88460031b161c191690558a8080610b89565b81810151835560209485019460019093019290910190610b6e565b9091508a6000526020600020601f840160051c810160208510610c13575b90849392915b601f830160051c82018110610c045750506107db565b60008155859450600101610bee565b5080610be8565b429061072e565b346105225760403660031901126105225760043567ffffffffffffffff811161052257610c52903690600401610feb565b610c6e6020602435928160405193828580945193849201611009565b81016001815203019020805482101561052257610cc291610c8e9161102c565b50610c9881611098565b90610cd06002610caa60018401611098565b9201549160405194859460608652606086019061113e565b90848203602086015261113e565b9060408301520390f35b3461052257600036600319011261052257602060405173ffffffffffffffffffffffffffffffffffffffff7f0000000000000000000000000000000000000000000000000000000000000000168152f35b346105225760403660031901126105225760043567ffffffffffffffff811161052257610d5c903690600401610f54565b906024358015159283820361052257610dac73ffffffffffffffffffffffffffffffffffffffff7f0000000000000000000000000000000000000000000000000000000000000000163314611170565b60ff600560405183868237602081858101600081520301902001541615610e40577ff6e400ebdfcd73a618ded970e4f27ec8313d37d28ccd07168f0e3fd2892e8ffd92610e2460209360026040518585823786818781016000815203019020019061ff00825491151560081b169061ff001916179055565b81604051928392833781016000815203902092604051908152a2005b608460405162461bcd60e51b815260206004820152602160248201527f456c2070657266696c206e6f2065786973746520656e20626c6f636b6368616960448201527f6e000000000000000000000000000000000000000000000000000000000000006064820152fd5b346105225760203660031901126105225760043567ffffffffffffffff81116105225760ff60026020610ee281943690600401610f54565b919082604051938492833781016000815203019020015460081c166040519015158152f35b34610522576020366003190112610522576004359067ffffffffffffffff821161052257602081610f3d82943690600401610f54565b809183378101600181520301902054604051908152f35b9181601f840112156105225782359167ffffffffffffffff8311610522576020838186019501011161052257565b90601f8019910116810190811067ffffffffffffffff8211176103c557604052565b92919267ffffffffffffffff82116103c55760405191610fce601f8201601f191660200184610f82565b829481845281830111610522578281602093846000960137010152565b9080601f830112156105225781602061100693359101610fa4565b90565b60005b83811061101c5750506000910152565b818101518382015260200161100c565b8054821015611048576000526003602060002091020190600090565b634e487b7160e01b600052603260045260246000fd5b90600182811c9216801561108e575b602083101461107857565b634e487b7160e01b600052602260045260246000fd5b91607f169161106d565b90604051918260008254926110ac8461105e565b90818452600194858116908160001461111b57506001146110d8575b50506110d692500383610f82565b565b9093915060005260209081600020936000915b8183106111035750506110d6935082010138806110c8565b855488840185015294850194879450918301916110eb565b9150506110d694506020925060ff191682840152151560051b82010138806110c8565b9060209161115781518092818552858086019101611009565b601f01601f1916010190565b906003821015610a6d5752565b1561117757565b608460405162461bcd60e51b815260206004820152602b60248201527f536f6c6f20656c2061646d696e2064652047415244454e20707565646520656a60448201527f656375746172206573746f0000000000000000000000000000000000000000006064820152fd5b908060209392818452848401376000828201840152601f01601f191601019056fea26469706673582212205a8e24cdbf7a6172e662b2e2b7d347895e39c1dab44340715b01a1e760cff88764736f6c63430008140033",
  "linkReferences": {},
  "deployedLinkReferences": {}
}